{
  "contractName": "Exchange",
  "abi": [
    {
      "constant": true,
      "inputs": [
        {
          "name": "numerator",
          "type": "uint256"
        },
        {
          "name": "denominator",
          "type": "uint256"
        },
        {
          "name": "target",
          "type": "uint256"
        }
      ],
      "name": "isRoundingError",
      "outputs": [
        {
          "name": "",
          "type": "bool"
        }
      ],
      "payable": false,
      "stateMutability": "view",
      "type": "function"
    },
    {
      "constant": true,
      "inputs": [
        {
          "name": "",
          "type": "bytes32"
        }
      ],
      "name": "filled",
      "outputs": [
        {
          "name": "",
          "type": "uint256"
        }
      ],
      "payable": false,
      "stateMutability": "view",
      "type": "function"
    },
    {
      "constant": true,
      "inputs": [
        {
          "name": "",
          "type": "bytes32"
        }
      ],
      "name": "cancelled",
      "outputs": [
        {
          "name": "",
          "type": "uint256"
        }
      ],
      "payable": false,
      "stateMutability": "view",
      "type": "function"
    },
    {
      "constant": false,
      "inputs": [
        {
          "name": "orderAddresses",
          "type": "address[5][]"
        },
        {
          "name": "orderValues",
          "type": "uint256[6][]"
        },
        {
          "name": "fillTakerTokenAmount",
          "type": "uint256"
        },
        {
          "name": "shouldThrowOnInsufficientBalanceOrAllowance",
          "type": "bool"
        },
        {
          "name": "v",
          "type": "uint8[]"
        },
        {
          "name": "r",
          "type": "bytes32[]"
        },
        {
          "name": "s",
          "type": "bytes32[]"
        }
      ],
      "name": "fillOrdersUpTo",
      "outputs": [
        {
          "name": "",
          "type": "uint256"
        }
      ],
      "payable": false,
      "stateMutability": "nonpayable",
      "type": "function"
    },
    {
      "constant": false,
      "inputs": [
        {
          "name": "orderAddresses",
          "type": "address[5]"
        },
        {
          "name": "orderValues",
          "type": "uint256[6]"
        },
        {
          "name": "cancelTakerTokenAmount",
          "type": "uint256"
        }
      ],
      "name": "cancelOrder",
      "outputs": [
        {
          "name": "",
          "type": "uint256"
        }
      ],
      "payable": false,
      "stateMutability": "nonpayable",
      "type": "function"
    },
    {
      "constant": true,
      "inputs": [],
      "name": "ZRX_TOKEN_CONTRACT",
      "outputs": [
        {
          "name": "",
          "type": "address"
        }
      ],
      "payable": false,
      "stateMutability": "view",
      "type": "function"
    },
    {
      "constant": false,
      "inputs": [
        {
          "name": "orderAddresses",
          "type": "address[5][]"
        },
        {
          "name": "orderValues",
          "type": "uint256[6][]"
        },
        {
          "name": "fillTakerTokenAmounts",
          "type": "uint256[]"
        },
        {
          "name": "v",
          "type": "uint8[]"
        },
        {
          "name": "r",
          "type": "bytes32[]"
        },
        {
          "name": "s",
          "type": "bytes32[]"
        }
      ],
      "name": "batchFillOrKillOrders",
      "outputs": [],
      "payable": false,
      "stateMutability": "nonpayable",
      "type": "function"
    },
    {
      "constant": false,
      "inputs": [
        {
          "name": "orderAddresses",
          "type": "address[5]"
        },
        {
          "name": "orderValues",
          "type": "uint256[6]"
        },
        {
          "name": "fillTakerTokenAmount",
          "type": "uint256"
        },
        {
          "name": "v",
          "type": "uint8"
        },
        {
          "name": "r",
          "type": "bytes32"
        },
        {
          "name": "s",
          "type": "bytes32"
        }
      ],
      "name": "fillOrKillOrder",
      "outputs": [],
      "payable": false,
      "stateMutability": "nonpayable",
      "type": "function"
    },
    {
      "constant": true,
      "inputs": [
        {
          "name": "orderHash",
          "type": "bytes32"
        }
      ],
      "name": "getUnavailableTakerTokenAmount",
      "outputs": [
        {
          "name": "",
          "type": "uint256"
        }
      ],
      "payable": false,
      "stateMutability": "view",
      "type": "function"
    },
    {
      "constant": true,
      "inputs": [
        {
          "name": "signer",
          "type": "address"
        },
        {
          "name": "hash",
          "type": "bytes32"
        },
        {
          "name": "v",
          "type": "uint8"
        },
        {
          "name": "r",
          "type": "bytes32"
        },
        {
          "name": "s",
          "type": "bytes32"
        }
      ],
      "name": "isValidSignature",
      "outputs": [
        {
          "name": "",
          "type": "bool"
        }
      ],
      "payable": false,
      "stateMutability": "view",
      "type": "function"
    },
    {
      "constant": true,
      "inputs": [
        {
          "name": "numerator",
          "type": "uint256"
        },
        {
          "name": "denominator",
          "type": "uint256"
        },
        {
          "name": "target",
          "type": "uint256"
        }
      ],
      "name": "getPartialAmount",
      "outputs": [
        {
          "name": "",
          "type": "uint256"
        }
      ],
      "payable": false,
      "stateMutability": "view",
      "type": "function"
    },
    {
      "constant": true,
      "inputs": [],
      "name": "TOKEN_TRANSFER_PROXY_CONTRACT",
      "outputs": [
        {
          "name": "",
          "type": "address"
        }
      ],
      "payable": false,
      "stateMutability": "view",
      "type": "function"
    },
    {
      "constant": false,
      "inputs": [
        {
          "name": "orderAddresses",
          "type": "address[5][]"
        },
        {
          "name": "orderValues",
          "type": "uint256[6][]"
        },
        {
          "name": "fillTakerTokenAmounts",
          "type": "uint256[]"
        },
        {
          "name": "shouldThrowOnInsufficientBalanceOrAllowance",
          "type": "bool"
        },
        {
          "name": "v",
          "type": "uint8[]"
        },
        {
          "name": "r",
          "type": "bytes32[]"
        },
        {
          "name": "s",
          "type": "bytes32[]"
        }
      ],
      "name": "batchFillOrders",
      "outputs": [],
      "payable": false,
      "stateMutability": "nonpayable",
      "type": "function"
    },
    {
      "constant": false,
      "inputs": [
        {
          "name": "orderAddresses",
          "type": "address[5][]"
        },
        {
          "name": "orderValues",
          "type": "uint256[6][]"
        },
        {
          "name": "cancelTakerTokenAmounts",
          "type": "uint256[]"
        }
      ],
      "name": "batchCancelOrders",
      "outputs": [],
      "payable": false,
      "stateMutability": "nonpayable",
      "type": "function"
    },
    {
      "constant": false,
      "inputs": [
        {
          "name": "orderAddresses",
          "type": "address[5]"
        },
        {
          "name": "orderValues",
          "type": "uint256[6]"
        },
        {
          "name": "fillTakerTokenAmount",
          "type": "uint256"
        },
        {
          "name": "shouldThrowOnInsufficientBalanceOrAllowance",
          "type": "bool"
        },
        {
          "name": "v",
          "type": "uint8"
        },
        {
          "name": "r",
          "type": "bytes32"
        },
        {
          "name": "s",
          "type": "bytes32"
        }
      ],
      "name": "fillOrder",
      "outputs": [
        {
          "name": "filledTakerTokenAmount",
          "type": "uint256"
        }
      ],
      "payable": false,
      "stateMutability": "nonpayable",
      "type": "function"
    },
    {
      "constant": true,
      "inputs": [
        {
          "name": "orderAddresses",
          "type": "address[5]"
        },
        {
          "name": "orderValues",
          "type": "uint256[6]"
        }
      ],
      "name": "getOrderHash",
      "outputs": [
        {
          "name": "",
          "type": "bytes32"
        }
      ],
      "payable": false,
      "stateMutability": "view",
      "type": "function"
    },
    {
      "constant": true,
      "inputs": [],
      "name": "EXTERNAL_QUERY_GAS_LIMIT",
      "outputs": [
        {
          "name": "",
          "type": "uint16"
        }
      ],
      "payable": false,
      "stateMutability": "view",
      "type": "function"
    },
    {
      "constant": true,
      "inputs": [],
      "name": "VERSION",
      "outputs": [
        {
          "name": "",
          "type": "string"
        }
      ],
      "payable": false,
      "stateMutability": "view",
      "type": "function"
    },
    {
      "inputs": [
        {
          "name": "_zrxToken",
          "type": "address"
        },
        {
          "name": "_tokenTransferProxy",
          "type": "address"
        }
      ],
      "payable": false,
      "stateMutability": "nonpayable",
      "type": "constructor"
    },
    {
      "anonymous": false,
      "inputs": [
        {
          "indexed": true,
          "name": "maker",
          "type": "address"
        },
        {
          "indexed": false,
          "name": "taker",
          "type": "address"
        },
        {
          "indexed": true,
          "name": "feeRecipient",
          "type": "address"
        },
        {
          "indexed": false,
          "name": "makerToken",
          "type": "address"
        },
        {
          "indexed": false,
          "name": "takerToken",
          "type": "address"
        },
        {
          "indexed": false,
          "name": "filledMakerTokenAmount",
          "type": "uint256"
        },
        {
          "indexed": false,
          "name": "filledTakerTokenAmount",
          "type": "uint256"
        },
        {
          "indexed": false,
          "name": "paidMakerFee",
          "type": "uint256"
        },
        {
          "indexed": false,
          "name": "paidTakerFee",
          "type": "uint256"
        },
        {
          "indexed": true,
          "name": "tokens",
          "type": "bytes32"
        },
        {
          "indexed": false,
          "name": "orderHash",
          "type": "bytes32"
        }
      ],
      "name": "LogFill",
      "type": "event"
    },
    {
      "anonymous": false,
      "inputs": [
        {
          "indexed": true,
          "name": "maker",
          "type": "address"
        },
        {
          "indexed": true,
          "name": "feeRecipient",
          "type": "address"
        },
        {
          "indexed": false,
          "name": "makerToken",
          "type": "address"
        },
        {
          "indexed": false,
          "name": "takerToken",
          "type": "address"
        },
        {
          "indexed": false,
          "name": "cancelledMakerTokenAmount",
          "type": "uint256"
        },
        {
          "indexed": false,
          "name": "cancelledTakerTokenAmount",
          "type": "uint256"
        },
        {
          "indexed": true,
          "name": "tokens",
          "type": "bytes32"
        },
        {
          "indexed": false,
          "name": "orderHash",
          "type": "bytes32"
        }
      ],
      "name": "LogCancel",
      "type": "event"
    },
    {
      "anonymous": false,
      "inputs": [
        {
          "indexed": true,
          "name": "errorId",
          "type": "uint8"
        },
        {
          "indexed": true,
          "name": "orderHash",
          "type": "bytes32"
        }
      ],
      "name": "LogError",
      "type": "event"
    }
  ],
  "bytecode": "0x6060604052341561000f57600080fd5b604051604080612bd783398101604052808051906020019091908051906020019091905050816000806101000a81548173ffffffffffffffffffffffffffffffffffffffff021916908373ffffffffffffffffffffffffffffffffffffffff16021790555080600160006101000a81548173ffffffffffffffffffffffffffffffffffffffff021916908373ffffffffffffffffffffffffffffffffffffffff1602179055505050612b11806100c66000396000f3006060604052600436106100fc576000357c0100000000000000000000000000000000000000000000000000000000900463ffffffff16806314df96ee14610101578063288cdc911461014e5780632ac1262214610189578063363349be146101c4578063394c21e7146103be5780633b30ba591461044d5780634f150787146104a2578063741bcc93146106b45780637e9abb50146107555780638163681e1461079057806398024a8b14610814578063add1cbc51461085d578063b7b2c7d6146108b2578063baa0181d14610acf578063bc61394a14610c21578063cfc4d0ec14610ce1578063f06bbf7514610d6f578063ffa1ad7414610da0575b600080fd5b341561010c57600080fd5b6101346004808035906020019091908035906020019091908035906020019091905050610e2e565b604051808215151515815260200191505060405180910390f35b341561015957600080fd5b610173600480803560001916906020019091905050610e7d565b6040518082815260200191505060405180910390f35b341561019457600080fd5b6101ae600480803560001916906020019091905050610e95565b6040518082815260200191505060405180910390f35b34156101cf57600080fd5b6103a860048080359060200190820180359060200190808060200260200160405190810160405280939291908181526020016000905b8282101561024a57848483905060a002016005806020026040519081016040528092919082600560200280828437820191505050505081526020019060010190610205565b5050505050919080359060200190820180359060200190808060200260200160405190810160405280939291908181526020016000905b828210156102c657848483905060c002016006806020026040519081016040528092919082600660200280828437820191505050505081526020019060010190610281565b5050505050919080359060200190919080351515906020019091908035906020019082018035906020019080806020026020016040519081016040528093929190818152602001838360200280828437820191505050505050919080359060200190820180359060200190808060200260200160405190810160405280939291908181526020018383602002808284378201915050505050509190803590602001908201803590602001908080602002602001604051908101604052809392919081815260200183836020028082843782019150505050505091905050610ead565b6040518082815260200191505060405180910390f35b34156103c957600080fd5b6104376004808060a001906005806020026040519081016040528092919082600560200280828437820191505050505091908060c001906006806020026040519081016040528092919082600660200280828437820191505050505091908035906020019091905050611012565b6040518082815260200191505060405180910390f35b341561045857600080fd5b6104606114fa565b604051808273ffffffffffffffffffffffffffffffffffffffff1673ffffffffffffffffffffffffffffffffffffffff16815260200191505060405180910390f35b34156104ad57600080fd5b6106b260048080359060200190820180359060200190808060200260200160405190810160405280939291908181526020016000905b8282101561052857848483905060a0020160058060200260405190810160405280929190826005602002808284378201915050505050815260200190600101906104e3565b5050505050919080359060200190820180359060200190808060200260200160405190810160405280939291908181526020016000905b828210156105a457848483905060c00201600680602002604051908101604052809291908260066020028082843782019150505050508152602001906001019061055f565b5050505050919080359060200190820180359060200190808060200260200160405190810160405280939291908181526020018383602002808284378201915050505050509190803590602001908201803590602001908080602002602001604051908101604052809392919081815260200183836020028082843782019150505050505091908035906020019082018035906020019080806020026020016040519081016040528093929190818152602001838360200280828437820191505050505050919080359060200190820180359060200190808060200260200160405190810160405280939291908181526020018383602002808284378201915050505050509190505061151f565b005b34156106bf57600080fd5b6107536004808060a001906005806020026040519081016040528092919082600560200280828437820191505050505091908060c00190600680602002604051908101604052809291908260066020028082843782019150505050509190803590602001909190803560ff1690602001909190803560001916906020019091908035600019169060200190919050506115dc565b005b341561076057600080fd5b61077a600480803560001916906020019091905050611601565b6040518082815260200191505060405180910390f35b341561079b57600080fd5b6107fa600480803573ffffffffffffffffffffffffffffffffffffffff169060200190919080356000191690602001909190803560ff16906020019091908035600019169060200190919080356000191690602001909190505061164a565b604051808215151515815260200191505060405180910390f35b341561081f57600080fd5b6108476004808035906020019091908035906020019091908035906020019091905050611751565b6040518082815260200191505060405180910390f35b341561086857600080fd5b61087061176f565b604051808273ffffffffffffffffffffffffffffffffffffffff1673ffffffffffffffffffffffffffffffffffffffff16815260200191505060405180910390f35b34156108bd57600080fd5b610acd60048080359060200190820180359060200190808060200260200160405190810160405280939291908181526020016000905b8282101561093857848483905060a0020160058060200260405190810160405280929190826005602002808284378201915050505050815260200190600101906108f3565b5050505050919080359060200190820180359060200190808060200260200160405190810160405280939291908181526020016000905b828210156109b457848483905060c00201600680602002604051908101604052809291908260066020028082843782019150505050508152602001906001019061096f565b505050505091908035906020019082018035906020019080806020026020016040519081016040528093929190818152602001838360200280828437820191505050505050919080351515906020019091908035906020019082018035906020019080806020026020016040519081016040528093929190818152602001838360200280828437820191505050505050919080359060200190820180359060200190808060200260200160405190810160405280939291908181526020018383602002808284378201915050505050509190803590602001908201803590602001908080602002602001604051908101604052809392919081815260200183836020028082843782019150505050505091905050611795565b005b3415610ada57600080fd5b610c1f60048080359060200190820180359060200190808060200260200160405190810160405280939291908181526020016000905b82821015610b5557848483905060a002016005806020026040519081016040528092919082600560200280828437820191505050505081526020019060010190610b10565b5050505050919080359060200190820180359060200190808060200260200160405190810160405280939291908181526020016000905b82821015610bd157848483905060c002016006806020026040519081016040528092919082600660200280828437820191505050505081526020019060010190610b8c565b50505050509190803590602001908201803590602001908080602002602001604051908101604052809392919081815260200183836020028082843782019150505050505091905050611855565b005b3415610c2c57600080fd5b610ccb6004808060a001906005806020026040519081016040528092919082600560200280828437820191505050505091908060c001906006806020026040519081016040528092919082600660200280828437820191505050505091908035906020019091908035151590602001909190803560ff1690602001909190803560001916906020019091908035600019169060200190919050506118c8565b6040518082815260200191505060405180910390f35b3415610cec57600080fd5b610d516004808060a001906005806020026040519081016040528092919082600560200280828437820191505050505091908060c001906006806020026040519081016040528092919082600660200280828437820191505050505091905050612009565b60405180826000191660001916815260200191505060405180910390f35b3415610d7a57600080fd5b610d826122b4565b604051808261ffff1661ffff16815260200191505060405180910390f35b3415610dab57600080fd5b610db36122ba565b6040518080602001828103825283818151815260200191508051906020019080838360005b83811015610df3578082015181840152602081019050610dd8565b50505050905090810190601f168015610e205780820380516001836020036101000a031916815260200191505b509250505060405180910390f35b60008060008486850991506000821415610e4b5760009250610e74565b610e6a610e5b83620f42406122f3565b610e6588876122f3565b612326565b90506103e8811192505b50509392505050565b60026020528060005260406000206000915090505481565b60036020528060005260406000206000915090505481565b6000806000809150600090505b895181101561100257896000815181101515610ed257fe5b906020019060200201516003600581101515610eea57fe5b602002015173ffffffffffffffffffffffffffffffffffffffff168a82815181101515610f1357fe5b906020019060200201516003600581101515610f2b57fe5b602002015173ffffffffffffffffffffffffffffffffffffffff16141515610f5257600080fd5b610fe682610fe18c84815181101515610f6757fe5b906020019060200201518c85815181101515610f7f57fe5b90602001906020020151610f938d88612341565b8c8c88815181101515610fa257fe5b906020019060200201518c89815181101515610fba57fe5b906020019060200201518c8a815181101515610fd257fe5b906020019060200201516118c8565b61235a565b915087821415610ff557611002565b8080600101915050610eba565b8192505050979650505050505050565b600061101c612a19565b6000806101606040519081016040528088600060058110151561103b57fe5b602002015173ffffffffffffffffffffffffffffffffffffffff16815260200188600160058110151561106a57fe5b602002015173ffffffffffffffffffffffffffffffffffffffff16815260200188600260058110151561109957fe5b602002015173ffffffffffffffffffffffffffffffffffffffff1681526020018860036005811015156110c857fe5b602002015173ffffffffffffffffffffffffffffffffffffffff1681526020018860046005811015156110f757fe5b602002015173ffffffffffffffffffffffffffffffffffffffff16815260200187600060068110151561112657fe5b6020020151815260200187600160068110151561113f57fe5b6020020151815260200187600260068110151561115857fe5b6020020151815260200187600360068110151561117157fe5b6020020151815260200187600460068110151561118a57fe5b6020020151815260200161119e8989612009565b6000191681525092503373ffffffffffffffffffffffffffffffffffffffff16836000015173ffffffffffffffffffffffffffffffffffffffff161415156111e557600080fd5b60008360a001511180156111fd575060008360c00151115b80156112095750600085115b151561121457600080fd5b8261012001514210151561127157826101400151600019166000600381111561123957fe5b60ff167f36d86c59e00bd73dc19ba3adfe068e4b64ac7e92be35546adeddf1b956a87e9060405160405180910390a3600093506114f0565b61128c8360c00151611287856101400151611601565b612341565b91506112988583612378565b905060008114156112f25782610140015160001916600160038111156112ba57fe5b60ff167f36d86c59e00bd73dc19ba3adfe068e4b64ac7e92be35546adeddf1b956a87e9060405160405180910390a3600093506114f0565b61131c6003600085610140015160001916600019168152602001908152602001600020548261235a565b60036000856101400151600019166000191681526020019081526020016000208190555082604001518360600151604051808373ffffffffffffffffffffffffffffffffffffffff1673ffffffffffffffffffffffffffffffffffffffff166c010000000000000000000000000281526014018273ffffffffffffffffffffffffffffffffffffffff1673ffffffffffffffffffffffffffffffffffffffff166c0100000000000000000000000002815260140192505050604051809103902060001916836080015173ffffffffffffffffffffffffffffffffffffffff16846000015173ffffffffffffffffffffffffffffffffffffffff167f67d66f160bc93d925d05dae1794c90d2d6d6688b29b84ff069398a9b0458713186604001518760600151611454878a60c001518b60a00151611751565b878a6101400151604051808673ffffffffffffffffffffffffffffffffffffffff1673ffffffffffffffffffffffffffffffffffffffff1681526020018573ffffffffffffffffffffffffffffffffffffffff1673ffffffffffffffffffffffffffffffffffffffff16815260200184815260200183815260200182600019166000191681526020019550505050505060405180910390a48093505b5050509392505050565b6000809054906101000a900473ffffffffffffffffffffffffffffffffffffffff1681565b60008090505b86518110156115d3576115c6878281518110151561153f57fe5b90602001906020020151878381518110151561155757fe5b90602001906020020151878481518110151561156f57fe5b90602001906020020151878581518110151561158757fe5b90602001906020020151878681518110151561159f57fe5b9060200190602002015187878151811015156115b757fe5b906020019060200201516115dc565b8080600101915050611525565b50505050505050565b836115ed87878760008888886118c8565b1415156115f957600080fd5b505050505050565b6000611643600260008460001916600019168152602001908152602001600020546003600085600019166000191681526020019081526020016000205461235a565b9050919050565b600060018560405180807f19457468657265756d205369676e6564204d6573736167653a0a333200000000815250601c0182600019166000191681526020019150506040518091039020858585604051600081526020016040526000604051602001526040518085600019166000191681526020018460ff1660ff16815260200183600019166000191681526020018260001916600019168152602001945050505050602060405160208103908084039060008661646e5a03f1151561170f57600080fd5b50506020604051035173ffffffffffffffffffffffffffffffffffffffff168673ffffffffffffffffffffffffffffffffffffffff1614905095945050505050565b600061176661176085846122f3565b84612326565b90509392505050565b600160009054906101000a900473ffffffffffffffffffffffffffffffffffffffff1681565b60008090505b875181101561184b5761183d88828151811015156117b557fe5b9060200190602002015188838151811015156117cd57fe5b9060200190602002015188848151811015156117e557fe5b906020019060200201518888868151811015156117fe57fe5b90602001906020020151888781518110151561181657fe5b90602001906020020151888881518110151561182e57fe5b906020019060200201516118c8565b50808060010191505061179b565b5050505050505050565b60008090505b83518110156118c2576118b4848281518110151561187557fe5b90602001906020020151848381518110151561188d57fe5b9060200190602002015184848151811015156118a557fe5b90602001906020020151611012565b50808060010191505061185b565b50505050565b60006118d2612a19565b600080600080610160604051908101604052808e60006005811015156118f457fe5b602002015173ffffffffffffffffffffffffffffffffffffffff1681526020018e600160058110151561192357fe5b602002015173ffffffffffffffffffffffffffffffffffffffff1681526020018e600260058110151561195257fe5b602002015173ffffffffffffffffffffffffffffffffffffffff1681526020018e600360058110151561198157fe5b602002015173ffffffffffffffffffffffffffffffffffffffff1681526020018e60046005811015156119b057fe5b602002015173ffffffffffffffffffffffffffffffffffffffff1681526020018d60006006811015156119df57fe5b602002015181526020018d60016006811015156119f857fe5b602002015181526020018d6002600681101515611a1157fe5b602002015181526020018d6003600681101515611a2a57fe5b602002015181526020018d6004600681101515611a4357fe5b60200201518152602001611a578f8f612009565b600019168152509450600073ffffffffffffffffffffffffffffffffffffffff16856020015173ffffffffffffffffffffffffffffffffffffffff161480611ace57503373ffffffffffffffffffffffffffffffffffffffff16856020015173ffffffffffffffffffffffffffffffffffffffff16145b1515611ad957600080fd5b60008560a00151118015611af1575060008560c00151115b8015611afd575060008b115b1515611b0857600080fd5b84610120015142101515611b65578461014001516000191660006003811115611b2d57fe5b60ff167f36d86c59e00bd73dc19ba3adfe068e4b64ac7e92be35546adeddf1b956a87e9060405160405180910390a360009550611ff9565b611b808560c00151611b7b876101400151611601565b612341565b9350611b8c8b85612378565b95506000861415611be6578461014001516000191660016003811115611bae57fe5b60ff167f36d86c59e00bd73dc19ba3adfe068e4b64ac7e92be35546adeddf1b956a87e9060405160405180910390a360009550611ff9565b611bf9868660c001518760a00151610e2e565b15611c4d578461014001516000191660026003811115611c1557fe5b60ff167f36d86c59e00bd73dc19ba3adfe068e4b64ac7e92be35546adeddf1b956a87e9060405160405180910390a360009550611ff9565b89158015611c625750611c608587612391565b155b15611cb55784610140015160001916600380811115611c7d57fe5b60ff167f36d86c59e00bd73dc19ba3adfe068e4b64ac7e92be35546adeddf1b956a87e9060405160405180910390a360009550611ff9565b611cc8868660c001518760a00151611751565b9250611cf46002600087610140015160001916600019168152602001908152602001600020548761235a565b600260008761014001516000191660001916815260200190815260200160002081905550600073ffffffffffffffffffffffffffffffffffffffff16856080015173ffffffffffffffffffffffffffffffffffffffff16141515611e175760008560e001511115611db557611d72868660c001518760e00151611751565b9150611da96000809054906101000a900473ffffffffffffffffffffffffffffffffffffffff1686600001518760800151856126e1565b1515611db457600080fd5b5b60008561010001511115611e1657611dd7868660c00151876101000151611751565b9050611e0a6000809054906101000a900473ffffffffffffffffffffffffffffffffffffffff16338760800151846126e1565b1515611e1557600080fd5b5b5b84604001518560600151604051808373ffffffffffffffffffffffffffffffffffffffff1673ffffffffffffffffffffffffffffffffffffffff166c010000000000000000000000000281526014018273ffffffffffffffffffffffffffffffffffffffff1673ffffffffffffffffffffffffffffffffffffffff166c0100000000000000000000000002815260140192505050604051809103902060001916856080015173ffffffffffffffffffffffffffffffffffffffff16866000015173ffffffffffffffffffffffffffffffffffffffff167f0d0b9391970d9a25552f37d436d2aae2925e2bfe1b2a923754bada030c498cb33389604001518a60600151898d8a8a8f6101400151604051808973ffffffffffffffffffffffffffffffffffffffff1673ffffffffffffffffffffffffffffffffffffffff1681526020018873ffffffffffffffffffffffffffffffffffffffff1673ffffffffffffffffffffffffffffffffffffffff1681526020018773ffffffffffffffffffffffffffffffffffffffff1673ffffffffffffffffffffffffffffffffffffffff16815260200186815260200185815260200184815260200183815260200182600019166000191681526020019850505050505050505060405180910390a48595505b5050505050979650505050505050565b60003083600060058110151561201b57fe5b602002015184600160058110151561202f57fe5b602002015185600260058110151561204357fe5b602002015186600360058110151561205757fe5b602002015187600460058110151561206b57fe5b602002015187600060068110151561207f57fe5b602002015188600160068110151561209357fe5b60200201518960026006811015156120a757fe5b60200201518a60036006811015156120bb57fe5b60200201518b60046006811015156120cf57fe5b60200201518c60056006811015156120e357fe5b6020020151604051808d73ffffffffffffffffffffffffffffffffffffffff1673ffffffffffffffffffffffffffffffffffffffff166c010000000000000000000000000281526014018c73ffffffffffffffffffffffffffffffffffffffff1673ffffffffffffffffffffffffffffffffffffffff166c010000000000000000000000000281526014018b73ffffffffffffffffffffffffffffffffffffffff1673ffffffffffffffffffffffffffffffffffffffff166c010000000000000000000000000281526014018a73ffffffffffffffffffffffffffffffffffffffff1673ffffffffffffffffffffffffffffffffffffffff166c010000000000000000000000000281526014018973ffffffffffffffffffffffffffffffffffffffff1673ffffffffffffffffffffffffffffffffffffffff166c010000000000000000000000000281526014018873ffffffffffffffffffffffffffffffffffffffff1673ffffffffffffffffffffffffffffffffffffffff166c010000000000000000000000000281526014018781526020018681526020018581526020018481526020018381526020018281526020019c505050505050505050505050506040518091039020905092915050565b61138781565b6040805190810160405280600581526020017f312e302e3000000000000000000000000000000000000000000000000000000081525081565b60008082840290506000841480612314575082848281151561231157fe5b04145b151561231c57fe5b8091505092915050565b600080828481151561233457fe5b0490508091505092915050565b600082821115151561234f57fe5b818303905092915050565b600080828401905083811015151561236e57fe5b8091505092915050565b60008183106123875781612389565b825b905092915050565b60008060008060008060008060003397506123b58a8c60c001518d60a00151611751565b9650600073ffffffffffffffffffffffffffffffffffffffff168b6080015173ffffffffffffffffffffffffffffffffffffffff16141515612662576000809054906101000a900473ffffffffffffffffffffffffffffffffffffffff1673ffffffffffffffffffffffffffffffffffffffff168b6040015173ffffffffffffffffffffffffffffffffffffffff161495506000809054906101000a900473ffffffffffffffffffffffffffffffffffffffff1673ffffffffffffffffffffffffffffffffffffffff168b6060015173ffffffffffffffffffffffffffffffffffffffff161494506124b08a8c60c001518d60e00151611751565b93506124c68a8c60c001518d6101000151611751565b9250856124d357836124de565b6124dd878561235a565b5b9150846124eb57826124f6565b6124f58a8461235a565b5b9050816125286000809054906101000a900473ffffffffffffffffffffffffffffffffffffffff168d6000015161283d565b108061256157508161255f6000809054906101000a900473ffffffffffffffffffffffffffffffffffffffff168d60000151612900565b105b806125955750806125936000809054906101000a900473ffffffffffffffffffffffffffffffffffffffff168a61283d565b105b806125c95750806125c76000809054906101000a900473ffffffffffffffffffffffffffffffffffffffff168a612900565b105b156125d757600098506126d3565b851580156126105750866125f38c604001518d6000015161283d565b108061260f57508661260d8c604001518d60000151612900565b105b5b1561261e57600098506126d3565b8415801561264f5750896126368c606001518a61283d565b108061264e57508961264c8c606001518a612900565b105b5b1561265d57600098506126d3565b6126ce565b866126758c604001518d6000015161283d565b108061269157508661268f8c604001518d60000151612900565b105b806126a85750896126a68c606001518a61283d565b105b806126bf5750896126bd8c606001518a612900565b105b156126cd57600098506126d3565b5b600198505b505050505050505092915050565b6000600160009054906101000a900473ffffffffffffffffffffffffffffffffffffffff1673ffffffffffffffffffffffffffffffffffffffff166315dacbea868686866000604051602001526040518563ffffffff167c0100000000000000000000000000000000000000000000000000000000028152600401808573ffffffffffffffffffffffffffffffffffffffff1673ffffffffffffffffffffffffffffffffffffffff1681526020018473ffffffffffffffffffffffffffffffffffffffff1673ffffffffffffffffffffffffffffffffffffffff1681526020018373ffffffffffffffffffffffffffffffffffffffff1673ffffffffffffffffffffffffffffffffffffffff168152602001828152602001945050505050602060405180830381600087803b151561281857600080fd5b6102c65a03f1151561282957600080fd5b505050604051805190509050949350505050565b60008273ffffffffffffffffffffffffffffffffffffffff166370a0823161138761ffff16846040518363ffffffff167c0100000000000000000000000000000000000000000000000000000000028152600401808273ffffffffffffffffffffffffffffffffffffffff1673ffffffffffffffffffffffffffffffffffffffff168152602001915050602060405180830381600088803b15156128e057600080fd5b87f115156128ed57600080fd5b5050505060405180519050905092915050565b60008273ffffffffffffffffffffffffffffffffffffffff1663dd62ed3e61138761ffff1684600160009054906101000a900473ffffffffffffffffffffffffffffffffffffffff166040518463ffffffff167c0100000000000000000000000000000000000000000000000000000000028152600401808373ffffffffffffffffffffffffffffffffffffffff1673ffffffffffffffffffffffffffffffffffffffff1681526020018273ffffffffffffffffffffffffffffffffffffffff1673ffffffffffffffffffffffffffffffffffffffff16815260200192505050602060405180830381600088803b15156129f957600080fd5b87f11515612a0657600080fd5b5050505060405180519050905092915050565b61016060405190810160405280600073ffffffffffffffffffffffffffffffffffffffff168152602001600073ffffffffffffffffffffffffffffffffffffffff168152602001600073ffffffffffffffffffffffffffffffffffffffff168152602001600073ffffffffffffffffffffffffffffffffffffffff168152602001600073ffffffffffffffffffffffffffffffffffffffff16815260200160008152602001600081526020016000815260200160008152602001600081526020016000801916815250905600a165627a7a723058208ce3db7ab1d31452b5d52d70eee993b82e4ff399daa3bbff4202fec6e6aa7bca0029",
  "source": "pragma solidity ^0.4.14;\r\n\r\nimport \"./SafeMath.sol\";\r\nimport \"./Token.sol\";\r\nimport \"./TokenTransferProxy.sol\";\r\n\r\n\r\n\r\n/// @title Exchange - Facilitates exchange of ERC20 tokens.\r\n/// @author Amir Bandeali - <amir@0xProject.com>, Will Warren - <will@0xProject.com>\r\ncontract Exchange is SafeMath {\r\n\r\n    // Error Codes\r\n    enum Errors {\r\n        ORDER_EXPIRED,                    // Order has already expired\r\n        ORDER_FULLY_FILLED_OR_CANCELLED,  // Order has already been fully filled or cancelled\r\n        ROUNDING_ERROR_TOO_LARGE,         // Rounding error too large\r\n        INSUFFICIENT_BALANCE_OR_ALLOWANCE // Insufficient balance or allowance for token transfer\r\n    }\r\n\r\n    string constant public VERSION = \"1.0.0\";\r\n    uint16 constant public EXTERNAL_QUERY_GAS_LIMIT = 4999;    // Changes to state require at least 5000 gas\r\n\r\n    address public ZRX_TOKEN_CONTRACT;\r\n    address public TOKEN_TRANSFER_PROXY_CONTRACT;\r\n\r\n    // Mappings of orderHash => amounts of takerTokenAmount filled or cancelled.\r\n    mapping (bytes32 => uint) public filled;\r\n    mapping (bytes32 => uint) public cancelled;\r\n\r\n    event LogFill(\r\n        address indexed maker,\r\n        address taker,\r\n        address indexed feeRecipient,\r\n        address makerToken,\r\n        address takerToken,\r\n        uint filledMakerTokenAmount,\r\n        uint filledTakerTokenAmount,\r\n        uint paidMakerFee,\r\n        uint paidTakerFee,\r\n        bytes32 indexed tokens, // keccak256(makerToken, takerToken), allows subscribing to a token pair\r\n        bytes32 orderHash\r\n    );\r\n\r\n    event LogCancel(\r\n        address indexed maker,\r\n        address indexed feeRecipient,\r\n        address makerToken,\r\n        address takerToken,\r\n        uint cancelledMakerTokenAmount,\r\n        uint cancelledTakerTokenAmount,\r\n        bytes32 indexed tokens,\r\n        bytes32 orderHash\r\n    );\r\n\r\n    event LogError(uint8 indexed errorId, bytes32 indexed orderHash);\r\n\r\n    struct Order {\r\n        address maker;\r\n        address taker;\r\n        address makerToken;\r\n        address takerToken;\r\n        address feeRecipient;\r\n        uint makerTokenAmount;\r\n        uint takerTokenAmount;\r\n        uint makerFee;\r\n        uint takerFee;\r\n        uint expirationTimestampInSec;\r\n        bytes32 orderHash;\r\n    }\r\n\r\n    function Exchange(address _zrxToken, address _tokenTransferProxy) public {\r\n        ZRX_TOKEN_CONTRACT = _zrxToken;\r\n        TOKEN_TRANSFER_PROXY_CONTRACT = _tokenTransferProxy;\r\n    }\r\n\r\n    /*\r\n    * Core exchange functions\r\n    */\r\n\r\n    /// @dev Fills the input order.\r\n    /// @param orderAddresses Array of order's maker, taker, makerToken, takerToken, and feeRecipient.\r\n    /// @param orderValues Array of order's makerTokenAmount, takerTokenAmount, makerFee, takerFee, expirationTimestampInSec, and salt.\r\n    /// @param fillTakerTokenAmount Desired amount of takerToken to fill.\r\n    /// @param shouldThrowOnInsufficientBalanceOrAllowance Test if transfer will fail before attempting.\r\n    /// @param v ECDSA signature parameter v.\r\n    /// @param r ECDSA signature parameters r.\r\n    /// @param s ECDSA signature parameters s.\r\n    /// @return Total amount of takerToken filled in trade.\r\n    function fillOrder(\r\n          address[5] orderAddresses,\r\n          uint[6] orderValues,\r\n          uint fillTakerTokenAmount,\r\n          bool shouldThrowOnInsufficientBalanceOrAllowance,\r\n          uint8 v,\r\n          bytes32 r,\r\n          bytes32 s)\r\n          public\r\n          returns (uint filledTakerTokenAmount)\r\n    {\r\n        Order memory order = Order({\r\n            maker: orderAddresses[0],\r\n            taker: orderAddresses[1],\r\n            makerToken: orderAddresses[2],\r\n            takerToken: orderAddresses[3],\r\n            feeRecipient: orderAddresses[4],\r\n            makerTokenAmount: orderValues[0],\r\n            takerTokenAmount: orderValues[1],\r\n            makerFee: orderValues[2],\r\n            takerFee: orderValues[3],\r\n            expirationTimestampInSec: orderValues[4],\r\n            orderHash: getOrderHash(orderAddresses, orderValues)\r\n        });\r\n\r\n        require(order.taker == address(0) || order.taker == msg.sender);\r\n        require(order.makerTokenAmount > 0 && order.takerTokenAmount > 0 && fillTakerTokenAmount > 0);\r\n        /*require(isValidSignature(\r\n            order.maker,\r\n            order.orderHash,\r\n            v,\r\n            r,\r\n            s\r\n        ));*/\r\n\r\n        if (block.timestamp >= order.expirationTimestampInSec) {\r\n            LogError(uint8(Errors.ORDER_EXPIRED), order.orderHash);\r\n            return 0;\r\n        }\r\n\r\n        uint remainingTakerTokenAmount = safeSub(order.takerTokenAmount, getUnavailableTakerTokenAmount(order.orderHash));\r\n        filledTakerTokenAmount = min256(fillTakerTokenAmount, remainingTakerTokenAmount);\r\n        if (filledTakerTokenAmount == 0) {\r\n            LogError(uint8(Errors.ORDER_FULLY_FILLED_OR_CANCELLED), order.orderHash);\r\n            return 0;\r\n        }\r\n\r\n        if (isRoundingError(filledTakerTokenAmount, order.takerTokenAmount, order.makerTokenAmount)) {\r\n            LogError(uint8(Errors.ROUNDING_ERROR_TOO_LARGE), order.orderHash);\r\n            return 0;\r\n        }\r\n\r\n        if (!shouldThrowOnInsufficientBalanceOrAllowance && !isTransferable(order, filledTakerTokenAmount)) {\r\n            LogError(uint8(Errors.INSUFFICIENT_BALANCE_OR_ALLOWANCE), order.orderHash);\r\n            return 0;\r\n        }\r\n\r\n        uint filledMakerTokenAmount = getPartialAmount(filledTakerTokenAmount, order.takerTokenAmount, order.makerTokenAmount);\r\n        uint paidMakerFee;\r\n        uint paidTakerFee;\r\n        filled[order.orderHash] = safeAdd(filled[order.orderHash], filledTakerTokenAmount);\r\n        /*require(transferViaTokenTransferProxy(\r\n            order.makerToken,\r\n            order.maker,\r\n            msg.sender,\r\n            filledMakerTokenAmount\r\n        ));\r\n        require(transferViaTokenTransferProxy(\r\n            order.takerToken,\r\n            msg.sender,\r\n            order.maker,\r\n            filledTakerTokenAmount\r\n        ));*/\r\n        if (order.feeRecipient != address(0)) {\r\n            if (order.makerFee > 0) {\r\n                paidMakerFee = getPartialAmount(filledTakerTokenAmount, order.takerTokenAmount, order.makerFee);\r\n                require(transferViaTokenTransferProxy(\r\n                    ZRX_TOKEN_CONTRACT,\r\n                    order.maker,\r\n                    order.feeRecipient,\r\n                    paidMakerFee\r\n                ));\r\n            }\r\n            if (order.takerFee > 0) {\r\n                paidTakerFee = getPartialAmount(filledTakerTokenAmount, order.takerTokenAmount, order.takerFee);\r\n                require(transferViaTokenTransferProxy(\r\n                    ZRX_TOKEN_CONTRACT,\r\n                    msg.sender,\r\n                    order.feeRecipient,\r\n                    paidTakerFee\r\n                ));\r\n            }\r\n        }\r\n\r\n        LogFill(\r\n            order.maker,\r\n            msg.sender,\r\n            order.feeRecipient,\r\n            order.makerToken,\r\n            order.takerToken,\r\n            filledMakerTokenAmount,\r\n            filledTakerTokenAmount,\r\n            paidMakerFee,\r\n            paidTakerFee,\r\n            keccak256(order.makerToken, order.takerToken),\r\n            order.orderHash\r\n        );\r\n        return filledTakerTokenAmount;\r\n    }\r\n\r\n    /// @dev Cancels the input order.\r\n    /// @param orderAddresses Array of order's maker, taker, makerToken, takerToken, and feeRecipient.\r\n    /// @param orderValues Array of order's makerTokenAmount, takerTokenAmount, makerFee, takerFee, expirationTimestampInSec, and salt.\r\n    /// @param cancelTakerTokenAmount Desired amount of takerToken to cancel in order.\r\n    /// @return Amount of takerToken cancelled.\r\n    function cancelOrder(\r\n        address[5] orderAddresses,\r\n        uint[6] orderValues,\r\n        uint cancelTakerTokenAmount)\r\n        public\r\n        returns (uint)\r\n    {\r\n        Order memory order = Order({\r\n            maker: orderAddresses[0],\r\n            taker: orderAddresses[1],\r\n            makerToken: orderAddresses[2],\r\n            takerToken: orderAddresses[3],\r\n            feeRecipient: orderAddresses[4],\r\n            makerTokenAmount: orderValues[0],\r\n            takerTokenAmount: orderValues[1],\r\n            makerFee: orderValues[2],\r\n            takerFee: orderValues[3],\r\n            expirationTimestampInSec: orderValues[4],\r\n            orderHash: getOrderHash(orderAddresses, orderValues)\r\n        });\r\n\r\n        require(order.maker == msg.sender);\r\n        require(order.makerTokenAmount > 0 && order.takerTokenAmount > 0 && cancelTakerTokenAmount > 0);\r\n\r\n        if (block.timestamp >= order.expirationTimestampInSec) {\r\n            LogError(uint8(Errors.ORDER_EXPIRED), order.orderHash);\r\n            return 0;\r\n        }\r\n\r\n        uint remainingTakerTokenAmount = safeSub(order.takerTokenAmount, getUnavailableTakerTokenAmount(order.orderHash));\r\n        uint cancelledTakerTokenAmount = min256(cancelTakerTokenAmount, remainingTakerTokenAmount);\r\n        if (cancelledTakerTokenAmount == 0) {\r\n            LogError(uint8(Errors.ORDER_FULLY_FILLED_OR_CANCELLED), order.orderHash);\r\n            return 0;\r\n        }\r\n\r\n        cancelled[order.orderHash] = safeAdd(cancelled[order.orderHash], cancelledTakerTokenAmount);\r\n\r\n        LogCancel(\r\n            order.maker,\r\n            order.feeRecipient,\r\n            order.makerToken,\r\n            order.takerToken,\r\n            getPartialAmount(cancelledTakerTokenAmount, order.takerTokenAmount, order.makerTokenAmount),\r\n            cancelledTakerTokenAmount,\r\n            keccak256(order.makerToken, order.takerToken),\r\n            order.orderHash\r\n        );\r\n        return cancelledTakerTokenAmount;\r\n    }\r\n\r\n    /*\r\n    * Wrapper functions\r\n    */\r\n\r\n    /// @dev Fills an order with specified parameters and ECDSA signature, throws if specified amount not filled entirely.\r\n    /// @param orderAddresses Array of order's maker, taker, makerToken, takerToken, and feeRecipient.\r\n    /// @param orderValues Array of order's makerTokenAmount, takerTokenAmount, makerFee, takerFee, expirationTimestampInSec, and salt.\r\n    /// @param fillTakerTokenAmount Desired amount of takerToken to fill.\r\n    /// @param v ECDSA signature parameter v.\r\n    /// @param r ECDSA signature parameters r.\r\n    /// @param s ECDSA signature parameters s.\r\n    function fillOrKillOrder(\r\n        address[5] orderAddresses,\r\n        uint[6] orderValues,\r\n        uint fillTakerTokenAmount,\r\n        uint8 v,\r\n        bytes32 r,\r\n        bytes32 s)\r\n        public\r\n    {\r\n        require(fillOrder(\r\n            orderAddresses,\r\n            orderValues,\r\n            fillTakerTokenAmount,\r\n            false,\r\n            v,\r\n            r,\r\n            s\r\n        ) == fillTakerTokenAmount);\r\n    }\r\n\r\n    /// @dev Synchronously executes multiple fill orders in a single transaction.\r\n    /// @param orderAddresses Array of address arrays containing individual order addresses.\r\n    /// @param orderValues Array of uint arrays containing individual order values.\r\n    /// @param fillTakerTokenAmounts Array of desired amounts of takerToken to fill in orders.\r\n    /// @param shouldThrowOnInsufficientBalanceOrAllowance Test if transfers will fail before attempting.\r\n    /// @param v Array ECDSA signature v parameters.\r\n    /// @param r Array of ECDSA signature r parameters.\r\n    /// @param s Array of ECDSA signature s parameters.\r\n    function batchFillOrders(\r\n        address[5][] orderAddresses,\r\n        uint[6][] orderValues,\r\n        uint[] fillTakerTokenAmounts,\r\n        bool shouldThrowOnInsufficientBalanceOrAllowance,\r\n        uint8[] v,\r\n        bytes32[] r,\r\n        bytes32[] s)\r\n        public\r\n    {\r\n        for (uint i = 0; i < orderAddresses.length; i++) {\r\n            fillOrder(\r\n                orderAddresses[i],\r\n                orderValues[i],\r\n                fillTakerTokenAmounts[i],\r\n                shouldThrowOnInsufficientBalanceOrAllowance,\r\n                v[i],\r\n                r[i],\r\n                s[i]\r\n            );\r\n        }\r\n    }\r\n\r\n    /// @dev Synchronously executes multiple fillOrKill orders in a single transaction.\r\n    /// @param orderAddresses Array of address arrays containing individual order addresses.\r\n    /// @param orderValues Array of uint arrays containing individual order values.\r\n    /// @param fillTakerTokenAmounts Array of desired amounts of takerToken to fill in orders.\r\n    /// @param v Array ECDSA signature v parameters.\r\n    /// @param r Array of ECDSA signature r parameters.\r\n    /// @param s Array of ECDSA signature s parameters.\r\n    function batchFillOrKillOrders(\r\n        address[5][] orderAddresses,\r\n        uint[6][] orderValues,\r\n        uint[] fillTakerTokenAmounts,\r\n        uint8[] v,\r\n        bytes32[] r,\r\n        bytes32[] s)\r\n        public\r\n    {\r\n        for (uint i = 0; i < orderAddresses.length; i++) {\r\n            fillOrKillOrder(\r\n                orderAddresses[i],\r\n                orderValues[i],\r\n                fillTakerTokenAmounts[i],\r\n                v[i],\r\n                r[i],\r\n                s[i]\r\n            );\r\n        }\r\n    }\r\n\r\n    /// @dev Synchronously executes multiple fill orders in a single transaction until total fillTakerTokenAmount filled.\r\n    /// @param orderAddresses Array of address arrays containing individual order addresses.\r\n    /// @param orderValues Array of uint arrays containing individual order values.\r\n    /// @param fillTakerTokenAmount Desired total amount of takerToken to fill in orders.\r\n    /// @param shouldThrowOnInsufficientBalanceOrAllowance Test if transfers will fail before attempting.\r\n    /// @param v Array ECDSA signature v parameters.\r\n    /// @param r Array of ECDSA signature r parameters.\r\n    /// @param s Array of ECDSA signature s parameters.\r\n    /// @return Total amount of fillTakerTokenAmount filled in orders.\r\n    function fillOrdersUpTo(\r\n        address[5][] orderAddresses,\r\n        uint[6][] orderValues,\r\n        uint fillTakerTokenAmount,\r\n        bool shouldThrowOnInsufficientBalanceOrAllowance,\r\n        uint8[] v,\r\n        bytes32[] r,\r\n        bytes32[] s)\r\n        public\r\n        returns (uint)\r\n    {\r\n        uint filledTakerTokenAmount = 0;\r\n        for (uint i = 0; i < orderAddresses.length; i++) {\r\n            require(orderAddresses[i][3] == orderAddresses[0][3]); // takerToken must be the same for each order\r\n            filledTakerTokenAmount = safeAdd(filledTakerTokenAmount, fillOrder(\r\n                orderAddresses[i],\r\n                orderValues[i],\r\n                safeSub(fillTakerTokenAmount, filledTakerTokenAmount),\r\n                shouldThrowOnInsufficientBalanceOrAllowance,\r\n                v[i],\r\n                r[i],\r\n                s[i]\r\n            ));\r\n            if (filledTakerTokenAmount == fillTakerTokenAmount) break;\r\n        }\r\n        return filledTakerTokenAmount;\r\n    }\r\n\r\n    /// @dev Synchronously cancels multiple orders in a single transaction.\r\n    /// @param orderAddresses Array of address arrays containing individual order addresses.\r\n    /// @param orderValues Array of uint arrays containing individual order values.\r\n    /// @param cancelTakerTokenAmounts Array of desired amounts of takerToken to cancel in orders.\r\n    function batchCancelOrders(\r\n        address[5][] orderAddresses,\r\n        uint[6][] orderValues,\r\n        uint[] cancelTakerTokenAmounts)\r\n        public\r\n    {\r\n        for (uint i = 0; i < orderAddresses.length; i++) {\r\n            cancelOrder(\r\n                orderAddresses[i],\r\n                orderValues[i],\r\n                cancelTakerTokenAmounts[i]\r\n            );\r\n        }\r\n    }\r\n\r\n    /*\r\n    * Constant public functions\r\n    */\r\n\r\n    /// @dev Calculates Keccak-256 hash of order with specified parameters.\r\n    /// @param orderAddresses Array of order's maker, taker, makerToken, takerToken, and feeRecipient.\r\n    /// @param orderValues Array of order's makerTokenAmount, takerTokenAmount, makerFee, takerFee, expirationTimestampInSec, and salt.\r\n    /// @return Keccak-256 hash of order.\r\n    function getOrderHash(address[5] orderAddresses, uint[6] orderValues)\r\n        public\r\n        constant\r\n        returns (bytes32)\r\n    {\r\n        return keccak256(\r\n            address(this),\r\n            orderAddresses[0], // maker\r\n            orderAddresses[1], // taker\r\n            orderAddresses[2], // makerToken\r\n            orderAddresses[3], // takerToken\r\n            orderAddresses[4], // feeRecipient\r\n            orderValues[0],    // makerTokenAmount\r\n            orderValues[1],    // takerTokenAmount\r\n            orderValues[2],    // makerFee\r\n            orderValues[3],    // takerFee\r\n            orderValues[4],    // expirationTimestampInSec\r\n            orderValues[5]     // salt\r\n        );\r\n    }\r\n\r\n    /// @dev Verifies that an order signature is valid.\r\n    /// @param signer address of signer.\r\n    /// @param hash Signed Keccak-256 hash.\r\n    /// @param v ECDSA signature parameter v.\r\n    /// @param r ECDSA signature parameters r.\r\n    /// @param s ECDSA signature parameters s.\r\n    /// @return Validity of order signature.\r\n    function isValidSignature(\r\n        address signer,\r\n        bytes32 hash,\r\n        uint8 v,\r\n        bytes32 r,\r\n        bytes32 s)\r\n        public\r\n        constant\r\n        returns (bool)\r\n    {\r\n        return signer == ecrecover(\r\n            keccak256(\"\\x19Ethereum Signed Message:\\n32\", hash),\r\n            v,\r\n            r,\r\n            s\r\n        );\r\n    }\r\n\r\n    /// @dev Checks if rounding error > 0.1%.\r\n    /// @param numerator Numerator.\r\n    /// @param denominator Denominator.\r\n    /// @param target Value to multiply with numerator/denominator.\r\n    /// @return Rounding error is present.\r\n    function isRoundingError(uint numerator, uint denominator, uint target)\r\n        public\r\n        constant\r\n        returns (bool)\r\n    {\r\n        uint remainder = mulmod(target, numerator, denominator);\r\n        if (remainder == 0) return false; // No rounding error.\r\n\r\n        uint errPercentageTimes1000000 = safeDiv(\r\n            safeMul(remainder, 1000000),\r\n            safeMul(numerator, target)\r\n        );\r\n        return errPercentageTimes1000000 > 1000;\r\n    }\r\n\r\n    /// @dev Calculates partial value given a numerator and denominator.\r\n    /// @param numerator Numerator.\r\n    /// @param denominator Denominator.\r\n    /// @param target Value to calculate partial of.\r\n    /// @return Partial value of target.\r\n    function getPartialAmount(uint numerator, uint denominator, uint target)\r\n        public\r\n        constant\r\n        returns (uint)\r\n    {\r\n        return safeDiv(safeMul(numerator, target), denominator);\r\n    }\r\n\r\n    /// @dev Calculates the sum of values already filled and cancelled for a given order.\r\n    /// @param orderHash The Keccak-256 hash of the given order.\r\n    /// @return Sum of values already filled and cancelled.\r\n    function getUnavailableTakerTokenAmount(bytes32 orderHash)\r\n        public\r\n        constant\r\n        returns (uint)\r\n    {\r\n        return safeAdd(filled[orderHash], cancelled[orderHash]);\r\n    }\r\n\r\n\r\n    /*\r\n    * Internal functions\r\n    */\r\n\r\n    /// @dev Transfers a token using TokenTransferProxy transferFrom function.\r\n    /// @param token Address of token to transferFrom.\r\n    /// @param from Address transfering token.\r\n    /// @param to Address receiving token.\r\n    /// @param value Amount of token to transfer.\r\n    /// @return Success of token transfer.\r\n    function transferViaTokenTransferProxy(\r\n        address token,\r\n        address from,\r\n        address to,\r\n        uint value)\r\n        internal\r\n        returns (bool)\r\n    {\r\n        return TokenTransferProxy(TOKEN_TRANSFER_PROXY_CONTRACT).transferFrom(token, from, to, value);\r\n    }\r\n\r\n    /// @dev Checks if any order transfers will fail.\r\n    /// @param order Order struct of params that will be checked.\r\n    /// @param fillTakerTokenAmount Desired amount of takerToken to fill.\r\n    /// @return Predicted result of transfers.\r\n    function isTransferable(Order order, uint fillTakerTokenAmount)\r\n        internal\r\n        constant  // The called token contracts may attempt to change state, but will not be able to due to gas limits on getBalance and getAllowance.\r\n        returns (bool)\r\n    {\r\n        address taker = msg.sender;\r\n        uint fillMakerTokenAmount = getPartialAmount(fillTakerTokenAmount, order.takerTokenAmount, order.makerTokenAmount);\r\n\r\n        if (order.feeRecipient != address(0)) {\r\n            bool isMakerTokenZRX = order.makerToken == ZRX_TOKEN_CONTRACT;\r\n            bool isTakerTokenZRX = order.takerToken == ZRX_TOKEN_CONTRACT;\r\n            uint paidMakerFee = getPartialAmount(fillTakerTokenAmount, order.takerTokenAmount, order.makerFee);\r\n            uint paidTakerFee = getPartialAmount(fillTakerTokenAmount, order.takerTokenAmount, order.takerFee);\r\n            uint requiredMakerZRX = isMakerTokenZRX ? safeAdd(fillMakerTokenAmount, paidMakerFee) : paidMakerFee;\r\n            uint requiredTakerZRX = isTakerTokenZRX ? safeAdd(fillTakerTokenAmount, paidTakerFee) : paidTakerFee;\r\n\r\n            if (   getBalance(ZRX_TOKEN_CONTRACT, order.maker) < requiredMakerZRX\r\n                || getAllowance(ZRX_TOKEN_CONTRACT, order.maker) < requiredMakerZRX\r\n                || getBalance(ZRX_TOKEN_CONTRACT, taker) < requiredTakerZRX\r\n                || getAllowance(ZRX_TOKEN_CONTRACT, taker) < requiredTakerZRX\r\n            ) return false;\r\n\r\n            if (!isMakerTokenZRX && (   getBalance(order.makerToken, order.maker) < fillMakerTokenAmount // Don't double check makerToken if ZRX\r\n                                     || getAllowance(order.makerToken, order.maker) < fillMakerTokenAmount)\r\n            ) return false;\r\n            if (!isTakerTokenZRX && (   getBalance(order.takerToken, taker) < fillTakerTokenAmount // Don't double check takerToken if ZRX\r\n                                     || getAllowance(order.takerToken, taker) < fillTakerTokenAmount)\r\n            ) return false;\r\n        } else if (   getBalance(order.makerToken, order.maker) < fillMakerTokenAmount\r\n                   || getAllowance(order.makerToken, order.maker) < fillMakerTokenAmount\r\n                   || getBalance(order.takerToken, taker) < fillTakerTokenAmount\r\n                   || getAllowance(order.takerToken, taker) < fillTakerTokenAmount\r\n        ) return false;\r\n\r\n        return true;\r\n    }\r\n\r\n    /// @dev Get token balance of an address.\r\n    /// @param token Address of token.\r\n    /// @param owner Address of owner.\r\n    /// @return Token balance of owner.\r\n    function getBalance(address token, address owner)\r\n        internal\r\n        constant  // The called token contract may attempt to change state, but will not be able to due to an added gas limit.\r\n        returns (uint)\r\n    {\r\n        return Token(token).balanceOf.gas(EXTERNAL_QUERY_GAS_LIMIT)(owner); // Limit gas to prevent reentrancy\r\n    }\r\n\r\n    /// @dev Get allowance of token given to TokenTransferProxy by an address.\r\n    /// @param token Address of token.\r\n    /// @param owner Address of owner.\r\n    /// @return Allowance of token given to TokenTransferProxy by owner.\r\n    function getAllowance(address token, address owner)\r\n        internal\r\n        constant  // The called token contract may attempt to change state, but will not be able to due to an added gas limit.\r\n        returns (uint)\r\n    {\r\n        return Token(token).allowance.gas(EXTERNAL_QUERY_GAS_LIMIT)(owner, TOKEN_TRANSFER_PROXY_CONTRACT); // Limit gas to prevent reentrancy\r\n    }\r\n}",
  "sourcePath": "C:\\company\\0x\\roc\\contracts\\Exchange.sol",
  "compiler": {
    "name": "solc",
    "version": "0.4.18+commit.9cf6e910.Emscripten.clang"
  },
  "schemaVersion": "1.0.1",
  "updatedAt": "2018-02-18T06:28:28.897Z"
}