{
  "contractName": "OnChain_Relayer",
  "abi": [
    {
      "constant": false,
      "inputs": [
        {
          "name": "_newOwner",
          "type": "address"
        }
      ],
      "name": "setOwner",
      "outputs": [],
      "payable": false,
      "stateMutability": "nonpayable",
      "type": "function"
    },
    {
      "constant": false,
      "inputs": [
        {
          "name": "_tokenAddress",
          "type": "address"
        }
      ],
      "name": "setToken",
      "outputs": [],
      "payable": false,
      "stateMutability": "nonpayable",
      "type": "function"
    },
    {
      "constant": false,
      "inputs": [
        {
          "name": "_0x",
          "type": "address"
        }
      ],
      "name": "set0x_address",
      "outputs": [],
      "payable": false,
      "stateMutability": "nonpayable",
      "type": "function"
    },
    {
      "constant": true,
      "inputs": [
        {
          "name": "_hash",
          "type": "bytes32"
        }
      ],
      "name": "getInfo",
      "outputs": [
        {
          "name": "_amount",
          "type": "int256"
        },
        {
          "name": "_price",
          "type": "uint256"
        },
        {
          "name": "_maker",
          "type": "address"
        }
      ],
      "payable": false,
      "stateMutability": "view",
      "type": "function"
    },
    {
      "constant": false,
      "inputs": [
        {
          "name": "_orderHash",
          "type": "bytes32"
        },
        {
          "name": "_TokenAmount",
          "type": "uint256"
        }
      ],
      "name": "takeOrder",
      "outputs": [
        {
          "name": "_success",
          "type": "bool"
        }
      ],
      "payable": false,
      "stateMutability": "nonpayable",
      "type": "function"
    },
    {
      "constant": true,
      "inputs": [],
      "name": "token_address",
      "outputs": [
        {
          "name": "",
          "type": "address"
        }
      ],
      "payable": false,
      "stateMutability": "view",
      "type": "function"
    },
    {
      "constant": true,
      "inputs": [],
      "name": "owner",
      "outputs": [
        {
          "name": "",
          "type": "address"
        }
      ],
      "payable": false,
      "stateMutability": "view",
      "type": "function"
    },
    {
      "constant": true,
      "inputs": [
        {
          "name": "",
          "type": "uint256"
        }
      ],
      "name": "orders",
      "outputs": [
        {
          "name": "",
          "type": "bytes32"
        }
      ],
      "payable": false,
      "stateMutability": "view",
      "type": "function"
    },
    {
      "constant": false,
      "inputs": [
        {
          "name": "_tokenAddress",
          "type": "address"
        }
      ],
      "name": "setWrappedEther",
      "outputs": [],
      "payable": false,
      "stateMutability": "nonpayable",
      "type": "function"
    },
    {
      "constant": false,
      "inputs": [
        {
          "name": "_amount",
          "type": "int256"
        },
        {
          "name": "_price",
          "type": "uint256"
        },
        {
          "name": "hash",
          "type": "bytes32"
        },
        {
          "name": "_salt",
          "type": "uint256"
        },
        {
          "name": "_v",
          "type": "uint8"
        },
        {
          "name": "_r",
          "type": "bytes32"
        },
        {
          "name": "_s",
          "type": "bytes32"
        }
      ],
      "name": "placeLimit",
      "outputs": [],
      "payable": false,
      "stateMutability": "nonpayable",
      "type": "function"
    },
    {
      "constant": false,
      "inputs": [
        {
          "name": "_orderHash",
          "type": "bytes32"
        }
      ],
      "name": "cancelLimit",
      "outputs": [
        {
          "name": "success",
          "type": "bool"
        }
      ],
      "payable": false,
      "stateMutability": "nonpayable",
      "type": "function"
    },
    {
      "constant": true,
      "inputs": [],
      "name": "zeroX_address",
      "outputs": [
        {
          "name": "",
          "type": "address"
        }
      ],
      "payable": false,
      "stateMutability": "view",
      "type": "function"
    },
    {
      "constant": true,
      "inputs": [],
      "name": "wrapped_ether_address",
      "outputs": [
        {
          "name": "",
          "type": "address"
        }
      ],
      "payable": false,
      "stateMutability": "view",
      "type": "function"
    },
    {
      "inputs": [],
      "payable": false,
      "stateMutability": "nonpayable",
      "type": "constructor"
    },
    {
      "anonymous": false,
      "inputs": [
        {
          "indexed": false,
          "name": "_hash",
          "type": "bytes32"
        },
        {
          "indexed": false,
          "name": "_amount",
          "type": "int256"
        },
        {
          "indexed": false,
          "name": "_price",
          "type": "uint256"
        }
      ],
      "name": "NewOrder",
      "type": "event"
    },
    {
      "anonymous": false,
      "inputs": [
        {
          "indexed": false,
          "name": "_hash",
          "type": "bytes32"
        },
        {
          "indexed": false,
          "name": "_amount",
          "type": "uint256"
        },
        {
          "indexed": false,
          "name": "_price",
          "type": "uint256"
        }
      ],
      "name": "FilledOrder",
      "type": "event"
    },
    {
      "anonymous": false,
      "inputs": [
        {
          "indexed": false,
          "name": "_hash",
          "type": "bytes32"
        },
        {
          "indexed": false,
          "name": "_amount",
          "type": "int256"
        },
        {
          "indexed": false,
          "name": "_price",
          "type": "uint256"
        }
      ],
      "name": "CancelledOrder",
      "type": "event"
    },
    {
      "anonymous": false,
      "inputs": [
        {
          "indexed": false,
          "name": "_blah",
          "type": "string"
        },
        {
          "indexed": false,
          "name": "_val",
          "type": "uint256"
        }
      ],
      "name": "Print",
      "type": "event"
    },
    {
      "anonymous": false,
      "inputs": [
        {
          "indexed": false,
          "name": "_b",
          "type": "string"
        },
        {
          "indexed": false,
          "name": "_val",
          "type": "int256"
        }
      ],
      "name": "Print2",
      "type": "event"
    }
  ],
  "bytecode": "0x606060405234156200001057600080fd5b33600360006101000a81548173ffffffffffffffffffffffffffffffffffffffff021916908373ffffffffffffffffffffffffffffffffffffffff160217905550600280548060010182816200006791906200008b565b916000526020600020900160008060010290919091509060001916905550620000e2565b815481835581811511620000b557818360005260206000209182019101620000b49190620000ba565b5b505050565b620000df91905b80821115620000db576000816000905550600101620000c1565b5090565b90565b61203880620000f26000396000f3006060604052600436106100c5576000357c0100000000000000000000000000000000000000000000000000000000900463ffffffff16806313af4035146100ca578063144fa6d714610103578063535517371461013c5780637a02dc06146101755780638a89d64f146101ea5780638c8e8fee146102325780638da5cb5b14610287578063a85c38ef146102dc578063b6be785b1461031b578063b70b9c2614610354578063ceca125d146103bc578063d6153da7146103fb578063e722ccb614610450575b600080fd5b34156100d557600080fd5b610101600480803573ffffffffffffffffffffffffffffffffffffffff169060200190919050506104a5565b005b341561010e57600080fd5b61013a600480803573ffffffffffffffffffffffffffffffffffffffff16906020019091905050610545565b005b341561014757600080fd5b610173600480803573ffffffffffffffffffffffffffffffffffffffff16906020019091905050610648565b005b341561018057600080fd5b61019a600480803560001916906020019091905050610729565b604051808481526020018381526020018273ffffffffffffffffffffffffffffffffffffffff1673ffffffffffffffffffffffffffffffffffffffff168152602001935050505060405180910390f35b34156101f557600080fd5b6102186004808035600019169060200190919080359060200190919050506107b5565b604051808215151515815260200191505060405180910390f35b341561023d57600080fd5b6102456110cc565b604051808273ffffffffffffffffffffffffffffffffffffffff1673ffffffffffffffffffffffffffffffffffffffff16815260200191505060405180910390f35b341561029257600080fd5b61029a6110f2565b604051808273ffffffffffffffffffffffffffffffffffffffff1673ffffffffffffffffffffffffffffffffffffffff16815260200191505060405180910390f35b34156102e757600080fd5b6102fd6004808035906020019091905050611118565b60405180826000191660001916815260200191505060405180910390f35b341561032657600080fd5b610352600480803573ffffffffffffffffffffffffffffffffffffffff1690602001909190505061113c565b005b341561035f57600080fd5b6103ba60048080359060200190919080359060200190919080356000191690602001909190803590602001909190803560ff16906020019091908035600019169060200190919080356000191690602001909190505061123f565b005b34156103c757600080fd5b6103e16004808035600019169060200190919050506116da565b604051808215151515815260200191505060405180910390f35b341561040657600080fd5b61040e611cd0565b604051808273ffffffffffffffffffffffffffffffffffffffff1673ffffffffffffffffffffffffffffffffffffffff16815260200191505060405180910390f35b341561045b57600080fd5b610463611cf6565b604051808273ffffffffffffffffffffffffffffffffffffffff1673ffffffffffffffffffffffffffffffffffffffff16815260200191505060405180910390f35b600360009054906101000a900473ffffffffffffffffffffffffffffffffffffffff1673ffffffffffffffffffffffffffffffffffffffff163373ffffffffffffffffffffffffffffffffffffffff1614151561050157600080fd5b80600360006101000a81548173ffffffffffffffffffffffffffffffffffffffff021916908373ffffffffffffffffffffffffffffffffffffffff16021790555050565b600360009054906101000a900473ffffffffffffffffffffffffffffffffffffffff1673ffffffffffffffffffffffffffffffffffffffff163373ffffffffffffffffffffffffffffffffffffffff161415156105a157600080fd5b80600560006101000a81548173ffffffffffffffffffffffffffffffffffffffff021916908373ffffffffffffffffffffffffffffffffffffffff160217905550600560009054906101000a900473ffffffffffffffffffffffffffffffffffffffff16600860006101000a81548173ffffffffffffffffffffffffffffffffffffffff021916908373ffffffffffffffffffffffffffffffffffffffff16021790555050565b600360009054906101000a900473ffffffffffffffffffffffffffffffffffffffff1673ffffffffffffffffffffffffffffffffffffffff163373ffffffffffffffffffffffffffffffffffffffff161415156106a457600080fd5b80600460006101000a81548173ffffffffffffffffffffffffffffffffffffffff021916908373ffffffffffffffffffffffffffffffffffffffff16021790555080600760006101000a81548173ffffffffffffffffffffffffffffffffffffffff021916908373ffffffffffffffffffffffffffffffffffffffff16021790555050565b6000806000806000856000191660001916815260200190815260200160002060000154600080866000191660001916815260200190815260200160002060010154600080876000191660001916815260200190815260200160002060020160009054906101000a900473ffffffffffffffffffffffffffffffffffffffff169250925092509193909250565b60008060008060006107c5611eff565b60006107cf611f29565b6107d7611f67565b6000806107e38d610729565b809a50819b50829c505050506107f88d611d1c565b89600060028110151561080757fe5b602002018a600160028110151561081a57fe5b60200201829a50836000191660001916815250836000191660001916815250839a505050505060008a1315610b64578991508b821015151561085857fe5b60a0604051908101604052808973ffffffffffffffffffffffffffffffffffffffff1673ffffffffffffffffffffffffffffffffffffffff1681526020013373ffffffffffffffffffffffffffffffffffffffff1673ffffffffffffffffffffffffffffffffffffffff168152602001600660009054906101000a900473ffffffffffffffffffffffffffffffffffffffff1673ffffffffffffffffffffffffffffffffffffffff1673ffffffffffffffffffffffffffffffffffffffff168152602001600560009054906101000a900473ffffffffffffffffffffffffffffffffffffffff1673ffffffffffffffffffffffffffffffffffffffff1673ffffffffffffffffffffffffffffffffffffffff168152602001600360009054906101000a900473ffffffffffffffffffffffffffffffffffffffff1673ffffffffffffffffffffffffffffffffffffffff1673ffffffffffffffffffffffffffffffffffffffff16815250935060c0604051908101604052806109da8e8c611db6565b81526020018d815260200160008152602001600081526020017fffffffffffffffffffffffffffffffffffffffffffffffffffffffffffffffff815260200186815250925081600860009054906101000a900473ffffffffffffffffffffffffffffffffffffffff1673ffffffffffffffffffffffffffffffffffffffff1663dd62ed3e33600460009054906101000a900473ffffffffffffffffffffffffffffffffffffffff166000604051602001526040518363ffffffff167c0100000000000000000000000000000000000000000000000000000000028152600401808373ffffffffffffffffffffffffffffffffffffffff1673ffffffffffffffffffffffffffffffffffffffff1681526020018273ffffffffffffffffffffffffffffffffffffffff1673ffffffffffffffffffffffffffffffffffffffff16815260200192505050602060405180830381600087803b1515610b3b57600080fd5b6102c65a03f11515610b4c57600080fd5b50505060405180519050141515610b5f57fe5b610e7e565b8960000391508b8210151515610b7657fe5b81600960009054906101000a900473ffffffffffffffffffffffffffffffffffffffff1673ffffffffffffffffffffffffffffffffffffffff1663dd62ed3e33600460009054906101000a900473ffffffffffffffffffffffffffffffffffffffff166000604051602001526040518363ffffffff167c0100000000000000000000000000000000000000000000000000000000028152600401808373ffffffffffffffffffffffffffffffffffffffff1673ffffffffffffffffffffffffffffffffffffffff1681526020018273ffffffffffffffffffffffffffffffffffffffff1673ffffffffffffffffffffffffffffffffffffffff16815260200192505050602060405180830381600087803b1515610c9257600080fd5b6102c65a03f11515610ca357600080fd5b50505060405180519050141515610cb657fe5b60a0604051908101604052808973ffffffffffffffffffffffffffffffffffffffff1673ffffffffffffffffffffffffffffffffffffffff1681526020013373ffffffffffffffffffffffffffffffffffffffff1673ffffffffffffffffffffffffffffffffffffffff168152602001600560009054906101000a900473ffffffffffffffffffffffffffffffffffffffff1673ffffffffffffffffffffffffffffffffffffffff1673ffffffffffffffffffffffffffffffffffffffff168152602001600660009054906101000a900473ffffffffffffffffffffffffffffffffffffffff1673ffffffffffffffffffffffffffffffffffffffff1673ffffffffffffffffffffffffffffffffffffffff168152602001600360009054906101000a900473ffffffffffffffffffffffffffffffffffffffff1673ffffffffffffffffffffffffffffffffffffffff1673ffffffffffffffffffffffffffffffffffffffff16815250935060c0604051908101604052808d8152602001610e3e8e8c611db6565b815260200160008152602001600081526020017fffffffffffffffffffffffffffffffffffffffffffffffffffffffffffffffff81526020018681525092505b600760009054906101000a900473ffffffffffffffffffffffffffffffffffffffff1673ffffffffffffffffffffffffffffffffffffffff1663bc61394a85858f60008c8c6000600281101515610ed157fe5b60200201518d6001600281101515610ee557fe5b60200201516000604051602001526040518863ffffffff167c01000000000000000000000000000000000000000000000000000000000281526004018088600560200280838360005b83811015610f49578082015181840152602081019050610f2e565b5050505090500187600660200280838360005b83811015610f77578082015181840152602081019050610f5c565b50505050905001868152602001851515151581526020018460ff1660ff16815260200183600019166000191681526020018260001916600019168152602001975050505050505050602060405180830381600087803b1515610fd857600080fd5b6102c65a03f11515610fe957600080fd5b50505060405180519050905060008111156110ae57818114156110145761100f8d611de9565b611056565b8b6000808f6000191660001916815260200190815260200160002060000154036000808f60001916600019168152602001908152602001600020600001819055505b7f5bb9e663d15ef629b42635a8eabecca301c8acc2a4dc24774d06e3938936c0658d8d8b604051808460001916600019168152602001838152602001828152602001935050505060405180910390a160019a506110bc565b6110b78d611de9565b60009a505b5050505050505050505092915050565b600560009054906101000a900473ffffffffffffffffffffffffffffffffffffffff1681565b600360009054906101000a900473ffffffffffffffffffffffffffffffffffffffff1681565b60028181548110151561112757fe5b90600052602060002090016000915090505481565b600360009054906101000a900473ffffffffffffffffffffffffffffffffffffffff1673ffffffffffffffffffffffffffffffffffffffff163373ffffffffffffffffffffffffffffffffffffffff1614151561119857600080fd5b80600660006101000a81548173ffffffffffffffffffffffffffffffffffffffff021916908373ffffffffffffffffffffffffffffffffffffffff160217905550600660009054906101000a900473ffffffffffffffffffffffffffffffffffffffff16600960006101000a81548173ffffffffffffffffffffffffffffffffffffffff021916908373ffffffffffffffffffffffffffffffffffffffff16021790555050565b6000871415151561124f57600080fd5b60008713156113a6576112628787611db6565b600960009054906101000a900473ffffffffffffffffffffffffffffffffffffffff1673ffffffffffffffffffffffffffffffffffffffff1663dd62ed3e33600460009054906101000a900473ffffffffffffffffffffffffffffffffffffffff166000604051602001526040518363ffffffff167c0100000000000000000000000000000000000000000000000000000000028152600401808373ffffffffffffffffffffffffffffffffffffffff1673ffffffffffffffffffffffffffffffffffffffff1681526020018273ffffffffffffffffffffffffffffffffffffffff1673ffffffffffffffffffffffffffffffffffffffff16815260200192505050602060405180830381600087803b151561137d57600080fd5b6102c65a03f1151561138e57600080fd5b505050604051805190501415156113a157fe5b6114ea565b86600003600860009054906101000a900473ffffffffffffffffffffffffffffffffffffffff1673ffffffffffffffffffffffffffffffffffffffff1663dd62ed3e33600460009054906101000a900473ffffffffffffffffffffffffffffffffffffffff166000604051602001526040518363ffffffff167c0100000000000000000000000000000000000000000000000000000000028152600401808373ffffffffffffffffffffffffffffffffffffffff1673ffffffffffffffffffffffffffffffffffffffff1681526020018273ffffffffffffffffffffffffffffffffffffffff1673ffffffffffffffffffffffffffffffffffffffff16815260200192505050602060405180830381600087803b15156114c557600080fd5b6102c65a03f115156114d657600080fd5b505050604051805190501415156114e957fe5b5b866000808760001916600019168152602001908152602001600020600001819055508560008087600019166000191681526020019081526020016000206001018190555033600080876000191660001916815260200190815260200160002060020160006101000a81548173ffffffffffffffffffffffffffffffffffffffff021916908373ffffffffffffffffffffffffffffffffffffffff16021790555082600080876000191660001916815260200190815260200160002060020160146101000a81548160ff021916908360ff1602179055508160008087600019166000191681526020019081526020016000206003018160001916905550806000808760001916600019168152602001908152602001600020600401816000191690555083600080876000191660001916815260200190815260200160002060050181905550600280548060010182816116429190611f8f565b916000526020600020900160008790919091509060001916905550600280549050600160008760001916600019168152602001908152602001600020819055507f261d5ac7a7b49808307ef268e3f7f37eb7fcdcb7802f23227107bfb8d335bc9b858888604051808460001916600019168152602001838152602001828152602001935050505060405180910390a150505050505050565b60008060008060006116ea611eff565b60006116f4611f29565b60006116fe611f67565b6117078b611de9565b6117108b610729565b809950819a50829b505050508673ffffffffffffffffffffffffffffffffffffffff163373ffffffffffffffffffffffffffffffffffffffff1614151561175657600080fd5b61175f8b611d1c565b88600060028110151561176e57fe5b6020020189600160028110151561178157fe5b6020020182995083600019166000191681525083600019166000191681525083995050505050600089131561197f5788915060a0604051908101604052808873ffffffffffffffffffffffffffffffffffffffff1673ffffffffffffffffffffffffffffffffffffffff1681526020013373ffffffffffffffffffffffffffffffffffffffff1673ffffffffffffffffffffffffffffffffffffffff168152602001600660009054906101000a900473ffffffffffffffffffffffffffffffffffffffff1673ffffffffffffffffffffffffffffffffffffffff1673ffffffffffffffffffffffffffffffffffffffff168152602001600560009054906101000a900473ffffffffffffffffffffffffffffffffffffffff1673ffffffffffffffffffffffffffffffffffffffff1673ffffffffffffffffffffffffffffffffffffffff168152602001600360009054906101000a900473ffffffffffffffffffffffffffffffffffffffff1673ffffffffffffffffffffffffffffffffffffffff1673ffffffffffffffffffffffffffffffffffffffff16815250925060c0604051908101604052806119358b8b611db6565b81526020018a815260200160008152602001600081526020017fffffffffffffffffffffffffffffffffffffffffffffffffffffffffffffffff8152602001858152509050611b50565b88600003915060a0604051908101604052808873ffffffffffffffffffffffffffffffffffffffff1673ffffffffffffffffffffffffffffffffffffffff1681526020013373ffffffffffffffffffffffffffffffffffffffff1673ffffffffffffffffffffffffffffffffffffffff168152602001600560009054906101000a900473ffffffffffffffffffffffffffffffffffffffff1673ffffffffffffffffffffffffffffffffffffffff1673ffffffffffffffffffffffffffffffffffffffff168152602001600660009054906101000a900473ffffffffffffffffffffffffffffffffffffffff1673ffffffffffffffffffffffffffffffffffffffff1673ffffffffffffffffffffffffffffffffffffffff168152602001600360009054906101000a900473ffffffffffffffffffffffffffffffffffffffff1673ffffffffffffffffffffffffffffffffffffffff1673ffffffffffffffffffffffffffffffffffffffff16815250925060c060405190810160405280838152602001611b108b6000038b611db6565b815260200160008152602001600081526020017fffffffffffffffffffffffffffffffffffffffffffffffffffffffffffffffff81526020018581525090505b6000600760009054906101000a900473ffffffffffffffffffffffffffffffffffffffff1673ffffffffffffffffffffffffffffffffffffffff1663394c21e78584866000604051602001526040518463ffffffff167c01000000000000000000000000000000000000000000000000000000000281526004018084600560200280838360005b83811015611bf2578082015181840152602081019050611bd7565b5050505090500183600660200280838360005b83811015611c20578082015181840152602081019050611c05565b505050509050018281526020019350505050602060405180830381600087803b1515611c4b57600080fd5b6102c65a03f11515611c5c57600080fd5b50505060405180519050111515611c6f57fe5b7fadd9ea5e3a6d0eb9d89a7979aedc9ac06eea62d40b9492f938d1f513092a97088b8a8a604051808460001916600019168152602001838152602001828152602001935050505060405180910390a160019950505050505050505050919050565b600460009054906101000a900473ffffffffffffffffffffffffffffffffffffffff1681565b600660009054906101000a900473ffffffffffffffffffffffffffffffffffffffff1681565b600080600080600080866000191660001916815260200190815260200160002060020160149054906101000a900460ff1660008087600019166000191681526020019081526020016000206003015460008088600019166000191681526020019081526020016000206004015460008089600019166000191681526020019081526020016000206005015493509350935093509193509193565b60008082840290506000841480611dd75750828482811515611dd457fe5b04145b1515611ddf57fe5b8091505092915050565b60008060006001600280549050039250600283815481101515611e0857fe5b906000526020600020900154915083600019168260001916141515611ea3576001600085600019166000191681526020019081526020016000205490508060016000846000191660001916815260200190815260200160002081905550600283815481101515611e7457fe5b906000526020600020900154600282815481101515611e8f57fe5b906000526020600020900181600019169055505b60016000856000191660001916815260200190815260200160002060009055611ed26002805490506001611ee6565b600281611edf9190611fbb565b5050505050565b6000828211151515611ef457fe5b818303905092915050565b60408051908101604052806002905b6000801916815260200190600190039081611f0e5790505090565b60a0604051908101604052806005905b600073ffffffffffffffffffffffffffffffffffffffff16815260200190600190039081611f395790505090565b60c0604051908101604052806006905b6000815260200190600190039081611f775790505090565b815481835581811511611fb657818360005260206000209182019101611fb59190611fe7565b5b505050565b815481835581811511611fe257818360005260206000209182019101611fe19190611fe7565b5b505050565b61200991905b80821115612005576000816000905550600101611fed565b5090565b905600a165627a7a72305820f3236f330b142d8ad3af30a3e1489a0fc5190b39a0e7d8f630ffbf6e4999b6930029",
  "source": "pragma solidity ^0.4.17;\r\n\r\nimport \"./WETH9.sol\";\r\nimport \"./Interface0x.sol\";\r\nimport \"./TokenTransferProxy.sol\";\r\nimport \"./SafeMath.sol\"; \r\n\r\ncontract OnChain_Relayer is SafeMath{\r\n\r\n\r\n    struct SpecificOrder {\r\n        int amount;\r\n        uint price;\r\n        address maker;\r\n        uint8 v;\r\n        bytes32 r;\r\n        bytes32 s;\r\n        uint salt;\r\n    }\r\n\r\n    mapping(bytes32 => SpecificOrder) order_details;\r\n    mapping(bytes32 => uint) order_index;\r\n    bytes32[] public orders;\r\n    address public owner;\r\n    address public zeroX_address;\r\n    address public token_address;\r\n    address public wrapped_ether_address;\r\n    Interface0x zeroX;\r\n    Token ERC20Token;\r\n    WETH9 Wrapped_Ether;\r\n\r\n    modifier onlyOwner() {require(msg.sender == owner);_;}\r\n\r\n    event NewOrder(bytes32 _hash,int _amount,uint _price);\r\n    event FilledOrder(bytes32 _hash, uint _amount, uint _price);\r\n    event CancelledOrder(bytes32 _hash,int _amount,uint _price); \r\n    event Print(string _blah, uint _val);\r\n    event Print2(string _b,int _val);   \r\n\r\n    function OnChain_Relayer() public {\r\n        owner = msg.sender;\r\n        orders.push(0);\r\n    }\r\n\r\n\r\n    function placeLimit(int _amount, uint _price,bytes32 hash,uint _salt,uint8 _v,bytes32 _r,bytes32 _s) public{\r\n        require(_amount !=0);\r\n        if(_amount > 0){\r\n            assert(Wrapped_Ether.allowance(msg.sender,zeroX_address) == safeMul(uint(_amount),_price));\r\n        }\r\n        else{\r\n            assert(ERC20Token.allowance(msg.sender,zeroX_address) == uint(-_amount));\r\n        }\r\n        order_details[hash].amount = _amount;\r\n        order_details[hash].price = _price;\r\n        order_details[hash].maker= msg.sender;\r\n        order_details[hash].v= _v;\r\n        order_details[hash].r= _r;\r\n        order_details[hash].s= _s;\r\n        order_details[hash].salt = _salt;\r\n        orders.push(hash);\r\n        order_index[hash] = orders.length;\r\n        NewOrder(hash,_amount,_price);\r\n    }\r\n\r\n    function cancelLimit(bytes32 _orderHash) public returns(bool success){\r\n        removeOrder(_orderHash);\r\n        int _amount; uint _price; address _maker;\r\n        (_amount,_price,_maker) = getInfo(_orderHash);\r\n        require(msg.sender == _maker);\r\n        uint8 _v;bytes32[2] memory sig;uint salt;\r\n        (_v,sig[0],sig[1],salt) = getSignature(_orderHash);\r\n        address[5] memory orderAddresses;\r\n        uint value;\r\n        uint[6] memory orderValues;\r\n        if(_amount > 0){\r\n            value = uint(_amount);\r\n            orderAddresses = [_maker,msg.sender,wrapped_ether_address,token_address,owner];\r\n            orderValues = [safeMul(uint(_amount),_price),uint(_amount),0,0,2**256 - 1,salt];\r\n        }\r\n        else {\r\n            value = uint(-_amount);\r\n            orderAddresses = [_maker,msg.sender,token_address,wrapped_ether_address,owner];\r\n            orderValues = [value,safeMul(uint(-_amount),_price),0,0,2**256 - 1,salt];\r\n        }\r\n        assert(zeroX.cancelOrder(orderAddresses,orderValues,value) >0);\r\n        CancelledOrder(_orderHash,_amount,_price);\r\n        return true;\r\n\r\n    }\r\n\r\n    function takeOrder(bytes32 _orderHash, uint _TokenAmount) public returns(bool _success){\r\n        //must call allowance beforehand\r\n        int _amount; uint _price; address _maker;\r\n        (_amount,_price,_maker) = getInfo(_orderHash);\r\n        uint8 _v;bytes32[2] memory sig;uint salt;\r\n        (_v,sig[0],sig[1],salt) = getSignature(_orderHash);\r\n        address[5] memory orderAddresses;\r\n        uint[6] memory orderValues;\r\n        uint value;\r\n        if(_amount > 0){\r\n            value = uint(_amount);\r\n            assert(value >= _TokenAmount);\r\n            orderAddresses = [_maker,msg.sender,wrapped_ether_address,token_address,owner];\r\n            orderValues = [safeMul(_TokenAmount,_price),_TokenAmount,0,0,2**256 - 1,salt];\r\n            assert(ERC20Token.allowance(msg.sender,zeroX_address) == value);\r\n        }\r\n        else {\r\n            value = uint(-_amount);\r\n            assert(value >= _TokenAmount);\r\n            assert(Wrapped_Ether.allowance(msg.sender,zeroX_address) == value);\r\n            orderAddresses = [_maker,msg.sender,token_address,wrapped_ether_address,owner];\r\n            orderValues = [_TokenAmount,safeMul(_TokenAmount,_price),0,0,2**256 - 1,salt];\r\n        }\r\n     uint _taken = zeroX.fillOrder(orderAddresses,orderValues,_TokenAmount,false,_v,sig[0],sig[1]);\r\n     if(_taken > 0){\r\n        if(_taken == value){\r\n            removeOrder(_orderHash);\r\n        }\r\n        else{\r\n            order_details[_orderHash].amount = order_details[_orderHash].amount - int(_TokenAmount);\r\n        }\r\n        FilledOrder(_orderHash,_TokenAmount,_price);\r\n        return true;\r\n     }\r\n     else{\r\n        removeOrder(_orderHash);\r\n        return false ;\r\n     }\r\n    }\r\n\r\n    function getInfo(bytes32 _hash)constant public returns(int _amount, uint _price, address _maker){\r\n        return(order_details[_hash].amount,order_details[_hash].price,order_details[_hash].maker);\r\n    }\r\n\r\n    function getSignature(bytes32 _hash) constant internal returns(uint8 _v,bytes32 _r, bytes32 _s,uint salt){\r\n        return(order_details[_hash].v,order_details[_hash].r,order_details[_hash].s,order_details[_hash].salt);\r\n    }\r\n\r\n    function setToken(address _tokenAddress) public onlyOwner() {\r\n        token_address = _tokenAddress;\r\n        ERC20Token = Token(token_address);\r\n    }\r\n\r\n    function setWrappedEther(address _tokenAddress) public onlyOwner() {\r\n        wrapped_ether_address = _tokenAddress;\r\n        Wrapped_Ether = WETH9(wrapped_ether_address);\r\n    }\r\n\r\n    function set0x_address(address _0x) public onlyOwner(){\r\n        zeroX_address = _0x;\r\n        zeroX = Interface0x(_0x);\r\n    }\r\n\r\n    function setOwner(address _newOwner) public onlyOwner(){\r\n        owner = _newOwner;\r\n    }\r\n\r\n\r\n    function removeOrder(bytes32 _remove) internal {\r\n    uint last_index = orders.length - 1;\r\n    bytes32 last_hash = orders[last_index];\r\n    //If the hash we want to remove is the final hash in array\r\n    if (last_hash != _remove) {\r\n      uint remove_index = order_index[_remove];\r\n      //Update the order index of the last hash to that of the removed hash index\r\n      order_index[last_hash] = remove_index;\r\n      //Set the order of the removed index to the order of the last hash\r\n      orders[remove_index] = orders[last_index];\r\n    }\r\n    //Remove the order index for this address\r\n    delete order_index[_remove];\r\n    //Finally, decrement the order balances length\r\n    orders.length = safeSub(orders.length,1);\r\n  }\r\n}",
  "sourcePath": "C:\\company\\0x\\roc\\contracts\\OnChain_Relayer.sol",
  "compiler": {
    "name": "solc",
    "version": "0.4.18+commit.9cf6e910.Emscripten.clang"
  },
  "schemaVersion": "1.0.1",
  "updatedAt": "2018-02-18T06:28:28.897Z"
}