{
  "contractName": "OnChain_Relayer",
  "abi": [
    {
      "constant": false,
      "inputs": [
        {
          "name": "_newOwner",
          "type": "address"
        }
      ],
      "name": "setOwner",
      "outputs": [],
      "payable": false,
      "stateMutability": "nonpayable",
      "type": "function"
    },
    {
      "constant": false,
      "inputs": [
        {
          "name": "_tokenAddress",
          "type": "address"
        }
      ],
      "name": "setToken",
      "outputs": [],
      "payable": false,
      "stateMutability": "nonpayable",
      "type": "function"
    },
    {
      "constant": false,
      "inputs": [
        {
          "name": "_0x",
          "type": "address"
        }
      ],
      "name": "set0x_address",
      "outputs": [],
      "payable": false,
      "stateMutability": "nonpayable",
      "type": "function"
    },
    {
      "constant": true,
      "inputs": [
        {
          "name": "_hash",
          "type": "bytes32"
        }
      ],
      "name": "getInfo",
      "outputs": [
        {
          "name": "_amount",
          "type": "int256"
        },
        {
          "name": "_price",
          "type": "uint256"
        },
        {
          "name": "_maker",
          "type": "address"
        }
      ],
      "payable": false,
      "stateMutability": "view",
      "type": "function"
    },
    {
      "constant": false,
      "inputs": [
        {
          "name": "_orderHash",
          "type": "bytes32"
        },
        {
          "name": "_TokenAmount",
          "type": "uint256"
        }
      ],
      "name": "takeOrder",
      "outputs": [
        {
          "name": "_success",
          "type": "bool"
        }
      ],
      "payable": true,
      "stateMutability": "payable",
      "type": "function"
    },
    {
      "constant": true,
      "inputs": [],
      "name": "token_address",
      "outputs": [
        {
          "name": "",
          "type": "address"
        }
      ],
      "payable": false,
      "stateMutability": "view",
      "type": "function"
    },
    {
      "constant": true,
      "inputs": [],
      "name": "owner",
      "outputs": [
        {
          "name": "",
          "type": "address"
        }
      ],
      "payable": false,
      "stateMutability": "view",
      "type": "function"
    },
    {
      "constant": true,
      "inputs": [
        {
          "name": "",
          "type": "uint256"
        }
      ],
      "name": "orders",
      "outputs": [
        {
          "name": "",
          "type": "bytes32"
        }
      ],
      "payable": false,
      "stateMutability": "view",
      "type": "function"
    },
    {
      "constant": false,
      "inputs": [
        {
          "name": "_tokenAddress",
          "type": "address"
        }
      ],
      "name": "setWrappedEther",
      "outputs": [],
      "payable": false,
      "stateMutability": "nonpayable",
      "type": "function"
    },
    {
      "constant": false,
      "inputs": [
        {
          "name": "_amount",
          "type": "int256"
        },
        {
          "name": "_price",
          "type": "uint256"
        },
        {
          "name": "hash",
          "type": "bytes32"
        },
        {
          "name": "_salt",
          "type": "uint256"
        },
        {
          "name": "_v",
          "type": "uint8"
        },
        {
          "name": "_r",
          "type": "bytes32"
        },
        {
          "name": "_s",
          "type": "bytes32"
        }
      ],
      "name": "placeLimit",
      "outputs": [
        {
          "name": "_orderHash",
          "type": "bytes32"
        }
      ],
      "payable": true,
      "stateMutability": "payable",
      "type": "function"
    },
    {
      "constant": false,
      "inputs": [
        {
          "name": "_orderHash",
          "type": "bytes32"
        }
      ],
      "name": "cancelLimit",
      "outputs": [
        {
          "name": "success",
          "type": "bool"
        }
      ],
      "payable": false,
      "stateMutability": "nonpayable",
      "type": "function"
    },
    {
      "constant": true,
      "inputs": [],
      "name": "zeroX_address",
      "outputs": [
        {
          "name": "",
          "type": "address"
        }
      ],
      "payable": false,
      "stateMutability": "view",
      "type": "function"
    },
    {
      "constant": true,
      "inputs": [],
      "name": "wrapped_ether_address",
      "outputs": [
        {
          "name": "",
          "type": "address"
        }
      ],
      "payable": false,
      "stateMutability": "view",
      "type": "function"
    },
    {
      "inputs": [],
      "payable": false,
      "stateMutability": "nonpayable",
      "type": "constructor"
    },
    {
      "anonymous": false,
      "inputs": [
        {
          "indexed": false,
          "name": "_hash",
          "type": "bytes32"
        },
        {
          "indexed": false,
          "name": "_amount",
          "type": "int256"
        },
        {
          "indexed": false,
          "name": "_price",
          "type": "uint256"
        }
      ],
      "name": "NewOrder",
      "type": "event"
    },
    {
      "anonymous": false,
      "inputs": [
        {
          "indexed": false,
          "name": "_hash",
          "type": "bytes32"
        },
        {
          "indexed": false,
          "name": "_amount",
          "type": "uint256"
        },
        {
          "indexed": false,
          "name": "_price",
          "type": "uint256"
        }
      ],
      "name": "FilledOrder",
      "type": "event"
    },
    {
      "anonymous": false,
      "inputs": [
        {
          "indexed": false,
          "name": "_hash",
          "type": "bytes32"
        },
        {
          "indexed": false,
          "name": "_amount",
          "type": "int256"
        },
        {
          "indexed": false,
          "name": "_price",
          "type": "uint256"
        }
      ],
      "name": "CancelledOrder",
      "type": "event"
    }
  ],
  "bytecode": "0x606060405234156200001057600080fd5b33600360006101000a81548173ffffffffffffffffffffffffffffffffffffffff021916908373ffffffffffffffffffffffffffffffffffffffff160217905550600280548060010182816200006791906200008b565b916000526020600020900160008060010290919091509060001916905550620000e2565b815481835581811511620000b557818360005260206000209182019101620000b49190620000ba565b5b505050565b620000df91905b80821115620000db576000816000905550600101620000c1565b5090565b90565b61271280620000f26000396000f3006060604052600436106100c5576000357c0100000000000000000000000000000000000000000000000000000000900463ffffffff16806313af4035146100ca578063144fa6d714610103578063535517371461013c5780637a02dc06146101755780638a89d64f146101ea5780638c8e8fee146102275780638da5cb5b1461027c578063a85c38ef146102d1578063b6be785b14610310578063b70b9c2614610349578063ceca125d146103c2578063d6153da714610401578063e722ccb614610456575b600080fd5b34156100d557600080fd5b610101600480803573ffffffffffffffffffffffffffffffffffffffff169060200190919050506104ab565b005b341561010e57600080fd5b61013a600480803573ffffffffffffffffffffffffffffffffffffffff1690602001909190505061054b565b005b341561014757600080fd5b610173600480803573ffffffffffffffffffffffffffffffffffffffff1690602001909190505061064e565b005b341561018057600080fd5b61019a60048080356000191690602001909190505061072f565b604051808481526020018381526020018273ffffffffffffffffffffffffffffffffffffffff1673ffffffffffffffffffffffffffffffffffffffff168152602001935050505060405180910390f35b61020d6004808035600019169060200190919080359060200190919050506107bb565b604051808215151515815260200191505060405180910390f35b341561023257600080fd5b61023a611438565b604051808273ffffffffffffffffffffffffffffffffffffffff1673ffffffffffffffffffffffffffffffffffffffff16815260200191505060405180910390f35b341561028757600080fd5b61028f61145e565b604051808273ffffffffffffffffffffffffffffffffffffffff1673ffffffffffffffffffffffffffffffffffffffff16815260200191505060405180910390f35b34156102dc57600080fd5b6102f26004808035906020019091905050611484565b60405180826000191660001916815260200191505060405180910390f35b341561031b57600080fd5b610347600480803573ffffffffffffffffffffffffffffffffffffffff169060200190919050506114a8565b005b6103a460048080359060200190919080359060200190919080356000191690602001909190803590602001909190803560ff1690602001909190803560001916906020019091908035600019169060200190919050506115ab565b60405180826000191660001916815260200191505060405180910390f35b34156103cd57600080fd5b6103e7600480803560001916906020019091905050611d89565b604051808215151515815260200191505060405180910390f35b341561040c57600080fd5b610414612398565b604051808273ffffffffffffffffffffffffffffffffffffffff1673ffffffffffffffffffffffffffffffffffffffff16815260200191505060405180910390f35b341561046157600080fd5b6104696123be565b604051808273ffffffffffffffffffffffffffffffffffffffff1673ffffffffffffffffffffffffffffffffffffffff16815260200191505060405180910390f35b600360009054906101000a900473ffffffffffffffffffffffffffffffffffffffff1673ffffffffffffffffffffffffffffffffffffffff163373ffffffffffffffffffffffffffffffffffffffff1614151561050757600080fd5b80600360006101000a81548173ffffffffffffffffffffffffffffffffffffffff021916908373ffffffffffffffffffffffffffffffffffffffff16021790555050565b600360009054906101000a900473ffffffffffffffffffffffffffffffffffffffff1673ffffffffffffffffffffffffffffffffffffffff163373ffffffffffffffffffffffffffffffffffffffff161415156105a757600080fd5b80600560006101000a81548173ffffffffffffffffffffffffffffffffffffffff021916908373ffffffffffffffffffffffffffffffffffffffff160217905550600560009054906101000a900473ffffffffffffffffffffffffffffffffffffffff16600860006101000a81548173ffffffffffffffffffffffffffffffffffffffff021916908373ffffffffffffffffffffffffffffffffffffffff16021790555050565b600360009054906101000a900473ffffffffffffffffffffffffffffffffffffffff1673ffffffffffffffffffffffffffffffffffffffff163373ffffffffffffffffffffffffffffffffffffffff161415156106aa57600080fd5b80600460006101000a81548173ffffffffffffffffffffffffffffffffffffffff021916908373ffffffffffffffffffffffffffffffffffffffff16021790555080600760006101000a81548173ffffffffffffffffffffffffffffffffffffffff021916908373ffffffffffffffffffffffffffffffffffffffff16021790555050565b6000806000806000856000191660001916815260200190815260200160002060000154600080866000191660001916815260200190815260200160002060010154600080876000191660001916815260200190815260200160002060020160009054906101000a900473ffffffffffffffffffffffffffffffffffffffff169250925092509193909250565b60008060008060006107cb6125d9565b60006107d5612603565b6107dd612641565b60006107e88c61072f565b809950819a50829b505050508a6107fe8a6123e4565b1015151561080b57600080fd5b6108148c6123f9565b88600060028110151561082357fe5b6020020189600160028110151561083657fe5b60200201829950836000191660001916815250836000191660001916815250839950505050506000891315610cb35760003414151561087457600080fd5b60a0604051908101604052808873ffffffffffffffffffffffffffffffffffffffff1673ffffffffffffffffffffffffffffffffffffffff1681526020013373ffffffffffffffffffffffffffffffffffffffff1673ffffffffffffffffffffffffffffffffffffffff168152602001600660009054906101000a900473ffffffffffffffffffffffffffffffffffffffff1673ffffffffffffffffffffffffffffffffffffffff1673ffffffffffffffffffffffffffffffffffffffff168152602001600560009054906101000a900473ffffffffffffffffffffffffffffffffffffffff1673ffffffffffffffffffffffffffffffffffffffff1673ffffffffffffffffffffffffffffffffffffffff168152602001600360009054906101000a900473ffffffffffffffffffffffffffffffffffffffff1673ffffffffffffffffffffffffffffffffffffffff1673ffffffffffffffffffffffffffffffffffffffff16815250925060c0604051908101604052806109f68d8b612493565b81526020018c815260200160008152602001600081526020017fffffffffffffffffffffffffffffffffffffffffffffffffffffffffffffffff8152602001858152509150600860009054906101000a900473ffffffffffffffffffffffffffffffffffffffff1673ffffffffffffffffffffffffffffffffffffffff1660405180807f617070726f766528616464726573732c75696e74323536290000000000000000815250601801905060405180910390207c01000000000000000000000000000000000000000000000000000000009004600460009054906101000a900473ffffffffffffffffffffffffffffffffffffffff16346040518363ffffffff167c0100000000000000000000000000000000000000000000000000000000028152600401808373ffffffffffffffffffffffffffffffffffffffff1673ffffffffffffffffffffffffffffffffffffffff168152602001828152602001925050506000604051808303818661646e5a03f4925050505034600860009054906101000a900473ffffffffffffffffffffffffffffffffffffffff1673ffffffffffffffffffffffffffffffffffffffff1663dd62ed3e33600460009054906101000a900473ffffffffffffffffffffffffffffffffffffffff166000604051602001526040518363ffffffff167c0100000000000000000000000000000000000000000000000000000000028152600401808373ffffffffffffffffffffffffffffffffffffffff1673ffffffffffffffffffffffffffffffffffffffff1681526020018273ffffffffffffffffffffffffffffffffffffffff1673ffffffffffffffffffffffffffffffffffffffff16815260200192505050602060405180830381600087803b1515610c8a57600080fd5b6102c65a03f11515610c9b57600080fd5b50505060405180519050141515610cae57fe5b6111e2565b34610cbe8c8a612493565b141515610cca57600080fd5b600960009054906101000a900473ffffffffffffffffffffffffffffffffffffffff1673ffffffffffffffffffffffffffffffffffffffff1660405180807f6465706f7369742875696e743235362900000000000000000000000000000000815250601001905060405180910390207c01000000000000000000000000000000000000000000000000000000009004346040518263ffffffff167c0100000000000000000000000000000000000000000000000000000000028152600401808281526020019150506000604051808303818661646e5a03f49250505050600960009054906101000a900473ffffffffffffffffffffffffffffffffffffffff1673ffffffffffffffffffffffffffffffffffffffff1660405180807f617070726f766528616464726573732c75696e74323536290000000000000000815250601801905060405180910390207c01000000000000000000000000000000000000000000000000000000009004600460009054906101000a900473ffffffffffffffffffffffffffffffffffffffff16346040518363ffffffff167c0100000000000000000000000000000000000000000000000000000000028152600401808373ffffffffffffffffffffffffffffffffffffffff1673ffffffffffffffffffffffffffffffffffffffff168152602001828152602001925050506000604051808303818661646e5a03f4925050505034600960009054906101000a900473ffffffffffffffffffffffffffffffffffffffff1673ffffffffffffffffffffffffffffffffffffffff1663dd62ed3e33600460009054906101000a900473ffffffffffffffffffffffffffffffffffffffff166000604051602001526040518363ffffffff167c0100000000000000000000000000000000000000000000000000000000028152600401808373ffffffffffffffffffffffffffffffffffffffff1673ffffffffffffffffffffffffffffffffffffffff1681526020018273ffffffffffffffffffffffffffffffffffffffff1673ffffffffffffffffffffffffffffffffffffffff16815260200192505050602060405180830381600087803b1515610ff657600080fd5b6102c65a03f1151561100757600080fd5b5050506040518051905014151561101a57fe5b60a0604051908101604052808873ffffffffffffffffffffffffffffffffffffffff1673ffffffffffffffffffffffffffffffffffffffff1681526020013373ffffffffffffffffffffffffffffffffffffffff1673ffffffffffffffffffffffffffffffffffffffff168152602001600560009054906101000a900473ffffffffffffffffffffffffffffffffffffffff1673ffffffffffffffffffffffffffffffffffffffff1673ffffffffffffffffffffffffffffffffffffffff168152602001600660009054906101000a900473ffffffffffffffffffffffffffffffffffffffff1673ffffffffffffffffffffffffffffffffffffffff1673ffffffffffffffffffffffffffffffffffffffff168152602001600360009054906101000a900473ffffffffffffffffffffffffffffffffffffffff1673ffffffffffffffffffffffffffffffffffffffff1673ffffffffffffffffffffffffffffffffffffffff16815250925060c0604051908101604052808c81526020016111a28d8b612493565b815260200160008152602001600081526020017fffffffffffffffffffffffffffffffffffffffffffffffffffffffffffffffff81526020018581525091505b600760009054906101000a900473ffffffffffffffffffffffffffffffffffffffff1673ffffffffffffffffffffffffffffffffffffffff1663bc61394a84848e60008b8b600060028110151561123557fe5b60200201518c600160028110151561124957fe5b60200201516000604051602001526040518863ffffffff167c01000000000000000000000000000000000000000000000000000000000281526004018088600560200280838360005b838110156112ad578082015181840152602081019050611292565b5050505090500187600660200280838360005b838110156112db5780820151818401526020810190506112c0565b50505050905001868152602001851515151581526020018460ff1660ff16815260200183600019166000191681526020018260001916600019168152602001975050505050505050602060405180830381600087803b151561133c57600080fd5b6102c65a03f1151561134d57600080fd5b505050604051805190509050600081111561141a5761136b896123e4565b8114156113805761137b8c6124c6565b6113c2565b8a6000808e6000191660001916815260200190815260200160002060000154036000808e60001916600019168152602001908152602001600020600001819055505b7f5bb9e663d15ef629b42635a8eabecca301c8acc2a4dc24774d06e3938936c0658c8c8a604051808460001916600019168152602001838152602001828152602001935050505060405180910390a160019950611429565b6114238c611d89565b50600099505b50505050505050505092915050565b600560009054906101000a900473ffffffffffffffffffffffffffffffffffffffff1681565b600360009054906101000a900473ffffffffffffffffffffffffffffffffffffffff1681565b60028181548110151561149357fe5b90600052602060002090016000915090505481565b600360009054906101000a900473ffffffffffffffffffffffffffffffffffffffff1673ffffffffffffffffffffffffffffffffffffffff163373ffffffffffffffffffffffffffffffffffffffff1614151561150457600080fd5b80600660006101000a81548173ffffffffffffffffffffffffffffffffffffffff021916908373ffffffffffffffffffffffffffffffffffffffff160217905550600660009054906101000a900473ffffffffffffffffffffffffffffffffffffffff16600960006101000a81548173ffffffffffffffffffffffffffffffffffffffff021916908373ffffffffffffffffffffffffffffffffffffffff16021790555050565b60008088141515156115bc57600080fd5b600088131561193957346115d86115d28a6123e4565b89612493565b1415156115e457600080fd5b600960009054906101000a900473ffffffffffffffffffffffffffffffffffffffff1673ffffffffffffffffffffffffffffffffffffffff1660405180807f6465706f7369742875696e743235362900000000000000000000000000000000815250601001905060405180910390207c01000000000000000000000000000000000000000000000000000000009004346040518263ffffffff167c0100000000000000000000000000000000000000000000000000000000028152600401808281526020019150506000604051808303818661646e5a03f49250505050600960009054906101000a900473ffffffffffffffffffffffffffffffffffffffff1673ffffffffffffffffffffffffffffffffffffffff1660405180807f617070726f766528616464726573732c75696e74323536290000000000000000815250601801905060405180910390207c01000000000000000000000000000000000000000000000000000000009004600460009054906101000a900473ffffffffffffffffffffffffffffffffffffffff16346040518363ffffffff167c0100000000000000000000000000000000000000000000000000000000028152600401808373ffffffffffffffffffffffffffffffffffffffff1673ffffffffffffffffffffffffffffffffffffffff168152602001828152602001925050506000604051808303818661646e5a03f4925050505034600960009054906101000a900473ffffffffffffffffffffffffffffffffffffffff1673ffffffffffffffffffffffffffffffffffffffff1663dd62ed3e33600460009054906101000a900473ffffffffffffffffffffffffffffffffffffffff166000604051602001526040518363ffffffff167c0100000000000000000000000000000000000000000000000000000000028152600401808373ffffffffffffffffffffffffffffffffffffffff1673ffffffffffffffffffffffffffffffffffffffff1681526020018273ffffffffffffffffffffffffffffffffffffffff1673ffffffffffffffffffffffffffffffffffffffff16815260200192505050602060405180830381600087803b151561191057600080fd5b6102c65a03f1151561192157600080fd5b5050506040518051905014151561193457fe5b611bbc565b60003414151561194857600080fd5b600860009054906101000a900473ffffffffffffffffffffffffffffffffffffffff1673ffffffffffffffffffffffffffffffffffffffff1660405180807f617070726f766528616464726573732c75696e74323536290000000000000000815250601801905060405180910390207c01000000000000000000000000000000000000000000000000000000009004600460009054906101000a900473ffffffffffffffffffffffffffffffffffffffff16346040518363ffffffff167c0100000000000000000000000000000000000000000000000000000000028152600401808373ffffffffffffffffffffffffffffffffffffffff1673ffffffffffffffffffffffffffffffffffffffff168152602001828152602001925050506000604051808303818661646e5a03f4925050505034600860009054906101000a900473ffffffffffffffffffffffffffffffffffffffff1673ffffffffffffffffffffffffffffffffffffffff1663dd62ed3e33600460009054906101000a900473ffffffffffffffffffffffffffffffffffffffff166000604051602001526040518363ffffffff167c0100000000000000000000000000000000000000000000000000000000028152600401808373ffffffffffffffffffffffffffffffffffffffff1673ffffffffffffffffffffffffffffffffffffffff1681526020018273ffffffffffffffffffffffffffffffffffffffff1673ffffffffffffffffffffffffffffffffffffffff16815260200192505050602060405180830381600087803b1515611b9757600080fd5b6102c65a03f11515611ba857600080fd5b50505060405180519050141515611bbb57fe5b5b876000808860001916600019168152602001908152602001600020600001819055508660008088600019166000191681526020019081526020016000206001018190555033600080886000191660001916815260200190815260200160002060020160006101000a81548173ffffffffffffffffffffffffffffffffffffffff021916908373ffffffffffffffffffffffffffffffffffffffff16021790555083600080886000191660001916815260200190815260200160002060020160146101000a81548160ff021916908360ff160217905550826000808860001916600019168152602001908152602001600020600301816000191690555081600080886000191660001916815260200190815260200160002060040181600019169055508460008088600019166000191681526020019081526020016000206005018190555060028054806001018281611d149190612669565b9160005260206000209001600088909190915090600019169055507f261d5ac7a7b49808307ef268e3f7f37eb7fcdcb7802f23227107bfb8d335bc9b868989604051808460001916600019168152602001838152602001828152602001935050505060405180910390a1979650505050505050565b6000806000806000611d996125d9565b6000611da3612603565b611dab612641565b611db48a6124c6565b611dbd8a61072f565b809850819950829a505050508573ffffffffffffffffffffffffffffffffffffffff163373ffffffffffffffffffffffffffffffffffffffff16141515611e0357600080fd5b611e0c8a6123f9565b876000600281101515611e1b57fe5b60200201886001600281101515611e2e57fe5b602002018298508360001916600019168152508360001916600019168152508398505050505060008813156120395760a0604051908101604052808773ffffffffffffffffffffffffffffffffffffffff1673ffffffffffffffffffffffffffffffffffffffff1681526020013373ffffffffffffffffffffffffffffffffffffffff1673ffffffffffffffffffffffffffffffffffffffff168152602001600660009054906101000a900473ffffffffffffffffffffffffffffffffffffffff1673ffffffffffffffffffffffffffffffffffffffff1673ffffffffffffffffffffffffffffffffffffffff168152602001600560009054906101000a900473ffffffffffffffffffffffffffffffffffffffff1673ffffffffffffffffffffffffffffffffffffffff1673ffffffffffffffffffffffffffffffffffffffff168152602001600360009054906101000a900473ffffffffffffffffffffffffffffffffffffffff1673ffffffffffffffffffffffffffffffffffffffff1673ffffffffffffffffffffffffffffffffffffffff16815250915060c060405190810160405280611fe7611fe18b6123e4565b8a612493565b8152602001611ff58a6123e4565b815260200160008152602001600081526020017fffffffffffffffffffffffffffffffffffffffffffffffffffffffffffffffff8152602001848152509050612211565b60a0604051908101604052808773ffffffffffffffffffffffffffffffffffffffff1673ffffffffffffffffffffffffffffffffffffffff1681526020013373ffffffffffffffffffffffffffffffffffffffff1673ffffffffffffffffffffffffffffffffffffffff168152602001600560009054906101000a900473ffffffffffffffffffffffffffffffffffffffff1673ffffffffffffffffffffffffffffffffffffffff1673ffffffffffffffffffffffffffffffffffffffff168152602001600660009054906101000a900473ffffffffffffffffffffffffffffffffffffffff1673ffffffffffffffffffffffffffffffffffffffff1673ffffffffffffffffffffffffffffffffffffffff168152602001600360009054906101000a900473ffffffffffffffffffffffffffffffffffffffff1673ffffffffffffffffffffffffffffffffffffffff1673ffffffffffffffffffffffffffffffffffffffff16815250915060c0604051908101604052806121ba8a6123e4565b81526020016121d16121cb8b6123e4565b8a612493565b815260200160008152602001600081526020017fffffffffffffffffffffffffffffffffffffffffffffffffffffffffffffffff81526020018481525090505b6000600760009054906101000a900473ffffffffffffffffffffffffffffffffffffffff1673ffffffffffffffffffffffffffffffffffffffff1663394c21e7848461225c8d6123e4565b6000604051602001526040518463ffffffff167c01000000000000000000000000000000000000000000000000000000000281526004018084600560200280838360005b838110156122bb5780820151818401526020810190506122a0565b5050505090500183600660200280838360005b838110156122e95780820151818401526020810190506122ce565b505050509050018281526020019350505050602060405180830381600087803b151561231457600080fd5b6102c65a03f1151561232557600080fd5b5050506040518051905011151561233857fe5b7fadd9ea5e3a6d0eb9d89a7979aedc9ac06eea62d40b9492f938d1f513092a97088a8989604051808460001916600019168152602001838152602001828152602001935050505060405180910390a1600198505050505050505050919050565b600460009054906101000a900473ffffffffffffffffffffffffffffffffffffffff1681565b600660009054906101000a900473ffffffffffffffffffffffffffffffffffffffff1681565b6000808212156123f3576123f4565b5b919050565b600080600080600080866000191660001916815260200190815260200160002060020160149054906101000a900460ff1660008087600019166000191681526020019081526020016000206003015460008088600019166000191681526020019081526020016000206004015460008089600019166000191681526020019081526020016000206005015493509350935093509193509193565b600080828402905060008414806124b457508284828115156124b157fe5b04145b15156124bc57fe5b8091505092915050565b600080600060028054905092506002838154811015156124e257fe5b90600052602060002090015491508360001916826000191614151561257d57600160008560001916600019168152602001908152602001600020549050806001600084600019166000191681526020019081526020016000208190555060028381548110151561254e57fe5b90600052602060002090015460028281548110151561256957fe5b906000526020600020900181600019169055505b600160008560001916600019168152602001908152602001600020600090556125ac60028054905060016125c0565b6002816125b99190612695565b5050505050565b60008282111515156125ce57fe5b818303905092915050565b60408051908101604052806002905b60008019168152602001906001900390816125e85790505090565b60a0604051908101604052806005905b600073ffffffffffffffffffffffffffffffffffffffff168152602001906001900390816126135790505090565b60c0604051908101604052806006905b60008152602001906001900390816126515790505090565b8154818355818115116126905781836000526020600020918201910161268f91906126c1565b5b505050565b8154818355818115116126bc578183600052602060002091820191016126bb91906126c1565b5b505050565b6126e391905b808211156126df5760008160009055506001016126c7565b5090565b905600a165627a7a72305820417239794d0ba2cbcce12538ce60c6e5ed64185bf3419a66236eb29a3984f2dc0029",
  "source": "pragma solidity ^0.4.17;\r\n\r\nimport \"./WETH9.sol\";\r\nimport \"./Interface0x.sol\";\r\nimport \"./TokenTransferProxy.sol\";\r\nimport \"./SafeMath.sol\"; \r\n\r\ncontract OnChain_Relayer is SafeMath{\r\n\r\n\r\n    struct SpecificOrder {\r\n        int amount;\r\n        uint price;\r\n        address maker;\r\n        uint8 v;\r\n        bytes32 r;\r\n        bytes32 s;\r\n        uint salt;\r\n    }\r\n\r\n    mapping(bytes32 => SpecificOrder) order_details;\r\n    mapping(bytes32 => uint) order_index;\r\n    bytes32[] public orders;\r\n    address public owner;\r\n    address public zeroX_address;\r\n    address public token_address;\r\n    address public wrapped_ether_address;\r\n    Interface0x zeroX;\r\n    Token ERC20Token;\r\n    WETH9 Wrapped_Ether;\r\n\r\n    modifier onlyOwner() {require(msg.sender == owner);_;}\r\n\r\n    event NewOrder(bytes32 _hash,int _amount,uint _price);\r\n    event FilledOrder(bytes32 _hash, uint _amount, uint _price);\r\n    event CancelledOrder(bytes32 _hash,int _amount,uint _price);    \r\n\r\n    function OnChain_Relayer() public {\r\n        owner = msg.sender;\r\n        orders.push(0);\r\n    }\r\n\r\n\r\n    function placeLimit(int _amount, uint _price,bytes32 hash,uint _salt,uint8 _v,bytes32 _r,bytes32 _s) payable public returns(bytes32 _orderHash){\r\n        require(_amount !=0);\r\n        if(_amount > 0){\r\n            require(safeMul(abs(_amount),_price) == msg.value);\r\n            Wrapped_Ether.delegatecall(bytes4(sha3(\"deposit(uint256)\")), msg.value);\r\n            Wrapped_Ether.delegatecall(bytes4(sha3(\"approve(address,uint256)\")),zeroX_address, msg.value);\r\n            assert(Wrapped_Ether.allowance(msg.sender,zeroX_address) == msg.value);\r\n        }\r\n        else{\r\n            require(msg.value == 0);\r\n            ERC20Token.delegatecall(bytes4(sha3(\"approve(address,uint256)\")),zeroX_address,msg.value);\r\n            assert(ERC20Token.allowance(msg.sender,zeroX_address) == msg.value);\r\n        }\r\n        order_details[hash].amount = _amount;\r\n        order_details[hash].price = _price;\r\n        order_details[hash].maker= msg.sender;\r\n        order_details[hash].v= _v;\r\n        order_details[hash].r= _r;\r\n        order_details[hash].s= _s;\r\n        order_details[hash].salt = _salt;\r\n        orders.push(hash);\r\n        NewOrder(hash,_amount,_price);\r\n    }\r\n\r\n    function cancelLimit(bytes32 _orderHash) public returns(bool success){\r\n        removeOrder(_orderHash);\r\n        int _amount; uint _price; address _maker;\r\n        (_amount,_price,_maker) = getInfo(_orderHash);\r\n        require(msg.sender == _maker);\r\n        uint8 _v;bytes32[2] memory sig;uint salt;\r\n        (_v,sig[0],sig[1],salt) = getSignature(_orderHash);\r\n        address[5] memory orderAddresses;\r\n        uint[6] memory orderValues;\r\n        if(_amount > 0){\r\n            orderAddresses = [_maker,msg.sender,wrapped_ether_address,token_address,owner];\r\n            orderValues = [safeMul(abs(_amount),_price),abs(_amount),0,0,2**256 - 1,salt];\r\n        }\r\n        else {\r\n            orderAddresses = [_maker,msg.sender,token_address,wrapped_ether_address,owner];\r\n            orderValues = [abs(_amount),safeMul(abs(_amount),_price),0,0,2**256 - 1,salt];\r\n        }\r\n        assert(zeroX.cancelOrder(orderAddresses,orderValues,abs(_amount)) >0);\r\n        CancelledOrder(_orderHash,_amount,_price);\r\n        return true;\r\n\r\n    }\r\n\r\n    function takeOrder(bytes32 _orderHash, uint _TokenAmount) payable public returns(bool _success){\r\n        int _amount; uint _price; address _maker;\r\n        (_amount,_price,_maker) = getInfo(_orderHash);\r\n        require(abs(_amount) >= _TokenAmount);\r\n        uint8 _v;bytes32[2] memory sig;uint salt;\r\n        (_v,sig[0],sig[1],salt) = getSignature(_orderHash);\r\n        address[5] memory orderAddresses;\r\n        uint[6] memory orderValues;\r\n        if(_amount > 0){\r\n            require(msg.value == 0);\r\n            orderAddresses = [_maker,msg.sender,wrapped_ether_address,token_address,owner];\r\n            orderValues = [safeMul(_TokenAmount,_price),_TokenAmount,0,0,2**256 - 1,salt];\r\n            ERC20Token.delegatecall(bytes4(sha3(\"approve(address,uint256)\")),zeroX_address,msg.value);\r\n            assert(ERC20Token.allowance(msg.sender,zeroX_address) == msg.value);\r\n        }\r\n        else {\r\n            require(safeMul(_TokenAmount,_price) == msg.value);\r\n            Wrapped_Ether.delegatecall(bytes4(sha3(\"deposit(uint256)\")), msg.value);\r\n            Wrapped_Ether.delegatecall(bytes4(sha3(\"approve(address,uint256)\")),zeroX_address, msg.value);\r\n            assert(Wrapped_Ether.allowance(msg.sender,zeroX_address) == msg.value);\r\n            orderAddresses = [_maker,msg.sender,token_address,wrapped_ether_address,owner];\r\n            orderValues = [_TokenAmount,safeMul(_TokenAmount,_price),0,0,2**256 - 1,salt];\r\n        }\r\n        uint _taken = zeroX.fillOrder(orderAddresses,orderValues,_TokenAmount,false,_v,sig[0],sig[1]);\r\n     if(_taken > 0){\r\n        if(_taken == abs(_amount)){\r\n            removeOrder(_orderHash);\r\n        }\r\n        else{\r\n            order_details[_orderHash].amount = order_details[_orderHash].amount - int(_TokenAmount);\r\n        }\r\n        FilledOrder(_orderHash,_TokenAmount,_price);\r\n        return true;\r\n     }\r\n     else{\r\n        cancelLimit(_orderHash);\r\n        return false ;\r\n     }\r\n    }\r\n\r\n    function getInfo(bytes32 _hash)constant public returns(int _amount, uint _price, address _maker){\r\n        return(order_details[_hash].amount,order_details[_hash].price,order_details[_hash].maker);\r\n    }\r\n\r\n    function getSignature(bytes32 _hash) constant internal returns(uint8 _v,bytes32 _r, bytes32 _s,uint salt){\r\n        return(order_details[_hash].v,order_details[_hash].r,order_details[_hash].s,order_details[_hash].salt);\r\n    }\r\n\r\n    function setToken(address _tokenAddress) public onlyOwner() {\r\n        token_address = _tokenAddress;\r\n        ERC20Token = Token(token_address);\r\n    }\r\n\r\n    function setWrappedEther(address _tokenAddress) public onlyOwner() {\r\n        wrapped_ether_address = _tokenAddress;\r\n        Wrapped_Ether = WETH9(wrapped_ether_address);\r\n    }\r\n\r\n    function set0x_address(address _0x) public onlyOwner(){\r\n        zeroX_address = _0x;\r\n        zeroX = Interface0x(_0x);\r\n    }\r\n\r\n    function setOwner(address _newOwner) public onlyOwner(){\r\n        owner = _newOwner;\r\n    }\r\n\r\n\r\n    function removeOrder(bytes32 _remove) internal {\r\n    uint last_index = orders.length;\r\n    bytes32 last_hash = orders[last_index];\r\n    //If the hash we want to remove is the final hash in array\r\n    if (last_hash != _remove) {\r\n      uint remove_index = order_index[_remove];\r\n      //Update the order index of the last hash to that of the removed hash index\r\n      order_index[last_hash] = remove_index;\r\n      //Set the order of the removed index to the order of the last hash\r\n      orders[remove_index] = orders[last_index];\r\n    }\r\n    //Remove the order index for this address\r\n    delete order_index[_remove];\r\n    //Finally, decrement the order balances length\r\n    orders.length = safeSub(orders.length,1);\r\n  }\r\n}",
  "sourcePath": "C:\\company\\0x\\roc\\contracts\\OnChain_Relayer.sol",
  "compiler": {
    "name": "solc",
    "version": "0.4.18+commit.9cf6e910.Emscripten.clang"
  },
  "schemaVersion": "1.0.1",
  "updatedAt": "2018-02-18T02:43:46.337Z"
}