{
  "contractName": "OnChain_Relayer",
  "abi": [
    {
      "constant": false,
      "inputs": [
        {
          "name": "_newOwner",
          "type": "address"
        }
      ],
      "name": "setOwner",
      "outputs": [],
      "payable": false,
      "stateMutability": "nonpayable",
      "type": "function"
    },
    {
      "constant": false,
      "inputs": [
        {
          "name": "_tokenAddress",
          "type": "address"
        }
      ],
      "name": "setToken",
      "outputs": [],
      "payable": false,
      "stateMutability": "nonpayable",
      "type": "function"
    },
    {
      "constant": false,
      "inputs": [
        {
          "name": "_amount",
          "type": "int256"
        },
        {
          "name": "_price",
          "type": "uint256"
        },
        {
          "name": "_v",
          "type": "uint8"
        },
        {
          "name": "_r",
          "type": "bytes32"
        },
        {
          "name": "_s",
          "type": "bytes32"
        }
      ],
      "name": "placeLimit",
      "outputs": [
        {
          "name": "_orderHash",
          "type": "bytes32"
        }
      ],
      "payable": true,
      "stateMutability": "payable",
      "type": "function"
    },
    {
      "constant": false,
      "inputs": [
        {
          "name": "_0x",
          "type": "address"
        }
      ],
      "name": "set0x_address",
      "outputs": [],
      "payable": false,
      "stateMutability": "nonpayable",
      "type": "function"
    },
    {
      "constant": true,
      "inputs": [
        {
          "name": "_hash",
          "type": "bytes32"
        }
      ],
      "name": "getInfo",
      "outputs": [
        {
          "name": "_amount",
          "type": "int256"
        },
        {
          "name": "_price",
          "type": "uint256"
        },
        {
          "name": "_maker",
          "type": "address"
        }
      ],
      "payable": false,
      "stateMutability": "view",
      "type": "function"
    },
    {
      "constant": false,
      "inputs": [
        {
          "name": "_orderHash",
          "type": "bytes32"
        },
        {
          "name": "_TokenAmount",
          "type": "uint256"
        }
      ],
      "name": "takeOrder",
      "outputs": [
        {
          "name": "_success",
          "type": "bool"
        }
      ],
      "payable": true,
      "stateMutability": "payable",
      "type": "function"
    },
    {
      "constant": true,
      "inputs": [],
      "name": "token_address",
      "outputs": [
        {
          "name": "",
          "type": "address"
        }
      ],
      "payable": false,
      "stateMutability": "view",
      "type": "function"
    },
    {
      "constant": true,
      "inputs": [],
      "name": "owner",
      "outputs": [
        {
          "name": "",
          "type": "address"
        }
      ],
      "payable": false,
      "stateMutability": "view",
      "type": "function"
    },
    {
      "constant": true,
      "inputs": [
        {
          "name": "",
          "type": "uint256"
        }
      ],
      "name": "orders",
      "outputs": [
        {
          "name": "",
          "type": "bytes32"
        }
      ],
      "payable": false,
      "stateMutability": "view",
      "type": "function"
    },
    {
      "constant": false,
      "inputs": [
        {
          "name": "_tokenAddress",
          "type": "address"
        }
      ],
      "name": "setWrappedEther",
      "outputs": [],
      "payable": false,
      "stateMutability": "nonpayable",
      "type": "function"
    },
    {
      "constant": false,
      "inputs": [
        {
          "name": "_orderHash",
          "type": "bytes32"
        }
      ],
      "name": "cancelLimit",
      "outputs": [
        {
          "name": "success",
          "type": "bool"
        }
      ],
      "payable": false,
      "stateMutability": "nonpayable",
      "type": "function"
    },
    {
      "constant": true,
      "inputs": [],
      "name": "zeroX_address",
      "outputs": [
        {
          "name": "",
          "type": "address"
        }
      ],
      "payable": false,
      "stateMutability": "view",
      "type": "function"
    },
    {
      "constant": true,
      "inputs": [],
      "name": "wrapped_ether_address",
      "outputs": [
        {
          "name": "",
          "type": "address"
        }
      ],
      "payable": false,
      "stateMutability": "view",
      "type": "function"
    },
    {
      "inputs": [],
      "payable": false,
      "stateMutability": "nonpayable",
      "type": "constructor"
    },
    {
      "anonymous": false,
      "inputs": [
        {
          "indexed": false,
          "name": "_hash",
          "type": "bytes32"
        },
        {
          "indexed": false,
          "name": "_amount",
          "type": "int256"
        },
        {
          "indexed": false,
          "name": "_price",
          "type": "uint256"
        }
      ],
      "name": "NewOrder",
      "type": "event"
    },
    {
      "anonymous": false,
      "inputs": [
        {
          "indexed": false,
          "name": "_hash",
          "type": "bytes32"
        },
        {
          "indexed": false,
          "name": "_amount",
          "type": "uint256"
        },
        {
          "indexed": false,
          "name": "_price",
          "type": "uint256"
        }
      ],
      "name": "FilledOrder",
      "type": "event"
    },
    {
      "anonymous": false,
      "inputs": [
        {
          "indexed": false,
          "name": "_hash",
          "type": "bytes32"
        },
        {
          "indexed": false,
          "name": "_amount",
          "type": "int256"
        },
        {
          "indexed": false,
          "name": "_price",
          "type": "uint256"
        }
      ],
      "name": "CancelledOrder",
      "type": "event"
    }
  ],
  "bytecode": "0x606060405234156200001057600080fd5b33600360006101000a81548173ffffffffffffffffffffffffffffffffffffffff021916908373ffffffffffffffffffffffffffffffffffffffff160217905550600280548060010182816200006791906200008b565b916000526020600020900160008060010290919091509060001916905550620000e2565b815481835581811511620000b557818360005260206000209182019101620000b49190620000ba565b5b505050565b620000df91905b80821115620000db576000816000905550600101620000c1565b5090565b90565b61276580620000f26000396000f3006060604052600436106100c5576000357c0100000000000000000000000000000000000000000000000000000000900463ffffffff16806313af4035146100ca578063144fa6d7146101035780631960f8ed1461013c578063535517371461019f5780637a02dc06146101d85780638a89d64f1461024d5780638c8e8fee1461028a5780638da5cb5b146102df578063a85c38ef14610334578063b6be785b14610373578063ceca125d146103ac578063d6153da7146103eb578063e722ccb614610440575b600080fd5b34156100d557600080fd5b610101600480803573ffffffffffffffffffffffffffffffffffffffff16906020019091905050610495565b005b341561010e57600080fd5b61013a600480803573ffffffffffffffffffffffffffffffffffffffff16906020019091905050610535565b005b610181600480803590602001909190803590602001909190803560ff169060200190919080356000191690602001909190803560001916906020019091905050610638565b60405180826000191660001916815260200191505060405180910390f35b34156101aa57600080fd5b6101d6600480803573ffffffffffffffffffffffffffffffffffffffff16906020019091905050610e8a565b005b34156101e357600080fd5b6101fd600480803560001916906020019091905050610f6b565b604051808481526020018381526020018273ffffffffffffffffffffffffffffffffffffffff1673ffffffffffffffffffffffffffffffffffffffff168152602001935050505060405180910390f35b610270600480803560001916906020019091908035906020019091905050610ff7565b604051808215151515815260200191505060405180910390f35b341561029557600080fd5b61029d611cc0565b604051808273ffffffffffffffffffffffffffffffffffffffff1673ffffffffffffffffffffffffffffffffffffffff16815260200191505060405180910390f35b34156102ea57600080fd5b6102f2611ce6565b604051808273ffffffffffffffffffffffffffffffffffffffff1673ffffffffffffffffffffffffffffffffffffffff16815260200191505060405180910390f35b341561033f57600080fd5b6103556004808035906020019091905050611d0c565b60405180826000191660001916815260200191505060405180910390f35b341561037e57600080fd5b6103aa600480803573ffffffffffffffffffffffffffffffffffffffff16906020019091905050611d30565b005b34156103b757600080fd5b6103d1600480803560001916906020019091905050611e33565b604051808215151515815260200191505060405180910390f35b34156103f657600080fd5b6103fe612436565b604051808273ffffffffffffffffffffffffffffffffffffffff1673ffffffffffffffffffffffffffffffffffffffff16815260200191505060405180910390f35b341561044b57600080fd5b61045361245c565b604051808273ffffffffffffffffffffffffffffffffffffffff1673ffffffffffffffffffffffffffffffffffffffff16815260200191505060405180910390f35b600360009054906101000a900473ffffffffffffffffffffffffffffffffffffffff1673ffffffffffffffffffffffffffffffffffffffff163373ffffffffffffffffffffffffffffffffffffffff161415156104f157600080fd5b80600360006101000a81548173ffffffffffffffffffffffffffffffffffffffff021916908373ffffffffffffffffffffffffffffffffffffffff16021790555050565b600360009054906101000a900473ffffffffffffffffffffffffffffffffffffffff1673ffffffffffffffffffffffffffffffffffffffff163373ffffffffffffffffffffffffffffffffffffffff1614151561059157600080fd5b80600560006101000a81548173ffffffffffffffffffffffffffffffffffffffff021916908373ffffffffffffffffffffffffffffffffffffffff160217905550600560009054906101000a900473ffffffffffffffffffffffffffffffffffffffff16600860006101000a81548173ffffffffffffffffffffffffffffffffffffffff021916908373ffffffffffffffffffffffffffffffffffffffff16021790555050565b600080600080881415151561064c57600080fd5b60008813156109cc57346106686106628a612482565b89612497565b14151561067457600080fd5b600960009054906101000a900473ffffffffffffffffffffffffffffffffffffffff1673ffffffffffffffffffffffffffffffffffffffff1660405180807f6465706f7369742875696e743235362900000000000000000000000000000000815250601001905060405180910390207c01000000000000000000000000000000000000000000000000000000009004346040518263ffffffff167c0100000000000000000000000000000000000000000000000000000000028152600401808281526020019150506000604051808303818661646e5a03f49250505050600960009054906101000a900473ffffffffffffffffffffffffffffffffffffffff1673ffffffffffffffffffffffffffffffffffffffff1660405180807f617070726f766528616464726573732c75696e74323536290000000000000000815250601801905060405180910390207c01000000000000000000000000000000000000000000000000000000009004600460009054906101000a900473ffffffffffffffffffffffffffffffffffffffff16346040518363ffffffff167c0100000000000000000000000000000000000000000000000000000000028152600401808373ffffffffffffffffffffffffffffffffffffffff1673ffffffffffffffffffffffffffffffffffffffff168152602001828152602001925050506000604051808303818661646e5a03f4925050505034600960009054906101000a900473ffffffffffffffffffffffffffffffffffffffff1673ffffffffffffffffffffffffffffffffffffffff1663dd62ed3e33600460009054906101000a900473ffffffffffffffffffffffffffffffffffffffff166000604051602001526040518363ffffffff167c0100000000000000000000000000000000000000000000000000000000028152600401808373ffffffffffffffffffffffffffffffffffffffff1673ffffffffffffffffffffffffffffffffffffffff1681526020018273ffffffffffffffffffffffffffffffffffffffff1673ffffffffffffffffffffffffffffffffffffffff16815260200192505050602060405180830381600087803b15156109a057600080fd5b6102c65a03f115156109b157600080fd5b505050604051805190501415156109c757600080fd5b610c52565b6000341415156109db57600080fd5b600860009054906101000a900473ffffffffffffffffffffffffffffffffffffffff1673ffffffffffffffffffffffffffffffffffffffff1660405180807f617070726f766528616464726573732c75696e74323536290000000000000000815250601801905060405180910390207c01000000000000000000000000000000000000000000000000000000009004600460009054906101000a900473ffffffffffffffffffffffffffffffffffffffff16346040518363ffffffff167c0100000000000000000000000000000000000000000000000000000000028152600401808373ffffffffffffffffffffffffffffffffffffffff1673ffffffffffffffffffffffffffffffffffffffff168152602001828152602001925050506000604051808303818661646e5a03f4925050505034600860009054906101000a900473ffffffffffffffffffffffffffffffffffffffff1673ffffffffffffffffffffffffffffffffffffffff1663dd62ed3e33600460009054906101000a900473ffffffffffffffffffffffffffffffffffffffff166000604051602001526040518363ffffffff167c0100000000000000000000000000000000000000000000000000000000028152600401808373ffffffffffffffffffffffffffffffffffffffff1673ffffffffffffffffffffffffffffffffffffffff1681526020018273ffffffffffffffffffffffffffffffffffffffff1673ffffffffffffffffffffffffffffffffffffffff16815260200192505050602060405180830381600087803b1515610c2a57600080fd5b6102c65a03f11515610c3b57600080fd5b50505060405180519050141515610c5157600080fd5b5b42610c608760ff1642612497565b811515610c6957fe5b0691503388884285604051808673ffffffffffffffffffffffffffffffffffffffff1673ffffffffffffffffffffffffffffffffffffffff166c010000000000000000000000000281526014018581526020018481526020018381526020018281526020019550505050505060405180910390209050876000808360001916600019168152602001908152602001600020600001819055508660008083600019166000191681526020019081526020016000206001018190555033600080836000191660001916815260200190815260200160002060020160006101000a81548173ffffffffffffffffffffffffffffffffffffffff021916908373ffffffffffffffffffffffffffffffffffffffff16021790555085600080836000191660001916815260200190815260200160002060020160146101000a81548160ff021916908360ff1602179055508460008083600019166000191681526020019081526020016000206003018160001916905550836000808360001916600019168152602001908152602001600020600401816000191690555060028054806001018281610e159190612656565b9160005260206000209001600083909190915090600019169055507f261d5ac7a7b49808307ef268e3f7f37eb7fcdcb7802f23227107bfb8d335bc9b818989604051808460001916600019168152602001838152602001828152602001935050505060405180910390a1505095945050505050565b600360009054906101000a900473ffffffffffffffffffffffffffffffffffffffff1673ffffffffffffffffffffffffffffffffffffffff163373ffffffffffffffffffffffffffffffffffffffff16141515610ee657600080fd5b80600460006101000a81548173ffffffffffffffffffffffffffffffffffffffff021916908373ffffffffffffffffffffffffffffffffffffffff16021790555080600760006101000a81548173ffffffffffffffffffffffffffffffffffffffff021916908373ffffffffffffffffffffffffffffffffffffffff16021790555050565b6000806000806000856000191660001916815260200190815260200160002060000154600080866000191660001916815260200190815260200160002060010154600080876000191660001916815260200190815260200160002060020160009054906101000a900473ffffffffffffffffffffffffffffffffffffffff169250925092509193909250565b600080600080600080611008612682565b6110106126c0565b60008061101c8c610f6b565b809950819a50829b505050508a6110328a612482565b1015151561103f57600080fd5b6110488c6124ca565b87600081548110151561105757fe5b9060005260206000209001600089600181548110151561107357fe5b90600052602060002090016000849190509060001916905583919050906000191690558298505050508560ff166110c46110ad4242612497565b6110bf6110b98d612482565b8c612497565b612497565b8115156110cd57fe5b069150600089131561152a576000341415156110e857600080fd5b60a0604051908101604052808873ffffffffffffffffffffffffffffffffffffffff1673ffffffffffffffffffffffffffffffffffffffff1681526020013373ffffffffffffffffffffffffffffffffffffffff1673ffffffffffffffffffffffffffffffffffffffff168152602001600660009054906101000a900473ffffffffffffffffffffffffffffffffffffffff1673ffffffffffffffffffffffffffffffffffffffff1673ffffffffffffffffffffffffffffffffffffffff168152602001600560009054906101000a900473ffffffffffffffffffffffffffffffffffffffff1673ffffffffffffffffffffffffffffffffffffffff1673ffffffffffffffffffffffffffffffffffffffff168152602001600360009054906101000a900473ffffffffffffffffffffffffffffffffffffffff1673ffffffffffffffffffffffffffffffffffffffff1673ffffffffffffffffffffffffffffffffffffffff16815250935060c06040519081016040528061126a8d8b612497565b81526020018c815260200160008152602001600081526020017fffffffffffffffffffffffffffffffffffffffffffffffffffffffffffffffff8152602001838152509250600860009054906101000a900473ffffffffffffffffffffffffffffffffffffffff1673ffffffffffffffffffffffffffffffffffffffff1660405180807f617070726f766528616464726573732c75696e74323536290000000000000000815250601801905060405180910390207c01000000000000000000000000000000000000000000000000000000009004600460009054906101000a900473ffffffffffffffffffffffffffffffffffffffff16346040518363ffffffff167c0100000000000000000000000000000000000000000000000000000000028152600401808373ffffffffffffffffffffffffffffffffffffffff1673ffffffffffffffffffffffffffffffffffffffff168152602001828152602001925050506000604051808303818661646e5a03f4925050505034600860009054906101000a900473ffffffffffffffffffffffffffffffffffffffff1673ffffffffffffffffffffffffffffffffffffffff1663dd62ed3e33600460009054906101000a900473ffffffffffffffffffffffffffffffffffffffff166000604051602001526040518363ffffffff167c0100000000000000000000000000000000000000000000000000000000028152600401808373ffffffffffffffffffffffffffffffffffffffff1673ffffffffffffffffffffffffffffffffffffffff1681526020018273ffffffffffffffffffffffffffffffffffffffff1673ffffffffffffffffffffffffffffffffffffffff16815260200192505050602060405180830381600087803b15156114fe57600080fd5b6102c65a03f1151561150f57600080fd5b5050506040518051905014151561152557600080fd5b611a5c565b346115358c8a612497565b14151561154157600080fd5b600960009054906101000a900473ffffffffffffffffffffffffffffffffffffffff1673ffffffffffffffffffffffffffffffffffffffff1660405180807f6465706f7369742875696e743235362900000000000000000000000000000000815250601001905060405180910390207c01000000000000000000000000000000000000000000000000000000009004346040518263ffffffff167c0100000000000000000000000000000000000000000000000000000000028152600401808281526020019150506000604051808303818661646e5a03f49250505050600960009054906101000a900473ffffffffffffffffffffffffffffffffffffffff1673ffffffffffffffffffffffffffffffffffffffff1660405180807f617070726f766528616464726573732c75696e74323536290000000000000000815250601801905060405180910390207c01000000000000000000000000000000000000000000000000000000009004600460009054906101000a900473ffffffffffffffffffffffffffffffffffffffff16346040518363ffffffff167c0100000000000000000000000000000000000000000000000000000000028152600401808373ffffffffffffffffffffffffffffffffffffffff1673ffffffffffffffffffffffffffffffffffffffff168152602001828152602001925050506000604051808303818661646e5a03f4925050505034600960009054906101000a900473ffffffffffffffffffffffffffffffffffffffff1673ffffffffffffffffffffffffffffffffffffffff1663dd62ed3e33600460009054906101000a900473ffffffffffffffffffffffffffffffffffffffff166000604051602001526040518363ffffffff167c0100000000000000000000000000000000000000000000000000000000028152600401808373ffffffffffffffffffffffffffffffffffffffff1673ffffffffffffffffffffffffffffffffffffffff1681526020018273ffffffffffffffffffffffffffffffffffffffff1673ffffffffffffffffffffffffffffffffffffffff16815260200192505050602060405180830381600087803b151561186d57600080fd5b6102c65a03f1151561187e57600080fd5b5050506040518051905014151561189457600080fd5b60a0604051908101604052808873ffffffffffffffffffffffffffffffffffffffff1673ffffffffffffffffffffffffffffffffffffffff1681526020013373ffffffffffffffffffffffffffffffffffffffff1673ffffffffffffffffffffffffffffffffffffffff168152602001600560009054906101000a900473ffffffffffffffffffffffffffffffffffffffff1673ffffffffffffffffffffffffffffffffffffffff1673ffffffffffffffffffffffffffffffffffffffff168152602001600660009054906101000a900473ffffffffffffffffffffffffffffffffffffffff1673ffffffffffffffffffffffffffffffffffffffff1673ffffffffffffffffffffffffffffffffffffffff168152602001600360009054906101000a900473ffffffffffffffffffffffffffffffffffffffff1673ffffffffffffffffffffffffffffffffffffffff1673ffffffffffffffffffffffffffffffffffffffff16815250935060c0604051908101604052808c8152602001611a1c8d8b612497565b815260200160008152602001600081526020017fffffffffffffffffffffffffffffffffffffffffffffffffffffffffffffffff81526020018381525092505b600760009054906101000a900473ffffffffffffffffffffffffffffffffffffffff1673ffffffffffffffffffffffffffffffffffffffff1663bc61394a85858e60008b8b6000815481101515611aaf57fe5b9060005260206000209001548c6001815481101515611aca57fe5b9060005260206000209001546000604051602001526040518863ffffffff167c01000000000000000000000000000000000000000000000000000000000281526004018088600560200280838360005b83811015611b35578082015181840152602081019050611b1a565b5050505090500187600660200280838360005b83811015611b63578082015181840152602081019050611b48565b50505050905001868152602001851515151581526020018460ff1660ff16815260200183600019166000191681526020018260001916600019168152602001975050505050505050602060405180830381600087803b1515611bc457600080fd5b6102c65a03f11515611bd557600080fd5b5050506040518051905090506000811115611ca257611bf389612482565b811415611c0857611c038c612543565b611c4a565b8a6000808e6000191660001916815260200190815260200160002060000154036000808e60001916600019168152602001908152602001600020600001819055505b7f5bb9e663d15ef629b42635a8eabecca301c8acc2a4dc24774d06e3938936c0658c8c8a604051808460001916600019168152602001838152602001828152602001935050505060405180910390a160019950611cb1565b611cab8c611e33565b50600099505b50505050505050505092915050565b600560009054906101000a900473ffffffffffffffffffffffffffffffffffffffff1681565b600360009054906101000a900473ffffffffffffffffffffffffffffffffffffffff1681565b600281815481101515611d1b57fe5b90600052602060002090016000915090505481565b600360009054906101000a900473ffffffffffffffffffffffffffffffffffffffff1673ffffffffffffffffffffffffffffffffffffffff163373ffffffffffffffffffffffffffffffffffffffff16141515611d8c57600080fd5b80600660006101000a81548173ffffffffffffffffffffffffffffffffffffffff021916908373ffffffffffffffffffffffffffffffffffffffff160217905550600660009054906101000a900473ffffffffffffffffffffffffffffffffffffffff16600960006101000a81548173ffffffffffffffffffffffffffffffffffffffff021916908373ffffffffffffffffffffffffffffffffffffffff16021790555050565b6000806000806000806000611e46612682565b611e4e6126c0565b6000611e598b612543565b611e628b610f6b565b809950819a50829b505050508673ffffffffffffffffffffffffffffffffffffffff163373ffffffffffffffffffffffffffffffffffffffff16141515611ea857600080fd5b611eb18b6124ca565b8096508197508298505050508560ff16611ee5611ece4242612497565b611ee0611eda8d612482565b8c612497565b612497565b811515611eee57fe5b06905060008913156120d65760a0604051908101604052808873ffffffffffffffffffffffffffffffffffffffff1673ffffffffffffffffffffffffffffffffffffffff1681526020013373ffffffffffffffffffffffffffffffffffffffff1673ffffffffffffffffffffffffffffffffffffffff168152602001600660009054906101000a900473ffffffffffffffffffffffffffffffffffffffff1673ffffffffffffffffffffffffffffffffffffffff1673ffffffffffffffffffffffffffffffffffffffff168152602001600560009054906101000a900473ffffffffffffffffffffffffffffffffffffffff1673ffffffffffffffffffffffffffffffffffffffff1673ffffffffffffffffffffffffffffffffffffffff168152602001600360009054906101000a900473ffffffffffffffffffffffffffffffffffffffff1673ffffffffffffffffffffffffffffffffffffffff1673ffffffffffffffffffffffffffffffffffffffff16815250925060c06040519081016040528061208461207e8c612482565b8b612497565b81526020016120928b612482565b815260200160008152602001600081526020017fffffffffffffffffffffffffffffffffffffffffffffffffffffffffffffffff81526020018281525091506122ae565b60a0604051908101604052808873ffffffffffffffffffffffffffffffffffffffff1673ffffffffffffffffffffffffffffffffffffffff1681526020013373ffffffffffffffffffffffffffffffffffffffff1673ffffffffffffffffffffffffffffffffffffffff168152602001600560009054906101000a900473ffffffffffffffffffffffffffffffffffffffff1673ffffffffffffffffffffffffffffffffffffffff1673ffffffffffffffffffffffffffffffffffffffff168152602001600660009054906101000a900473ffffffffffffffffffffffffffffffffffffffff1673ffffffffffffffffffffffffffffffffffffffff1673ffffffffffffffffffffffffffffffffffffffff168152602001600360009054906101000a900473ffffffffffffffffffffffffffffffffffffffff1673ffffffffffffffffffffffffffffffffffffffff1673ffffffffffffffffffffffffffffffffffffffff16815250925060c0604051908101604052806122578b612482565b815260200161226e6122688c612482565b8b612497565b815260200160008152602001600081526020017fffffffffffffffffffffffffffffffffffffffffffffffffffffffffffffffff81526020018281525091505b6000600760009054906101000a900473ffffffffffffffffffffffffffffffffffffffff1673ffffffffffffffffffffffffffffffffffffffff1663394c21e785856122f98e612482565b6000604051602001526040518463ffffffff167c01000000000000000000000000000000000000000000000000000000000281526004018084600560200280838360005b8381101561235857808201518184015260208101905061233d565b5050505090500183600660200280838360005b8381101561238657808201518184015260208101905061236b565b505050509050018281526020019350505050602060405180830381600087803b15156123b157600080fd5b6102c65a03f115156123c257600080fd5b505050604051805190501115156123d557fe5b7fadd9ea5e3a6d0eb9d89a7979aedc9ac06eea62d40b9492f938d1f513092a97088b8a8a604051808460001916600019168152602001838152602001828152602001935050505060405180910390a160019950505050505050505050919050565b600460009054906101000a900473ffffffffffffffffffffffffffffffffffffffff1681565b600660009054906101000a900473ffffffffffffffffffffffffffffffffffffffff1681565b60008082121561249157612492565b5b919050565b600080828402905060008414806124b857508284828115156124b557fe5b04145b15156124c057fe5b8091505092915050565b6000806000806000856000191660001916815260200190815260200160002060020160149054906101000a900460ff166000808660001916600019168152602001908152602001600020600301546000808760001916600019168152602001908152602001600020600401549250925092509193909250565b6000806000600280549050925060028381548110151561255f57fe5b9060005260206000209001549150836000191682600019161415156125fa5760016000856000191660001916815260200190815260200160002054905080600160008460001916600019168152602001908152602001600020819055506002838154811015156125cb57fe5b9060005260206000209001546002828154811015156125e657fe5b906000526020600020900181600019169055505b60016000856000191660001916815260200190815260200160002060009055612629600280549050600161263d565b60028161263691906126e8565b5050505050565b600082821115151561264b57fe5b818303905092915050565b81548183558181151161267d5781836000526020600020918201910161267c9190612714565b5b505050565b60a0604051908101604052806005905b600073ffffffffffffffffffffffffffffffffffffffff168152602001906001900390816126925790505090565b60c0604051908101604052806006905b60008152602001906001900390816126d05790505090565b81548183558181151161270f5781836000526020600020918201910161270e9190612714565b5b505050565b61273691905b8082111561273257600081600090555060010161271a565b5090565b905600a165627a7a72305820d16617acdd052a5dc426841894280b21f51f751585075a55fe2c37f09d07415f0029",
  "source": "pragma solidity ^0.4.17;\r\n\r\nimport \"./WETH9.sol\";\r\nimport \"./Interface0x.sol\";\r\nimport \"./TokenTransferProxy.sol\";\r\nimport \"./SafeMath.sol\"; \r\n\r\ncontract OnChain_Relayer is SafeMath{\r\n\r\n\r\n    struct SpecificOrder {\r\n        int amount;\r\n        uint price;\r\n        address maker;\r\n        uint8 v;\r\n        bytes32 r;\r\n        bytes32 s;\r\n    }\r\n\r\n    mapping(bytes32 => SpecificOrder) order_details;\r\n    mapping(bytes32 => uint) order_index;\r\n    bytes32[] public orders;\r\n    address public owner;\r\n    address public zeroX_address;\r\n    address public token_address;\r\n    address public wrapped_ether_address;\r\n    Interface0x zeroX;\r\n    Token ERC20Token;\r\n    WETH9 Wrapped_Ether;\r\n\r\n    modifier onlyOwner() {require(msg.sender == owner);_;}\r\n\r\n    event NewOrder(bytes32 _hash,int _amount,uint _price);\r\n    event FilledOrder(bytes32 _hash, uint _amount, uint _price);\r\n    event CancelledOrder(bytes32 _hash,int _amount,uint _price);    \r\n\r\n    function OnChain_Relayer() public {\r\n        owner = msg.sender;\r\n        orders.push(0);\r\n    }\r\n\r\n\r\n    function placeLimit(int _amount, uint _price,uint8 _v,bytes32 _r,bytes32 _s) payable public returns(bytes32 _orderHash){\r\n        require(_amount !=0);\r\n\r\n        if(_amount > 0){\r\n            require(safeMul(abs(_amount),_price) == msg.value);\r\n            Wrapped_Ether.delegatecall(bytes4(sha3(\"deposit(uint256)\")), msg.value);\r\n            Wrapped_Ether.delegatecall(bytes4(sha3(\"approve(address,uint256)\")),zeroX_address, msg.value);\r\n            require(Wrapped_Ether.allowance(msg.sender,zeroX_address) == msg.value);\r\n        }\r\n        else{\r\n            require(msg.value == 0);\r\n            ERC20Token.delegatecall(bytes4(sha3(\"approve(address,uint256)\")),zeroX_address,msg.value);\r\n            require(ERC20Token.allowance(msg.sender,zeroX_address) == msg.value);\r\n        }\r\n        uint nonce = safeMul(_v,block.timestamp) % now;\r\n        bytes32 hash = keccak256(msg.sender,_amount,_price,now,nonce);\r\n        order_details[hash].amount = _amount;\r\n        order_details[hash].price = _price;\r\n        order_details[hash].maker= msg.sender;\r\n        order_details[hash].v= _v;\r\n        order_details[hash].r= _r;\r\n        order_details[hash].s= _s;\r\n        orders.push(hash);\r\n        NewOrder(hash,_amount,_price);\r\n    }\r\n\r\n    function cancelLimit(bytes32 _orderHash) public returns(bool success){\r\n        removeOrder(_orderHash);\r\n        int _amount; uint _price; address _maker;\r\n        (_amount,_price,_maker) = getInfo(_orderHash);\r\n        require(msg.sender == _maker);\r\n        uint8 _v;bytes32 _r; bytes32 _s;\r\n        (_v,_r,_s) = getSignature(_orderHash);\r\n        address[5] memory orderAddresses;\r\n        uint[6] memory orderValues;\r\n        uint salt = safeMul(safeMul(now,block.timestamp),safeMul(abs(_amount),_price)) % _v;\r\n        if(_amount > 0){\r\n            orderAddresses = [_maker,msg.sender,wrapped_ether_address,token_address,owner];\r\n            orderValues = [safeMul(abs(_amount),_price),abs(_amount),0,0,2**256 - 1,salt];\r\n        }\r\n        else {\r\n            orderAddresses = [_maker,msg.sender,token_address,wrapped_ether_address,owner];\r\n            orderValues = [abs(_amount),safeMul(abs(_amount),_price),0,0,2**256 - 1,salt];\r\n        }\r\n        assert(zeroX.cancelOrder(orderAddresses,orderValues,abs(_amount)) >0);\r\n        CancelledOrder(_orderHash,_amount,_price);\r\n        return true;\r\n\r\n    }\r\n\r\n    function takeOrder(bytes32 _orderHash, uint _TokenAmount) payable public returns(bool _success){\r\n        int _amount; uint _price; address _maker;\r\n        (_amount,_price,_maker) = getInfo(_orderHash);\r\n        require(abs(_amount) >= _TokenAmount);\r\n        uint8 _v;bytes32[] sig;\r\n        (_v,sig[0],sig[1]) = getSignature(_orderHash);\r\n        address[5] memory orderAddresses;\r\n        uint[6] memory orderValues;\r\n        uint salt = safeMul(safeMul(now,block.timestamp),safeMul(abs(_amount),_price)) % _v;\r\n        if(_amount > 0){\r\n            require(msg.value == 0);\r\n            orderAddresses = [_maker,msg.sender,wrapped_ether_address,token_address,owner];\r\n            orderValues = [safeMul(_TokenAmount,_price),_TokenAmount,0,0,2**256 - 1,salt];\r\n            ERC20Token.delegatecall(bytes4(sha3(\"approve(address,uint256)\")),zeroX_address,msg.value);\r\n            require(ERC20Token.allowance(msg.sender,zeroX_address) == msg.value);\r\n        }\r\n        else {\r\n            require(safeMul(_TokenAmount,_price) == msg.value);\r\n            Wrapped_Ether.delegatecall(bytes4(sha3(\"deposit(uint256)\")), msg.value);\r\n            Wrapped_Ether.delegatecall(bytes4(sha3(\"approve(address,uint256)\")),zeroX_address, msg.value);\r\n            require(Wrapped_Ether.allowance(msg.sender,zeroX_address) == msg.value);\r\n            orderAddresses = [_maker,msg.sender,token_address,wrapped_ether_address,owner];\r\n            orderValues = [_TokenAmount,safeMul(_TokenAmount,_price),0,0,2**256 - 1,salt];\r\n        }\r\n\r\n        //zeroX.fillOrder(orderAddresses,orderValues,uint fillTakerTokenAmount,bool shouldThrowOnInsufficientBalanceOrAllowance, uint8 v,bytes32 r, bytes32 s);\r\n        uint _taken = zeroX.fillOrder(orderAddresses,orderValues,_TokenAmount,false,_v,sig[0],sig[1]);\r\n     if(_taken > 0){\r\n        if(_taken == abs(_amount)){\r\n            removeOrder(_orderHash);\r\n        }\r\n        else{\r\n            order_details[_orderHash].amount = order_details[_orderHash].amount - int(_TokenAmount);\r\n        }\r\n        FilledOrder(_orderHash,_TokenAmount,_price);\r\n        return true;\r\n     }\r\n     else{\r\n        cancelLimit(_orderHash);\r\n        return false ;\r\n     }\r\n    }\r\n\r\n    function getInfo(bytes32 _hash)constant public returns(int _amount, uint _price, address _maker){\r\n        return(order_details[_hash].amount,order_details[_hash].price,order_details[_hash].maker);\r\n    }\r\n\r\n    function getSignature(bytes32 _hash) constant internal returns(uint8 _v,bytes32 _r, bytes32 _s){\r\n        return(order_details[_hash].v,order_details[_hash].r,order_details[_hash].s);\r\n    }\r\n\r\n    function setToken(address _tokenAddress) public onlyOwner() {\r\n        token_address = _tokenAddress;\r\n        ERC20Token = Token(token_address);\r\n    }\r\n\r\n    function setWrappedEther(address _tokenAddress) public onlyOwner() {\r\n        wrapped_ether_address = _tokenAddress;\r\n        Wrapped_Ether = WETH9(wrapped_ether_address);\r\n    }\r\n\r\n    function set0x_address(address _0x) public onlyOwner(){\r\n        zeroX_address = _0x;\r\n        zeroX = Interface0x(_0x);\r\n    }\r\n\r\n    function setOwner(address _newOwner) public onlyOwner(){\r\n        owner = _newOwner;\r\n    }\r\n\r\n\r\n    function removeOrder(bytes32 _remove) internal {\r\n    uint last_index = orders.length;\r\n    bytes32 last_hash = orders[last_index];\r\n    //If the hash we want to remove is the final hash in array\r\n    if (last_hash != _remove) {\r\n      uint remove_index = order_index[_remove];\r\n      //Update the order index of the last hash to that of the removed hash index\r\n      order_index[last_hash] = remove_index;\r\n      //Set the order of the removed index to the order of the last hash\r\n      orders[remove_index] = orders[last_index];\r\n    }\r\n    //Remove the order index for this address\r\n    delete order_index[_remove];\r\n    //Finally, decrement the order balances length\r\n    orders.length = safeSub(orders.length,1);\r\n  }\r\n}",
  "sourcePath": "C:\\company\\0x\\roc\\contracts\\OnChain_Relayer.sol",
  "compiler": {
    "name": "solc",
    "version": "0.4.18+commit.9cf6e910.Emscripten.clang"
  },
  "schemaVersion": "1.0.1",
  "updatedAt": "2018-02-18T01:04:07.630Z"
}