{
  "contractName": "OnChain_Relayer",
  "abi": [
    {
      "constant": false,
      "inputs": [
        {
          "name": "_newOwner",
          "type": "address"
        }
      ],
      "name": "setOwner",
      "outputs": [],
      "payable": false,
      "stateMutability": "nonpayable",
      "type": "function"
    },
    {
      "constant": false,
      "inputs": [
        {
          "name": "_tokenAddress",
          "type": "address"
        }
      ],
      "name": "setToken",
      "outputs": [],
      "payable": false,
      "stateMutability": "nonpayable",
      "type": "function"
    },
    {
      "constant": true,
      "inputs": [
        {
          "name": "_index",
          "type": "uint256"
        }
      ],
      "name": "getHashfromIndex",
      "outputs": [
        {
          "name": "",
          "type": "bytes32"
        }
      ],
      "payable": false,
      "stateMutability": "view",
      "type": "function"
    },
    {
      "constant": false,
      "inputs": [
        {
          "name": "_0x",
          "type": "address"
        }
      ],
      "name": "set0x_address",
      "outputs": [],
      "payable": false,
      "stateMutability": "nonpayable",
      "type": "function"
    },
    {
      "constant": true,
      "inputs": [],
      "name": "tokentransferproxy_address",
      "outputs": [
        {
          "name": "",
          "type": "address"
        }
      ],
      "payable": false,
      "stateMutability": "view",
      "type": "function"
    },
    {
      "constant": true,
      "inputs": [
        {
          "name": "_hash",
          "type": "bytes32"
        }
      ],
      "name": "getInfo",
      "outputs": [
        {
          "name": "_amount",
          "type": "int256"
        },
        {
          "name": "_price",
          "type": "uint256"
        },
        {
          "name": "_maker",
          "type": "address"
        }
      ],
      "payable": false,
      "stateMutability": "view",
      "type": "function"
    },
    {
      "constant": false,
      "inputs": [
        {
          "name": "_orderHash",
          "type": "bytes32"
        },
        {
          "name": "_TokenAmount",
          "type": "uint256"
        }
      ],
      "name": "takeOrder",
      "outputs": [
        {
          "name": "_success",
          "type": "bool"
        }
      ],
      "payable": false,
      "stateMutability": "nonpayable",
      "type": "function"
    },
    {
      "constant": true,
      "inputs": [],
      "name": "token_address",
      "outputs": [
        {
          "name": "",
          "type": "address"
        }
      ],
      "payable": false,
      "stateMutability": "view",
      "type": "function"
    },
    {
      "constant": true,
      "inputs": [],
      "name": "owner",
      "outputs": [
        {
          "name": "",
          "type": "address"
        }
      ],
      "payable": false,
      "stateMutability": "view",
      "type": "function"
    },
    {
      "constant": true,
      "inputs": [],
      "name": "getOrderLength",
      "outputs": [
        {
          "name": "_len",
          "type": "uint256"
        }
      ],
      "payable": false,
      "stateMutability": "view",
      "type": "function"
    },
    {
      "constant": false,
      "inputs": [
        {
          "name": "_ttp",
          "type": "address"
        }
      ],
      "name": "setTTP_address",
      "outputs": [],
      "payable": false,
      "stateMutability": "nonpayable",
      "type": "function"
    },
    {
      "constant": true,
      "inputs": [
        {
          "name": "",
          "type": "uint256"
        }
      ],
      "name": "orders",
      "outputs": [
        {
          "name": "",
          "type": "bytes32"
        }
      ],
      "payable": false,
      "stateMutability": "view",
      "type": "function"
    },
    {
      "constant": false,
      "inputs": [
        {
          "name": "_tokenAddress",
          "type": "address"
        }
      ],
      "name": "setWrappedEther",
      "outputs": [],
      "payable": false,
      "stateMutability": "nonpayable",
      "type": "function"
    },
    {
      "constant": false,
      "inputs": [
        {
          "name": "_amount",
          "type": "int256"
        },
        {
          "name": "_price",
          "type": "uint256"
        },
        {
          "name": "hash",
          "type": "bytes32"
        },
        {
          "name": "_salt",
          "type": "uint256"
        },
        {
          "name": "_v",
          "type": "uint8"
        },
        {
          "name": "_r",
          "type": "bytes32"
        },
        {
          "name": "_s",
          "type": "bytes32"
        }
      ],
      "name": "placeLimit",
      "outputs": [],
      "payable": false,
      "stateMutability": "nonpayable",
      "type": "function"
    },
    {
      "constant": false,
      "inputs": [
        {
          "name": "_orderHash",
          "type": "bytes32"
        }
      ],
      "name": "cancelLimit",
      "outputs": [
        {
          "name": "success",
          "type": "bool"
        }
      ],
      "payable": false,
      "stateMutability": "nonpayable",
      "type": "function"
    },
    {
      "constant": true,
      "inputs": [],
      "name": "zeroX_address",
      "outputs": [
        {
          "name": "",
          "type": "address"
        }
      ],
      "payable": false,
      "stateMutability": "view",
      "type": "function"
    },
    {
      "constant": true,
      "inputs": [],
      "name": "wrapped_ether_address",
      "outputs": [
        {
          "name": "",
          "type": "address"
        }
      ],
      "payable": false,
      "stateMutability": "view",
      "type": "function"
    },
    {
      "inputs": [],
      "payable": false,
      "stateMutability": "nonpayable",
      "type": "constructor"
    },
    {
      "anonymous": false,
      "inputs": [
        {
          "indexed": false,
          "name": "_hash",
          "type": "bytes32"
        },
        {
          "indexed": false,
          "name": "_amount",
          "type": "int256"
        },
        {
          "indexed": false,
          "name": "_price",
          "type": "uint256"
        }
      ],
      "name": "NewOrder",
      "type": "event"
    },
    {
      "anonymous": false,
      "inputs": [
        {
          "indexed": false,
          "name": "_hash",
          "type": "bytes32"
        },
        {
          "indexed": false,
          "name": "_amount",
          "type": "uint256"
        },
        {
          "indexed": false,
          "name": "_price",
          "type": "uint256"
        }
      ],
      "name": "FilledOrder",
      "type": "event"
    },
    {
      "anonymous": false,
      "inputs": [
        {
          "indexed": false,
          "name": "_hash",
          "type": "bytes32"
        },
        {
          "indexed": false,
          "name": "_amount",
          "type": "int256"
        },
        {
          "indexed": false,
          "name": "_price",
          "type": "uint256"
        }
      ],
      "name": "CancelledOrder",
      "type": "event"
    },
    {
      "anonymous": false,
      "inputs": [
        {
          "indexed": false,
          "name": "_blah",
          "type": "string"
        },
        {
          "indexed": false,
          "name": "_val",
          "type": "uint256"
        }
      ],
      "name": "Print",
      "type": "event"
    },
    {
      "anonymous": false,
      "inputs": [
        {
          "indexed": false,
          "name": "_b",
          "type": "string"
        },
        {
          "indexed": false,
          "name": "_val",
          "type": "int256"
        }
      ],
      "name": "Print2",
      "type": "event"
    }
  ],
  "bytecode": "0x606060405234156200001057600080fd5b33600360006101000a81548173ffffffffffffffffffffffffffffffffffffffff021916908373ffffffffffffffffffffffffffffffffffffffff160217905550600280548060010182816200006791906200008b565b916000526020600020900160008060010290919091509060001916905550620000e2565b815481835581811511620000b557818360005260206000209182019101620000b49190620000ba565b5b505050565b620000df91905b80821115620000db576000816000905550600101620000c1565b5090565b90565b61243d80620000f26000396000f3006060604052600436106100f1576000357c0100000000000000000000000000000000000000000000000000000000900463ffffffff16806313af4035146100f6578063144fa6d71461012f5780632038045c1461016857806353551737146101a757806366a1adb8146101e05780637a02dc06146102355780638a89d64f146102aa5780638c8e8fee146102f25780638da5cb5b146103475780639d4971b71461039c578063a7931399146103c5578063a85c38ef146103fe578063b6be785b1461043d578063b70b9c2614610476578063ceca125d146104de578063d6153da71461051d578063e722ccb614610572575b600080fd5b341561010157600080fd5b61012d600480803573ffffffffffffffffffffffffffffffffffffffff169060200190919050506105c7565b005b341561013a57600080fd5b610166600480803573ffffffffffffffffffffffffffffffffffffffff16906020019091905050610667565b005b341561017357600080fd5b610189600480803590602001909190505061076a565b60405180826000191660001916815260200191505060405180910390f35b34156101b257600080fd5b6101de600480803573ffffffffffffffffffffffffffffffffffffffff1690602001909190505061078e565b005b34156101eb57600080fd5b6101f361086f565b604051808273ffffffffffffffffffffffffffffffffffffffff1673ffffffffffffffffffffffffffffffffffffffff16815260200191505060405180910390f35b341561024057600080fd5b61025a600480803560001916906020019091905050610895565b604051808481526020018381526020018273ffffffffffffffffffffffffffffffffffffffff1673ffffffffffffffffffffffffffffffffffffffff168152602001935050505060405180910390f35b34156102b557600080fd5b6102d8600480803560001916906020019091908035906020019091905050610921565b604051808215151515815260200191505060405180910390f35b34156102fd57600080fd5b610305611424565b604051808273ffffffffffffffffffffffffffffffffffffffff1673ffffffffffffffffffffffffffffffffffffffff16815260200191505060405180910390f35b341561035257600080fd5b61035a61144a565b604051808273ffffffffffffffffffffffffffffffffffffffff1673ffffffffffffffffffffffffffffffffffffffff16815260200191505060405180910390f35b34156103a757600080fd5b6103af611470565b6040518082815260200191505060405180910390f35b34156103d057600080fd5b6103fc600480803573ffffffffffffffffffffffffffffffffffffffff1690602001909190505061147d565b005b341561040957600080fd5b61041f600480803590602001909190505061151d565b60405180826000191660001916815260200191505060405180910390f35b341561044857600080fd5b610474600480803573ffffffffffffffffffffffffffffffffffffffff16906020019091905050611541565b005b341561048157600080fd5b6104dc60048080359060200190919080359060200190919080356000191690602001909190803590602001909190803560ff169060200190919080356000191690602001909190803560001916906020019091905050611644565b005b34156104e957600080fd5b610503600480803560001916906020019091905050611adf565b604051808215151515815260200191505060405180910390f35b341561052857600080fd5b6105306120d5565b604051808273ffffffffffffffffffffffffffffffffffffffff1673ffffffffffffffffffffffffffffffffffffffff16815260200191505060405180910390f35b341561057d57600080fd5b6105856120fb565b604051808273ffffffffffffffffffffffffffffffffffffffff1673ffffffffffffffffffffffffffffffffffffffff16815260200191505060405180910390f35b600360009054906101000a900473ffffffffffffffffffffffffffffffffffffffff1673ffffffffffffffffffffffffffffffffffffffff163373ffffffffffffffffffffffffffffffffffffffff1614151561062357600080fd5b80600360006101000a81548173ffffffffffffffffffffffffffffffffffffffff021916908373ffffffffffffffffffffffffffffffffffffffff16021790555050565b600360009054906101000a900473ffffffffffffffffffffffffffffffffffffffff1673ffffffffffffffffffffffffffffffffffffffff163373ffffffffffffffffffffffffffffffffffffffff161415156106c357600080fd5b80600560006101000a81548173ffffffffffffffffffffffffffffffffffffffff021916908373ffffffffffffffffffffffffffffffffffffffff160217905550600560009054906101000a900473ffffffffffffffffffffffffffffffffffffffff16600960006101000a81548173ffffffffffffffffffffffffffffffffffffffff021916908373ffffffffffffffffffffffffffffffffffffffff16021790555050565b600060028281548110151561077b57fe5b9060005260206000209001549050919050565b600360009054906101000a900473ffffffffffffffffffffffffffffffffffffffff1673ffffffffffffffffffffffffffffffffffffffff163373ffffffffffffffffffffffffffffffffffffffff161415156107ea57600080fd5b80600460006101000a81548173ffffffffffffffffffffffffffffffffffffffff021916908373ffffffffffffffffffffffffffffffffffffffff16021790555080600860006101000a81548173ffffffffffffffffffffffffffffffffffffffff021916908373ffffffffffffffffffffffffffffffffffffffff16021790555050565b600760009054906101000a900473ffffffffffffffffffffffffffffffffffffffff1681565b6000806000806000856000191660001916815260200190815260200160002060000154600080866000191660001916815260200190815260200160002060010154600080876000191660001916815260200190815260200160002060020160009054906101000a900473ffffffffffffffffffffffffffffffffffffffff169250925092509193909250565b6000806000806000610931612304565b600061093b61232e565b61094361236c565b60008061094f8d610895565b809a50819b50829c505050506109648d612121565b89600060028110151561097357fe5b602002018a600160028110151561098657fe5b60200201829a50836000191660001916815250836000191660001916815250839a505050505060008a1315610cd1578991508b82101515156109c457fe5b60a0604051908101604052808973ffffffffffffffffffffffffffffffffffffffff1673ffffffffffffffffffffffffffffffffffffffff1681526020013073ffffffffffffffffffffffffffffffffffffffff1673ffffffffffffffffffffffffffffffffffffffff168152602001600660009054906101000a900473ffffffffffffffffffffffffffffffffffffffff1673ffffffffffffffffffffffffffffffffffffffff1673ffffffffffffffffffffffffffffffffffffffff168152602001600560009054906101000a900473ffffffffffffffffffffffffffffffffffffffff1673ffffffffffffffffffffffffffffffffffffffff1673ffffffffffffffffffffffffffffffffffffffff168152602001600360009054906101000a900473ffffffffffffffffffffffffffffffffffffffff1673ffffffffffffffffffffffffffffffffffffffff1673ffffffffffffffffffffffffffffffffffffffff16815250935060c060405190810160405280610b468e8c6121bb565b81526020018d815260200160008152602001600081526020017fffffffffffffffffffffffffffffffffffffffffffffffffffffffffffffffff81526020018681525092508b600960009054906101000a900473ffffffffffffffffffffffffffffffffffffffff1673ffffffffffffffffffffffffffffffffffffffff1663dd62ed3e33600760009054906101000a900473ffffffffffffffffffffffffffffffffffffffff166000604051602001526040518363ffffffff167c0100000000000000000000000000000000000000000000000000000000028152600401808373ffffffffffffffffffffffffffffffffffffffff1673ffffffffffffffffffffffffffffffffffffffff1681526020018273ffffffffffffffffffffffffffffffffffffffff1673ffffffffffffffffffffffffffffffffffffffff16815260200192505050602060405180830381600087803b1515610ca757600080fd5b6102c65a03f11515610cb857600080fd5b5050506040518051905010151515610ccc57fe5b610ff5565b610cde8a6000038a6121bb565b91508b8210151515610cec57fe5b8b600a60009054906101000a900473ffffffffffffffffffffffffffffffffffffffff1673ffffffffffffffffffffffffffffffffffffffff1663dd62ed3e33600760009054906101000a900473ffffffffffffffffffffffffffffffffffffffff166000604051602001526040518363ffffffff167c0100000000000000000000000000000000000000000000000000000000028152600401808373ffffffffffffffffffffffffffffffffffffffff1673ffffffffffffffffffffffffffffffffffffffff1681526020018273ffffffffffffffffffffffffffffffffffffffff1673ffffffffffffffffffffffffffffffffffffffff16815260200192505050602060405180830381600087803b1515610e0857600080fd5b6102c65a03f11515610e1957600080fd5b5050506040518051905010151515610e2d57fe5b60a0604051908101604052808973ffffffffffffffffffffffffffffffffffffffff1673ffffffffffffffffffffffffffffffffffffffff1681526020013073ffffffffffffffffffffffffffffffffffffffff1673ffffffffffffffffffffffffffffffffffffffff168152602001600560009054906101000a900473ffffffffffffffffffffffffffffffffffffffff1673ffffffffffffffffffffffffffffffffffffffff1673ffffffffffffffffffffffffffffffffffffffff168152602001600660009054906101000a900473ffffffffffffffffffffffffffffffffffffffff1673ffffffffffffffffffffffffffffffffffffffff1673ffffffffffffffffffffffffffffffffffffffff168152602001600360009054906101000a900473ffffffffffffffffffffffffffffffffffffffff1673ffffffffffffffffffffffffffffffffffffffff1673ffffffffffffffffffffffffffffffffffffffff16815250935060c0604051908101604052808d8152602001610fb58e8c6121bb565b815260200160008152602001600081526020017fffffffffffffffffffffffffffffffffffffffffffffffffffffffffffffffff81526020018681525092505b600860009054906101000a900473ffffffffffffffffffffffffffffffffffffffff1673ffffffffffffffffffffffffffffffffffffffff1663bc61394a85858f60008c8c600060028110151561104857fe5b60200201518d600160028110151561105c57fe5b60200201516000604051602001526040518863ffffffff167c01000000000000000000000000000000000000000000000000000000000281526004018088600560200280838360005b838110156110c05780820151818401526020810190506110a5565b5050505090500187600660200280838360005b838110156110ee5780820151818401526020810190506110d3565b50505050905001868152602001851515151581526020018460ff1660ff16815260200183600019166000191681526020018260001916600019168152602001975050505050505050602060405180830381600087803b151561114f57600080fd5b6102c65a03f1151561116057600080fd5b50505060405180519050905060008111156114065760008a131561126c57600a60009054906101000a900473ffffffffffffffffffffffffffffffffffffffff1673ffffffffffffffffffffffffffffffffffffffff1663a9059cbb33836000604051602001526040518363ffffffff167c0100000000000000000000000000000000000000000000000000000000028152600401808373ffffffffffffffffffffffffffffffffffffffff1673ffffffffffffffffffffffffffffffffffffffff16815260200182815260200192505050602060405180830381600087803b151561124b57600080fd5b6102c65a03f1151561125c57600080fd5b5050506040518051905050611356565b600960009054906101000a900473ffffffffffffffffffffffffffffffffffffffff1673ffffffffffffffffffffffffffffffffffffffff1663a9059cbb33836000604051602001526040518363ffffffff167c0100000000000000000000000000000000000000000000000000000000028152600401808373ffffffffffffffffffffffffffffffffffffffff1673ffffffffffffffffffffffffffffffffffffffff16815260200182815260200192505050602060405180830381600087803b151561133957600080fd5b6102c65a03f1151561134a57600080fd5b50505060405180519050505b8181141561136c576113678d6121ee565b6113ae565b8b6000808f6000191660001916815260200190815260200160002060000154036000808f60001916600019168152602001908152602001600020600001819055505b7f5bb9e663d15ef629b42635a8eabecca301c8acc2a4dc24774d06e3938936c0658d8d8b604051808460001916600019168152602001838152602001828152602001935050505060405180910390a160019a50611414565b61140f8d6121ee565b60009a505b5050505050505050505092915050565b600560009054906101000a900473ffffffffffffffffffffffffffffffffffffffff1681565b600360009054906101000a900473ffffffffffffffffffffffffffffffffffffffff1681565b6000600280549050905090565b600360009054906101000a900473ffffffffffffffffffffffffffffffffffffffff1673ffffffffffffffffffffffffffffffffffffffff163373ffffffffffffffffffffffffffffffffffffffff161415156114d957600080fd5b80600760006101000a81548173ffffffffffffffffffffffffffffffffffffffff021916908373ffffffffffffffffffffffffffffffffffffffff16021790555050565b60028181548110151561152c57fe5b90600052602060002090016000915090505481565b600360009054906101000a900473ffffffffffffffffffffffffffffffffffffffff1673ffffffffffffffffffffffffffffffffffffffff163373ffffffffffffffffffffffffffffffffffffffff1614151561159d57600080fd5b80600660006101000a81548173ffffffffffffffffffffffffffffffffffffffff021916908373ffffffffffffffffffffffffffffffffffffffff160217905550600660009054906101000a900473ffffffffffffffffffffffffffffffffffffffff16600a60006101000a81548173ffffffffffffffffffffffffffffffffffffffff021916908373ffffffffffffffffffffffffffffffffffffffff16021790555050565b6000871415151561165457600080fd5b60008713156117ab5761166787876121bb565b600a60009054906101000a900473ffffffffffffffffffffffffffffffffffffffff1673ffffffffffffffffffffffffffffffffffffffff1663dd62ed3e33600760009054906101000a900473ffffffffffffffffffffffffffffffffffffffff166000604051602001526040518363ffffffff167c0100000000000000000000000000000000000000000000000000000000028152600401808373ffffffffffffffffffffffffffffffffffffffff1673ffffffffffffffffffffffffffffffffffffffff1681526020018273ffffffffffffffffffffffffffffffffffffffff1673ffffffffffffffffffffffffffffffffffffffff16815260200192505050602060405180830381600087803b151561178257600080fd5b6102c65a03f1151561179357600080fd5b505050604051805190501415156117a657fe5b6118ef565b86600003600960009054906101000a900473ffffffffffffffffffffffffffffffffffffffff1673ffffffffffffffffffffffffffffffffffffffff1663dd62ed3e33600760009054906101000a900473ffffffffffffffffffffffffffffffffffffffff166000604051602001526040518363ffffffff167c0100000000000000000000000000000000000000000000000000000000028152600401808373ffffffffffffffffffffffffffffffffffffffff1673ffffffffffffffffffffffffffffffffffffffff1681526020018273ffffffffffffffffffffffffffffffffffffffff1673ffffffffffffffffffffffffffffffffffffffff16815260200192505050602060405180830381600087803b15156118ca57600080fd5b6102c65a03f115156118db57600080fd5b505050604051805190501415156118ee57fe5b5b866000808760001916600019168152602001908152602001600020600001819055508560008087600019166000191681526020019081526020016000206001018190555033600080876000191660001916815260200190815260200160002060020160006101000a81548173ffffffffffffffffffffffffffffffffffffffff021916908373ffffffffffffffffffffffffffffffffffffffff16021790555082600080876000191660001916815260200190815260200160002060020160146101000a81548160ff021916908360ff160217905550816000808760001916600019168152602001908152602001600020600301816000191690555080600080876000191660001916815260200190815260200160002060040181600019169055508360008087600019166000191681526020019081526020016000206005018190555060028054806001018281611a479190612394565b916000526020600020900160008790919091509060001916905550600280549050600160008760001916600019168152602001908152602001600020819055507f261d5ac7a7b49808307ef268e3f7f37eb7fcdcb7802f23227107bfb8d335bc9b858888604051808460001916600019168152602001838152602001828152602001935050505060405180910390a150505050505050565b6000806000806000611aef612304565b6000611af961232e565b6000611b0361236c565b611b0c8b6121ee565b611b158b610895565b809950819a50829b505050508673ffffffffffffffffffffffffffffffffffffffff163373ffffffffffffffffffffffffffffffffffffffff16141515611b5b57600080fd5b611b648b612121565b886000600281101515611b7357fe5b60200201896001600281101515611b8657fe5b60200201829950836000191660001916815250836000191660001916815250839950505050506000891315611d845788915060a0604051908101604052808873ffffffffffffffffffffffffffffffffffffffff1673ffffffffffffffffffffffffffffffffffffffff1681526020013373ffffffffffffffffffffffffffffffffffffffff1673ffffffffffffffffffffffffffffffffffffffff168152602001600660009054906101000a900473ffffffffffffffffffffffffffffffffffffffff1673ffffffffffffffffffffffffffffffffffffffff1673ffffffffffffffffffffffffffffffffffffffff168152602001600560009054906101000a900473ffffffffffffffffffffffffffffffffffffffff1673ffffffffffffffffffffffffffffffffffffffff1673ffffffffffffffffffffffffffffffffffffffff168152602001600360009054906101000a900473ffffffffffffffffffffffffffffffffffffffff1673ffffffffffffffffffffffffffffffffffffffff1673ffffffffffffffffffffffffffffffffffffffff16815250925060c060405190810160405280611d3a8b8b6121bb565b81526020018a815260200160008152602001600081526020017fffffffffffffffffffffffffffffffffffffffffffffffffffffffffffffffff8152602001858152509050611f55565b88600003915060a0604051908101604052808873ffffffffffffffffffffffffffffffffffffffff1673ffffffffffffffffffffffffffffffffffffffff1681526020013373ffffffffffffffffffffffffffffffffffffffff1673ffffffffffffffffffffffffffffffffffffffff168152602001600560009054906101000a900473ffffffffffffffffffffffffffffffffffffffff1673ffffffffffffffffffffffffffffffffffffffff1673ffffffffffffffffffffffffffffffffffffffff168152602001600660009054906101000a900473ffffffffffffffffffffffffffffffffffffffff1673ffffffffffffffffffffffffffffffffffffffff1673ffffffffffffffffffffffffffffffffffffffff168152602001600360009054906101000a900473ffffffffffffffffffffffffffffffffffffffff1673ffffffffffffffffffffffffffffffffffffffff1673ffffffffffffffffffffffffffffffffffffffff16815250925060c060405190810160405280838152602001611f158b6000038b6121bb565b815260200160008152602001600081526020017fffffffffffffffffffffffffffffffffffffffffffffffffffffffffffffffff81526020018581525090505b6000600860009054906101000a900473ffffffffffffffffffffffffffffffffffffffff1673ffffffffffffffffffffffffffffffffffffffff1663394c21e78584866000604051602001526040518463ffffffff167c01000000000000000000000000000000000000000000000000000000000281526004018084600560200280838360005b83811015611ff7578082015181840152602081019050611fdc565b5050505090500183600660200280838360005b8381101561202557808201518184015260208101905061200a565b505050509050018281526020019350505050602060405180830381600087803b151561205057600080fd5b6102c65a03f1151561206157600080fd5b5050506040518051905011151561207457fe5b7fadd9ea5e3a6d0eb9d89a7979aedc9ac06eea62d40b9492f938d1f513092a97088b8a8a604051808460001916600019168152602001838152602001828152602001935050505060405180910390a160019950505050505050505050919050565b600460009054906101000a900473ffffffffffffffffffffffffffffffffffffffff1681565b600660009054906101000a900473ffffffffffffffffffffffffffffffffffffffff1681565b600080600080600080866000191660001916815260200190815260200160002060020160149054906101000a900460ff1660008087600019166000191681526020019081526020016000206003015460008088600019166000191681526020019081526020016000206004015460008089600019166000191681526020019081526020016000206005015493509350935093509193509193565b600080828402905060008414806121dc57508284828115156121d957fe5b04145b15156121e457fe5b8091505092915050565b6000806000600160028054905003925060028381548110151561220d57fe5b9060005260206000209001549150836000191682600019161415156122a857600160008560001916600019168152602001908152602001600020549050806001600084600019166000191681526020019081526020016000208190555060028381548110151561227957fe5b90600052602060002090015460028281548110151561229457fe5b906000526020600020900181600019169055505b600160008560001916600019168152602001908152602001600020600090556122d760028054905060016122eb565b6002816122e491906123c0565b5050505050565b60008282111515156122f957fe5b818303905092915050565b60408051908101604052806002905b60008019168152602001906001900390816123135790505090565b60a0604051908101604052806005905b600073ffffffffffffffffffffffffffffffffffffffff1681526020019060019003908161233e5790505090565b60c0604051908101604052806006905b600081526020019060019003908161237c5790505090565b8154818355818115116123bb578183600052602060002091820191016123ba91906123ec565b5b505050565b8154818355818115116123e7578183600052602060002091820191016123e691906123ec565b5b505050565b61240e91905b8082111561240a5760008160009055506001016123f2565b5090565b905600a165627a7a72305820403213aa5fc6191c5e33e95acad659706f695453439f9a4990f5f31b5e39086d0029",
  "source": "pragma solidity ^0.4.17;\r\n\r\nimport \"./WETH9.sol\";\r\nimport \"./Interface0x.sol\";\r\nimport \"./TokenTransferProxy.sol\";\r\nimport \"./SafeMath.sol\"; \r\n\r\ncontract OnChain_Relayer is SafeMath{\r\n\r\n\r\n    struct SpecificOrder {\r\n        int amount;\r\n        uint price;\r\n        address maker;\r\n        uint8 v;\r\n        bytes32 r;\r\n        bytes32 s;\r\n        uint salt;\r\n    }\r\n\r\n    mapping(bytes32 => SpecificOrder) order_details;\r\n    mapping(bytes32 => uint) order_index;\r\n    bytes32[] public orders;\r\n    address public owner;\r\n    address public zeroX_address;\r\n    address public token_address;\r\n    address public wrapped_ether_address;\r\n    address public tokentransferproxy_address;\r\n    Interface0x zeroX;\r\n    Token ERC20Token;\r\n    WETH9 Wrapped_Ether;\r\n\r\n    modifier onlyOwner() {require(msg.sender == owner);_;}\r\n\r\n    event NewOrder(bytes32 _hash,int _amount,uint _price);\r\n    event FilledOrder(bytes32 _hash, uint _amount, uint _price);\r\n    event CancelledOrder(bytes32 _hash,int _amount,uint _price); \r\n    event Print(string _blah, uint _val);\r\n    event Print2(string _b,int _val);   \r\n\r\n    function OnChain_Relayer() public {\r\n        owner = msg.sender;\r\n        orders.push(0);\r\n    }\r\n\r\n\r\n    function placeLimit(int _amount, uint _price,bytes32 hash,uint _salt,uint8 _v,bytes32 _r,bytes32 _s) public{\r\n        require(_amount !=0);\r\n        if(_amount > 0){\r\n            assert(Wrapped_Ether.allowance(msg.sender,tokentransferproxy_address) == safeMul(uint(_amount),_price));\r\n        }\r\n        else{\r\n            assert(ERC20Token.allowance(msg.sender,tokentransferproxy_address) == uint(-_amount));\r\n        }\r\n        order_details[hash].amount = _amount;\r\n        order_details[hash].price = _price;\r\n        order_details[hash].maker= msg.sender;\r\n        order_details[hash].v= _v;\r\n        order_details[hash].r= _r;\r\n        order_details[hash].s= _s;\r\n        order_details[hash].salt = _salt;\r\n        orders.push(hash);\r\n        order_index[hash] = orders.length;\r\n        NewOrder(hash,_amount,_price);\r\n    }\r\n\r\n    function cancelLimit(bytes32 _orderHash) public returns(bool success){\r\n        removeOrder(_orderHash);\r\n        int _amount; uint _price; address _maker;\r\n        (_amount,_price,_maker) = getInfo(_orderHash);\r\n        require(msg.sender == _maker);\r\n        uint8 _v;bytes32[2] memory sig;uint salt;\r\n        (_v,sig[0],sig[1],salt) = getSignature(_orderHash);\r\n        address[5] memory orderAddresses;\r\n        uint value;\r\n        uint[6] memory orderValues;\r\n        if(_amount > 0){\r\n            value = uint(_amount);\r\n            orderAddresses = [_maker,msg.sender,wrapped_ether_address,token_address,owner];\r\n            orderValues = [safeMul(uint(_amount),_price),uint(_amount),0,0,2**256 - 1,salt];\r\n        }\r\n        else {\r\n            value = uint(-_amount);\r\n            orderAddresses = [_maker,msg.sender,token_address,wrapped_ether_address,owner];\r\n            orderValues = [value,safeMul(uint(-_amount),_price),0,0,2**256 - 1,salt];\r\n        }\r\n        assert(zeroX.cancelOrder(orderAddresses,orderValues,value) >0);\r\n        CancelledOrder(_orderHash,_amount,_price);\r\n        return true;\r\n\r\n    }\r\n\r\n    function takeOrder(bytes32 _orderHash, uint _TokenAmount) public returns(bool _success){\r\n        //must call allowance beforehand\r\n        int _amount; uint _price; address _maker;\r\n        (_amount,_price,_maker) = getInfo(_orderHash);\r\n        uint8 _v;bytes32[2] memory sig;uint salt;\r\n        (_v,sig[0],sig[1],salt) = getSignature(_orderHash);\r\n        address[5] memory orderAddresses;\r\n        uint[6] memory orderValues;\r\n        uint value;\r\n        if(_amount > 0){\r\n            value = uint(_amount);\r\n            assert(value >= _TokenAmount);\r\n            orderAddresses = [_maker,address(this),wrapped_ether_address,token_address,owner];\r\n            orderValues = [safeMul(_TokenAmount,_price),_TokenAmount,0,0,2**256 - 1,salt];\r\n            assert(ERC20Token.allowance(msg.sender,tokentransferproxy_address) >= _TokenAmount);\r\n        }\r\n        else {\r\n            value = safeMul(uint(-_amount),_price);\r\n            assert(value >= _TokenAmount);\r\n            assert(Wrapped_Ether.allowance(msg.sender,tokentransferproxy_address) >= _TokenAmount);\r\n            orderAddresses = [_maker,address(this),token_address,wrapped_ether_address,owner];\r\n            orderValues = [_TokenAmount,safeMul(_TokenAmount,_price),0,0,2**256 - 1,salt];\r\n        }\r\n     uint _taken = zeroX.fillOrder(orderAddresses,orderValues,_TokenAmount,false,_v,sig[0],sig[1]);\r\n\r\n     if(_taken > 0){\r\n        if(_amount > 0){\r\n            Wrapped_Ether.transfer(msg.sender,_taken);\r\n         }\r\n         else{\r\n            ERC20Token.transfer(msg.sender,_taken);\r\n         }\r\n        if(_taken == value){\r\n            removeOrder(_orderHash);\r\n        }\r\n        else{\r\n            order_details[_orderHash].amount = order_details[_orderHash].amount - int(_TokenAmount);\r\n        }\r\n        FilledOrder(_orderHash,_TokenAmount,_price);\r\n        return true;\r\n     }\r\n     else{\r\n        removeOrder(_orderHash);\r\n        return false ;\r\n     }\r\n    }\r\n\r\n    function getInfo(bytes32 _hash)constant public returns(int _amount, uint _price, address _maker){\r\n        return(order_details[_hash].amount,order_details[_hash].price,order_details[_hash].maker);\r\n    }\r\n\r\n    function getHashfromIndex(uint _index)constant public returns(bytes32){\r\n        return orders[_index];\r\n    }\r\n\r\n    function getOrderLength()constant public returns(uint _len){\r\n        return orders.length;\r\n    }\r\n\r\n    function getSignature(bytes32 _hash) constant internal returns(uint8 _v,bytes32 _r, bytes32 _s,uint salt){\r\n        return(order_details[_hash].v,order_details[_hash].r,order_details[_hash].s,order_details[_hash].salt);\r\n    }\r\n\r\n    function setToken(address _tokenAddress) public onlyOwner() {\r\n        token_address = _tokenAddress;\r\n        ERC20Token = Token(token_address);\r\n    }\r\n\r\n    function setWrappedEther(address _tokenAddress) public onlyOwner() {\r\n        wrapped_ether_address = _tokenAddress;\r\n        Wrapped_Ether = WETH9(wrapped_ether_address);\r\n    }\r\n\r\n    function set0x_address(address _0x) public onlyOwner(){\r\n        zeroX_address = _0x;\r\n        zeroX = Interface0x(_0x);\r\n    }\r\n\r\n    function setTTP_address(address _ttp) public onlyOwner(){\r\n        tokentransferproxy_address = _ttp;\r\n    }\r\n\r\n\r\n    function setOwner(address _newOwner) public onlyOwner(){\r\n        owner = _newOwner;\r\n    }\r\n\r\n\r\n    function removeOrder(bytes32 _remove) internal {\r\n    uint last_index = orders.length - 1;\r\n    bytes32 last_hash = orders[last_index];\r\n    //If the hash we want to remove is the final hash in array\r\n    if (last_hash != _remove) {\r\n      uint remove_index = order_index[_remove];\r\n      //Update the order index of the last hash to that of the removed hash index\r\n      order_index[last_hash] = remove_index;\r\n      //Set the order of the removed index to the order of the last hash\r\n      orders[remove_index] = orders[last_index];\r\n    }\r\n    //Remove the order index for this address\r\n    delete order_index[_remove];\r\n    //Finally, decrement the order balances length\r\n    orders.length = safeSub(orders.length,1);\r\n  }\r\n}",
  "sourcePath": "C:\\company\\0x\\roc\\contracts\\OnChain_Relayer.sol",
  "compiler": {
    "name": "solc",
    "version": "0.4.18+commit.9cf6e910.Emscripten.clang"
  },
  "schemaVersion": "1.0.1",
  "updatedAt": "2018-02-18T07:25:33.819Z"
}