{
  "contractName": "TokenTransferProxy",
  "abi": [
    {
      "constant": false,
      "inputs": [
        {
          "name": "token",
          "type": "address"
        },
        {
          "name": "from",
          "type": "address"
        },
        {
          "name": "to",
          "type": "address"
        },
        {
          "name": "value",
          "type": "uint256"
        }
      ],
      "name": "transferFrom",
      "outputs": [
        {
          "name": "",
          "type": "bool"
        }
      ],
      "payable": false,
      "stateMutability": "nonpayable",
      "type": "function"
    },
    {
      "constant": false,
      "inputs": [
        {
          "name": "target",
          "type": "address"
        }
      ],
      "name": "addAuthorizedAddress",
      "outputs": [],
      "payable": false,
      "stateMutability": "nonpayable",
      "type": "function"
    },
    {
      "constant": true,
      "inputs": [
        {
          "name": "",
          "type": "uint256"
        }
      ],
      "name": "authorities",
      "outputs": [
        {
          "name": "",
          "type": "address"
        }
      ],
      "payable": false,
      "stateMutability": "view",
      "type": "function"
    },
    {
      "constant": false,
      "inputs": [
        {
          "name": "target",
          "type": "address"
        }
      ],
      "name": "removeAuthorizedAddress",
      "outputs": [],
      "payable": false,
      "stateMutability": "nonpayable",
      "type": "function"
    },
    {
      "constant": true,
      "inputs": [],
      "name": "owner",
      "outputs": [
        {
          "name": "",
          "type": "address"
        }
      ],
      "payable": false,
      "stateMutability": "view",
      "type": "function"
    },
    {
      "constant": true,
      "inputs": [
        {
          "name": "",
          "type": "address"
        }
      ],
      "name": "authorized",
      "outputs": [
        {
          "name": "",
          "type": "bool"
        }
      ],
      "payable": false,
      "stateMutability": "view",
      "type": "function"
    },
    {
      "constant": true,
      "inputs": [],
      "name": "getAuthorizedAddresses",
      "outputs": [
        {
          "name": "",
          "type": "address[]"
        }
      ],
      "payable": false,
      "stateMutability": "view",
      "type": "function"
    },
    {
      "constant": false,
      "inputs": [
        {
          "name": "newOwner",
          "type": "address"
        }
      ],
      "name": "transferOwnership",
      "outputs": [],
      "payable": false,
      "stateMutability": "nonpayable",
      "type": "function"
    },
    {
      "anonymous": false,
      "inputs": [
        {
          "indexed": true,
          "name": "target",
          "type": "address"
        },
        {
          "indexed": true,
          "name": "caller",
          "type": "address"
        }
      ],
      "name": "LogAuthorizedAddressAdded",
      "type": "event"
    },
    {
      "anonymous": false,
      "inputs": [
        {
          "indexed": true,
          "name": "target",
          "type": "address"
        },
        {
          "indexed": true,
          "name": "caller",
          "type": "address"
        }
      ],
      "name": "LogAuthorizedAddressRemoved",
      "type": "event"
    }
  ],
  "bytecode": "0x6060604052336000806101000a81548173ffffffffffffffffffffffffffffffffffffffff021916908373ffffffffffffffffffffffffffffffffffffffff160217905550610bc8806100536000396000f30060606040526004361061008e576000357c0100000000000000000000000000000000000000000000000000000000900463ffffffff16806315dacbea1461009357806342f1181e1461012b578063494503d41461016457806370712939146101c75780638da5cb5b14610200578063b918161114610255578063d39de6e9146102a6578063f2fde38b14610310575b600080fd5b341561009e57600080fd5b610111600480803573ffffffffffffffffffffffffffffffffffffffff1690602001909190803573ffffffffffffffffffffffffffffffffffffffff1690602001909190803573ffffffffffffffffffffffffffffffffffffffff16906020019091908035906020019091905050610349565b604051808215151515815260200191505060405180910390f35b341561013657600080fd5b610162600480803573ffffffffffffffffffffffffffffffffffffffff169060200190919050506104a7565b005b341561016f57600080fd5b6101856004808035906020019091905050610674565b604051808273ffffffffffffffffffffffffffffffffffffffff1673ffffffffffffffffffffffffffffffffffffffff16815260200191505060405180910390f35b34156101d257600080fd5b6101fe600480803573ffffffffffffffffffffffffffffffffffffffff169060200190919050506106b3565b005b341561020b57600080fd5b61021361095d565b604051808273ffffffffffffffffffffffffffffffffffffffff1673ffffffffffffffffffffffffffffffffffffffff16815260200191505060405180910390f35b341561026057600080fd5b61028c600480803573ffffffffffffffffffffffffffffffffffffffff16906020019091905050610982565b604051808215151515815260200191505060405180910390f35b34156102b157600080fd5b6102b96109a2565b6040518080602001828103825283818151815260200191508051906020019060200280838360005b838110156102fc5780820151818401526020810190506102e1565b505050509050019250505060405180910390f35b341561031b57600080fd5b610347600480803573ffffffffffffffffffffffffffffffffffffffff16906020019091905050610a36565b005b6000600160003373ffffffffffffffffffffffffffffffffffffffff1673ffffffffffffffffffffffffffffffffffffffff16815260200190815260200160002060009054906101000a900460ff1615156103a357600080fd5b8473ffffffffffffffffffffffffffffffffffffffff166323b872dd8585856000604051602001526040518463ffffffff167c0100000000000000000000000000000000000000000000000000000000028152600401808473ffffffffffffffffffffffffffffffffffffffff1673ffffffffffffffffffffffffffffffffffffffff1681526020018373ffffffffffffffffffffffffffffffffffffffff1673ffffffffffffffffffffffffffffffffffffffff1681526020018281526020019350505050602060405180830381600087803b151561048257600080fd5b6102c65a03f1151561049357600080fd5b505050604051805190509050949350505050565b6000809054906101000a900473ffffffffffffffffffffffffffffffffffffffff1673ffffffffffffffffffffffffffffffffffffffff163373ffffffffffffffffffffffffffffffffffffffff1614151561050257600080fd5b80600160008273ffffffffffffffffffffffffffffffffffffffff1673ffffffffffffffffffffffffffffffffffffffff16815260200190815260200160002060009054906101000a900460ff1615151561055c57600080fd5b60018060008473ffffffffffffffffffffffffffffffffffffffff1673ffffffffffffffffffffffffffffffffffffffff16815260200190815260200160002060006101000a81548160ff021916908315150217905550600280548060010182816105c79190610b0b565b9160005260206000209001600084909190916101000a81548173ffffffffffffffffffffffffffffffffffffffff021916908373ffffffffffffffffffffffffffffffffffffffff160217905550503373ffffffffffffffffffffffffffffffffffffffff168273ffffffffffffffffffffffffffffffffffffffff167f94bb87f4c15c4587ff559a7584006fa01ddf9299359be6b512b94527aa961aca60405160405180910390a35050565b60028181548110151561068357fe5b90600052602060002090016000915054906101000a900473ffffffffffffffffffffffffffffffffffffffff1681565b60008060009054906101000a900473ffffffffffffffffffffffffffffffffffffffff1673ffffffffffffffffffffffffffffffffffffffff163373ffffffffffffffffffffffffffffffffffffffff1614151561071057600080fd5b81600160008273ffffffffffffffffffffffffffffffffffffffff1673ffffffffffffffffffffffffffffffffffffffff16815260200190815260200160002060009054906101000a900460ff16151561076957600080fd5b600160008473ffffffffffffffffffffffffffffffffffffffff1673ffffffffffffffffffffffffffffffffffffffff16815260200190815260200160002060006101000a81549060ff0219169055600091505b6002805490508210156108fe578273ffffffffffffffffffffffffffffffffffffffff166002838154811015156107f057fe5b906000526020600020900160009054906101000a900473ffffffffffffffffffffffffffffffffffffffff1673ffffffffffffffffffffffffffffffffffffffff1614156108f157600260016002805490500381548110151561084f57fe5b906000526020600020900160009054906101000a900473ffffffffffffffffffffffffffffffffffffffff1660028381548110151561088a57fe5b906000526020600020900160006101000a81548173ffffffffffffffffffffffffffffffffffffffff021916908373ffffffffffffffffffffffffffffffffffffffff16021790555060016002818180549050039150816108eb9190610b37565b506108fe565b81806001019250506107bd565b3373ffffffffffffffffffffffffffffffffffffffff168373ffffffffffffffffffffffffffffffffffffffff167ff5b347a1e40749dd050f5f07fbdbeb7e3efa9756903044dd29401fd1d4bb4a1c60405160405180910390a3505050565b6000809054906101000a900473ffffffffffffffffffffffffffffffffffffffff1681565b60016020528060005260406000206000915054906101000a900460ff1681565b6109aa610b63565b6002805480602002602001604051908101604052809291908181526020018280548015610a2c57602002820191906000526020600020905b8160009054906101000a900473ffffffffffffffffffffffffffffffffffffffff1673ffffffffffffffffffffffffffffffffffffffff16815260200190600101908083116109e2575b5050505050905090565b6000809054906101000a900473ffffffffffffffffffffffffffffffffffffffff1673ffffffffffffffffffffffffffffffffffffffff163373ffffffffffffffffffffffffffffffffffffffff16141515610a9157600080fd5b600073ffffffffffffffffffffffffffffffffffffffff168173ffffffffffffffffffffffffffffffffffffffff16141515610b0857806000806101000a81548173ffffffffffffffffffffffffffffffffffffffff021916908373ffffffffffffffffffffffffffffffffffffffff1602179055505b50565b815481835581811511610b3257818360005260206000209182019101610b319190610b77565b5b505050565b815481835581811511610b5e57818360005260206000209182019101610b5d9190610b77565b5b505050565b602060405190810160405280600081525090565b610b9991905b80821115610b95576000816000905550600101610b7d565b5090565b905600a165627a7a72305820f50fca550799b1c5863162f28c83dc5074ff92cd1261d8aa1974c36d6cdd1a620029",
  "source": "/// @title TokenTransferProxy - Transfers tokens on behalf of contracts that have been approved via decentralized governance.\r\n/// @author Amir Bandeali - <amir@0xProject.com>, Will Warren - <will@0xProject.com>\r\n\r\npragma solidity ^0.4.14;\r\n\r\nimport \"./Ownable.sol\";\r\nimport \"./Token.sol\";\r\n\r\ncontract TokenTransferProxy is Ownable {\r\n\r\n    /// @dev Only authorized addresses can invoke functions with this modifier.\r\n    modifier onlyAuthorized {\r\n        require(authorized[msg.sender]);\r\n        _;\r\n    }\r\n\r\n    modifier targetAuthorized(address target) {\r\n        require(authorized[target]);\r\n        _;\r\n    }\r\n\r\n    modifier targetNotAuthorized(address target) {\r\n        require(!authorized[target]);\r\n        _;\r\n    }\r\n\r\n    mapping (address => bool) public authorized;\r\n    address[] public authorities;\r\n\r\n    event LogAuthorizedAddressAdded(address indexed target, address indexed caller);\r\n    event LogAuthorizedAddressRemoved(address indexed target, address indexed caller);\r\n\r\n    /*\r\n     * Public functions\r\n     */\r\n\r\n    /// @dev Authorizes an address.\r\n    /// @param target Address to authorize.\r\n    function addAuthorizedAddress(address target)\r\n        public\r\n        onlyOwner\r\n        targetNotAuthorized(target)\r\n    {\r\n        authorized[target] = true;\r\n        authorities.push(target);\r\n        LogAuthorizedAddressAdded(target, msg.sender);\r\n    }\r\n\r\n    /// @dev Removes authorizion of an address.\r\n    /// @param target Address to remove authorization from.\r\n    function removeAuthorizedAddress(address target)\r\n        public\r\n        onlyOwner\r\n        targetAuthorized(target)\r\n    {\r\n        delete authorized[target];\r\n        for (uint i = 0; i < authorities.length; i++) {\r\n            if (authorities[i] == target) {\r\n                authorities[i] = authorities[authorities.length - 1];\r\n                authorities.length -= 1;\r\n                break;\r\n            }\r\n        }\r\n        LogAuthorizedAddressRemoved(target, msg.sender);\r\n    }\r\n\r\n    /// @dev Calls into ERC20 Token contract, invoking transferFrom.\r\n    /// @param token Address of token to transfer.\r\n    /// @param from Address to transfer token from.\r\n    /// @param to Address to transfer token to.\r\n    /// @param value Amount of token to transfer.\r\n    /// @return Success of transfer.\r\n    function transferFrom(\r\n        address token,\r\n        address from,\r\n        address to,\r\n        uint value)\r\n        public\r\n        onlyAuthorized\r\n        returns (bool)\r\n    {\r\n        return Token(token).transferFrom(from, to, value);\r\n    }\r\n\r\n    /*\r\n     * Public constant functions\r\n     */\r\n\r\n    /// @dev Gets all authorized addresses.\r\n    /// @return Array of authorized addresses.\r\n    function getAuthorizedAddresses()\r\n        public\r\n        constant\r\n        returns (address[])\r\n    {\r\n        return authorities;\r\n    }\r\n}\r\n",
  "sourcePath": "C:\\company\\0x\\roc\\contracts\\TokenTransferProxy.sol",
  "compiler": {
    "name": "solc",
    "version": "0.4.18+commit.9cf6e910.Emscripten.clang"
  },
  "schemaVersion": "1.0.1",
  "updatedAt": "2018-02-18T15:10:32.928Z"
}